:020000040800F2
:1000000000500020354400087119000873190008D9
:100010007519000877190008791900080000000018
:100020000000000000000000000000007B19000834
:100030007D190008000000007F19000881190008E0
:100040007D4400087D4400087D4400087D4400088C
:100050007D4400087D4400087D4400087D4400087C
:100060007D4400087D4400087D4400087D4400086C
:100070007D4400087D4400087D4400087D4400085C
:100080007D4400087D4400087D4400087D4400084C
:100090007D4400087D4400087D4400087D4400083C
:1000A0007D4400087D4400087D4400087D4400082C
:1000B0007D4400087D4400087D440008891900083B
:1000C0007D4400087D4400087D4400087D4400080C
:1000D0007D44000899190008A91900087D4400080A
:1000E0007D4400087D4400087D44000800000000B5
:1000F0000000000000000000000000000000000000
:0C01000000000000000000005FF808F1A3
:10010C0010B5054C237833B9044B13B10448AFF345
:10011C0000800123237010BD280000200000000087
:10012C001445000808B5034B1BB103490348AFF352
:10013C00008008BD000000002C00002014450008C1
:10014C0081F0004102E000BF83F0004330B54FEA7C
:10015C0041044FEA430594EA050F08BF90EA020FE9
:10016C001FBF54EA000C55EA020C7FEA645C7FEA7C
:10017C00655C00F0E2804FEA5454D4EB5555B8BF9F
:10018C006D420CDD2C4480EA020281EA030382EA10
:10019C00000083EA010180EA020281EA0303362DA2
:1001AC0088BF30BD11F0004F4FEA01314FF4801C75
:1001BC004CEA113102D0404261EB410113F0004F87
:1001CC004FEA03334CEA133302D0524263EB43033E
:1001DC0094EA050F00F0A780A4F10104D5F1200EDC
:1001EC000DDB02FA0EFC22FA05F2801841F1000137
:1001FC0003FA0EF2801843FA05F359410EE0A5F10B
:10020C0020050EF1200E012A03FA0EFC28BF4CF03B
:10021C00020C43FA05F3C01851EBE37101F00045F1
:10022C0007D54FF0000EDCF1000C7EEB00006EEBFE
:10023C000101B1F5801F1BD3B1F5001F0CD3490888
:10024C005FEA30004FEA3C0C04F101044FEA4452DF
:10025C0012F5800F80F09A80BCF1004F08BF5FEA66
:10026C00500C50F1000041EB045141EA050130BD46
:10027C005FEA4C0C404141EB0101013C28BFB1F558
:10028C00801FE9D291F0000F04BF01460020B1FAA3
:10029C0081F308BF2033A3F10B03B3F120020CDA76
:1002AC000C3208DD02F1140CC2F10C0201FA0CF054
:1002BC0021FA02F10CE002F11402D8BFC2F1200CB9
:1002CC0001FA02F120FA0CFCDCBF41EA0C0190406F
:1002DC00E41AA2BF01EB0451294330BD6FEA0404B8
:1002EC001F3C1CDA0C340EDC04F11404C4F12002A3
:1002FC0020FA04F001FA02F340EA030021FA04F3B5
:10030C0045EA030130BDC4F10C04C4F1200220FA0B
:10031C0002F001FA04F340EA0300294630BD21FA49
:10032C0004F0294630BD94F0000F83F4801306BF0F
:10033C0081F480110134013D4EE77FEA645C18BF03
:10034C007FEA655C29D094EA050F08BF90EA020F9A
:10035C0005D054EA000C04BF1946104630BD91EA92
:10036C00030F1EBF0021002030BD5FEA545C05D195
:10037C004000494128BF41F0004130BD14F58004D4
:10038C003CBF01F5801130BD01F0004545F0FE4148
:10039C0041F470014FF0000030BD7FEA645C1ABF7D
:1003AC00194610467FEA655C1CBF0B46024650EAB4
:1003BC00013406BF52EA033591EA030F41F40021E0
:1003CC0030BD00BF90F0000F04BF0021704730B566
:1003DC004FF4806404F132044FF000054FF000013B
:1003EC0050E700BF90F0000F04BF0021704730B5FC
:1003FC004FF4806404F1320410F0004548BF4042D1
:10040C004FF000013EE700BF42004FEAE2014FEA25
:10041C0031014FEA02701FBF12F07F4393F07F4F00
:10042C0081F06051704732F07F4208BF704793F003
:10043C007F4F04BF41F40021704730B54FF4607416
:10044C0001F0004521F000411CE700BF50EA010219
:10045C0008BF704730B54FF000050AE050EA0102C2
:10046C0008BF704730B511F0004502D5404261EB32
:10047C0041014FF4806404F132045FEA915C3FF473
:10048C00D8AE4FF003025FEADC0C18BF03325FEA10
:10049C00DC0C18BF033202EBDC02C2F1200300FAC1
:1004AC0003FC20FA02F001FA03FE40EA0E0021FAE6
:1004BC0002F11444BDE600BF4A0011D212F500123D
:1004CC0011D20DD56FF47873B3EB62520ED44FEAA0
:1004DC00C12343F0004343EA505323FA02F0704720
:1004EC004FF00000704750EA013002D14FF0FF305E
:1004FC0070474FF00000704784B00F4B9A6942F080
:10050C0020029A619A6902F020020192019A9A697A
:10051C0042F004029A619A6902F004020292029A71
:10052C009A6942F008029A619B6903F008030393ED
:10053C00039B04B0704700BF0010024008B50B4885
:10054C000B4B03600B4B436000238360C3604FF481
:10055C008042026143618361C361036202F09AF8D5
:10056C0000B908BD00F050FEFBE700BF44000020BE
:10057C0000540040A086010010B586B00023029301
:10058C000393049305930268154B9A4201D006B06D
:10059C0010BD144CA36943F00803A361A36903F0D5
:1005AC0008030093009BC02302931223039303239D
:1005BC00059302A90C4801F0E7FBE36943F400132F
:1005CC00E361E36903F400130193019B00221146DC
:1005DC001F2001F00BFB1F2001F040FBD7E700BFF1
:1005EC000054004000100240000C01402DE9F04F77
:1005FC00C9B08246D0F808B0C3680193036902936E
:10060C004369039383690493C3690593036A06934F
:10061C00436A0793002205E051F8223008A840F8FD
:10062C00223001320F2AF7DD102222E0931E08A996
:10063C0051F823104FEAF14383EA714383EA912383
:10064C00D11F08A850F821100B44A2F10F0150F84B
:10065C0021004FEAB04181EAF01181EAD0010B444C
:10066C00A2F1100108A850F821100B4440F82230D8
:10067C0001323F2ADADDDDF81CE0069E059F049A64
:10068C00DDF80C80029C019DDC4600202FE04FEA37
:10069C00F22383EAB21383EA7263734402EA07011A
:1006AC0026EA020E81EA0E010B44234951F8201070
:1006BC000B4408A951F820100B444FEA7C3181EA15
:1006CC00BC0181EABC5185EA040E0EEA0C0E05EA67
:1006DC0004098EEA090E71440130B6463E461746AF
:1006EC0008EB0302A0462C46654603EB010C3F28A1
:1006FC00CDDD0CEB0B03CAF80830019B1D44CAF886
:10070C000C50029B1C44CAF81040039B4344CAF88B
:10071C001430049B1A44CAF81820059B1F44CAF8CD
:10072C001C70069B1E44CAF82060079B7344CAF8D1
:10073C00243049B0BDE8F08F384500082DE9F04F62
:10074C00C3B00090002800F09C820F46904602F146
:10075C00020902F58B7602F21D13019300232893F4
:10076C002993A74B2A93A74B2B93A74B2C93A74BBF
:10077C002D93A74B2E93A74B2F93A74B309303F19D
:10078C007453A3F52303A3F69243319300F1100B9A
:10079C004FF4807328934FF0000A20250CE022467A
:1007AC00594632AB03EB0A0003F098FEA244A34473
:1007BC002D1BBAF1400F06D015B3CAF14004AC4260
:1007CC00EDD92C46EBE700230F2B12DC32A800EB03
:1007DC00830112AC04EB830291F803C004F823C02C
:1007EC008C7854704978917010F82310D1700133C3
:1007FC00EAE712A928A8FFF7F9FE4FF0000ADBE799
:10080C00289B03F150022892934202D9299A013273
:10081C002992C3F3C50B4FF00A0A0DE02246494654
:10082C0032AB03EB0B0003F059FEA344A144AAEB3B
:10083C00040ABBF1400F22D0BAF1000F21D0CBF14A
:10084C0040045445EAD95446E8E732A800EB83014A
:10085C0012AC04EB830291F803C004F823C08C782B
:10086C0054704978917010F82310D17001330F2B0C
:10087C00EBDD12A928A8FFF7B9FEAB46DCE7002395
:10088C00F5E708F10C0B98F80390289D05EBC903CC
:10089C0028939D4202D9299B01332993C5F3C505A1
:1008AC000BE02246594632AB581903F017FE25448B
:1008BC00A344A9EB0409402D21D0B9F1000F20D09D
:1008CC00C5F140044C45ECD94C46EAE732A800EBA4
:1008DC00830112AC04EB8302CD7804F823508C789E
:1008EC0054704978917010F82310D17001330F2B8C
:1008FC00ECDD12A928A8FFF779FE5546DDE70023A9
:10090C00F5E708F58A7B289D05F1100328939D4295
:10091C0002D9299B01332993C5F3C5054FF0020A6F
:10092C000BE02246594632AB581903F0D7FD25444B
:10093C00A344AAEB040A402D21D0BAF1000F20D019
:10094C00C5F140045445ECD95446EAE732A800EB13
:10095C00830112AC04EB8302CD7804F823508C781D
:10096C0054704978917010F82310D17001330F2B0B
:10097C00ECDD12A928A8FFF739FE4D46DDE7002370
:10098C00F5E7289D05F1380328939D4202D9299B50
:10099C0001332993C5F3C5054FF007090BE0224637
:1009AC00314632AB581903F099FD25442644A9EB86
:1009BC000409402D21D0B9F1000F2FD0C5F140040E
:1009CC004C45ECD94C46EAE732A800EB830112AC5B
:1009DC0004EB8302CD7804F823508C78547049785A
:1009EC00917010F82310D17001330F2BECDD12A98C
:1009FC0028A8FFF7FBFD5546DDE70023F5E700BF10
:100A0C0067E6096A85AE67BB72F36E3C3AF54FA593
:100A1C007F520E518C68059BABD9831F289BDC0839
:100A2C00C4F1770404F03F0480238DF8483047224A
:100A3C0000210DF1490003F05FFD289E04F5887339
:100A4C006B4403F8C06C320A04F20F136B4403F8C6
:100A5C00C02C320C04F587736B4403F8C02C320E97
:100A6C0004F20D136B4403F8C02C299B04F5867219
:100A7C006A4402F8C03C190A04F20B126A4402F8E8
:100A8C00C01C190C04F585726A4402F8C01C1B0EBC
:100A9C0004F209120DEB020505F8C03C093406EB13
:100AAC00C40328939E4202D9299B01332993C6F390
:100ABC00C5060DF1480A0AE02A46514632AB981990
:100ACC0003F00CFD2E44AA44641B402E20D00CB322
:100ADC00C6F14005A542EFD92546EDE732A800EB5B
:100AEC00830102AA02EB8302CD7802AE06F82350F2
:100AFC008D7855704978917010F82310D1700133AE
:100B0C000F2BEBDD02A928A8FFF770FD4E46DEE7A0
:100B1C000023F5E79DF8AB308DF898309DF8AA309E
:100B2C008DF899309DF8A9308DF89A309DF8A83041
:100B3C008DF89B309DF8AF308DF89C309DF8AE3021
:100B4C008DF89D300622019926A803F0B7FC38B128
:100B5C000223009A82F83430002043B0BDE8F08FB5
:100B6C0098F8165100220023CDE9242308F217141B
:100B7C00D8F817012490B8F81B31ADF894300FB1A8
:100B8C00002307E00323009A82F834300020E4E7C6
:100B9C0001339BB23988994215D998F8070003EBB9
:100BAC00C3023A44D2789042F2D198F8080003EB91
:100BBC00C3023A4412799042EAD103EBC3063E4495
:100BCC00B278AA42E4D1994227D10F2919D8249A94
:100BDC002D4E9619259840F1000C009A9068D26819
:100BEC0086427CEB020212D398F8070003EBC30297
:100BFC003A44D07098F80800107195700131398022
:100C0C0020E00423009A82F834300020A5E7052365
:100C1C00009A82F8343000209FE700200021CDE9B3
:100C2C00120103EBC3023A44D2F805001290B2F859
:100C3C000920ADF84C20249A9042259A139971EB17
:100C4C00020218D203EBC3033B44D8F81721C3F8B4
:100C5C000520A288A3F80920249A259B009CA06853
:100C6C00E1689042994101D2A260E3600120009BAF
:100C7C0083F8340071E70623009A82F834300020A0
:100C8C006BE7012069E700BF808D5B002DE9F04127
:100C9C0005460C461F46069E00230B70CB780F2B87
:100CAC0000F28180DFE813F01000100030004F00DC
:100CBC006D009D00B000C300D600F80019013F0183
:100CCC005C0196019601D201FD2A0FD0FE2A6AD151
:100CDC000223E3700023C3708270237B43F0010373
:100CEC0023734FF0FF33037043705CE00223E37017
:100CFC000023C3708270237B23F0010323734FF016
:100D0C00FF33037043704EE0C270002323710388DD
:100D1C00D9B24A4082EA0212D2B21B0A43EA022337
:100D2C001BB283EAC20383EA12130380237B13F002
:100D3C00010F05D00023037143710523E37032E0EA
:100D4C000323E3702FE0027132F0010307D0A37884
:100D5C000133A370002323700123E37023E0038885
:100D6C00D9B24A4082EA0212D2B21B0A43EA0223E7
:100D7C001BB283EAC20383EA121303800423E370D9
:100D8C0011E042710388D9B24A4082EA0212D2B20F
:100D9C001B0A43EA02231BB283EAC20383EA12133F
:100DAC0003800523E3702378012B00F084810FB1BD
:100DBC00EB78FB7066B1E378F37023793371637968
:100DCC000133737123893381A3787381237B33734C
:100DDC000023A3702378022B00F076812078BDE8E5
:100DEC00F08182710388D9B24A4082EA0212D2B2EF
:100DFC001B0A43EA02231BB283EAC20383EA1213DF
:100E0C0003800623E370CEE7C2710388D9B24A404F
:100E1C0082EA0212D2B21B0A43EA02231BB283EA11
:100E2C00C20383EA121303800723E370BBE7027249
:100E3C000388D9B24A4082EA0212D2B21B0A43EAB0
:100E4C0002231BB283EAC20383EA12130380082332
:100E5C00E370A8E7427200238372C3720388D9B28D
:100E6C004A4082EA0212D2B21B0A43EA02231BB2A4
:100E7C0083EAC20383EA12130380237B13F0010F6E
:100E8C0007D0C37813B10B23E3708CE70C23E3700A
:100E9C0089E70923E37086E7437A817A43EA0123E1
:100EAC00C17A43EA014343EA02214372C1F30723A7
:100EBC008372090CC1720388D9B24A4082EA0212C9
:100ECC00D2B21B0A43EA02231BB283EAC20383EAAF
:100EDC00121303800A23E37065E7437A817A43EAAD
:100EEC000123C17A43EA014343EA02414372C3F34B
:100EFC00072383720B0CC3720388D9B24A4082EA6F
:100F0C000212D2B21B0A43EA02231BB283EAC203C7
:100F1C0083EA12130380C37813B10B23E37042E707
:100F2C000C23E3703FE700F10C032179481C20717E
:100F3C005A542B88D9B24A4082EA0212D2B21B0A06
:100F4C0043EA02231BB283EAC20383EA12132B8007
:100F5C002279EB789A427FF426AF0C23E37022E7D8
:100F6C00437A817A43EA0123C17A43EA0143012B94
:100F7C002AD15B48FB212B885FFA83FC81EA0C01A8
:100F8C0081EA0111C9B21B0A43EA01231BB283EAAD
:100F9C00C10383EA11132B802B88DBB29A4216D043
:100FAC000E23E37085F8142100283FF4FCAE23795E
:100FBC0082799342BFF4F7AE05F10C00D21A0021EE
:100FCC00184403F099FAEEE600200146D3E70D230E
:100FDC00E370E7E70E2B04D093B20188B3EB112F2B
:100FEC0012D00223237085F815212B7913F0010FF1
:100FFC000DD00F23E3700D2363732378022B3FF482
:10100C00D2AE00232370CEE601232370EBE72369D5
:10101C0083B11A6B4AB16B7AA97A43EA0123E97A54
:10102C0043EA01412046904720B92378022B01D096
:10103C00032323700123E370002F3FF4B4AE40F27E
:10104C0023122946384603F049FAACE6637BC3F118
:10105C000D03034483F81621637B013BDBB26373FE
:10106C00002B7FF4A0AE024661692069FFF766FB96
:10107C00804660B923691B6B4BB16A7AA97A42EA44
:10108C000122E97A42EA01412046984710B9B8F1A9
:10109C00000F0DD0012323700123E370002F3FF4C8
:1010AC0082AE40F223122946384603F017FA7AE64C
:1010BC0003232370F0E7AB79637123890BB900220A
:1010CC0062810133238172E6002F3FF487AE95F8DD
:1010DC00143195F8152143EA02233B807EE600BFCC
:1010EC002C45000808B5437A827A43EA0223C27A77
:1010FC0043EA0243012B00D008BDC278084B002103
:10110C00196059609960D96019615961182A28BF12
:10111C00182200F10C01184603F0E0F9ECE700BFCF
:10112C009800002030B583B0334BD3F8403198424F
:10113C000ED0324BD3E90001FFF7BEF90246102363
:10114C000093032304213C2003F0E2F803B030BDEC
:10115C000446294991F8445101F2451001F51A71E0
:10116C00009103462A46FFF791FD831EDBB2012B4B
:10117C0021D900283CD194F84230DBB2202BD8D1B5
:10118C00002323631E4AA2620122A285E2856364C6
:10119C00222384F842302268D36843F48073D360EE
:1011AC002268536943F0010353612268D36843F00A
:1011BC002003D360BDE7104B93F86A22013283F809
:1011CC006A22002283F86822012283F86B22FD2D0B
:1011DC0001D00020CDE7022283F86B22002283F895
:1011EC0048214FF0FF3283F8452183F84621F0E780
:1011FC000448FFF777FFBEE75C0100209800002051
:10120C00A0020020A102002072B6FEE700B591B04A
:10121C002822002106A803F06FF900230193029302
:10122C00039304930593012206924FF480330793A2
:10123C000A9202220D920E934FF4E0130F9306A81C
:10124C0002F03EF980B90F23019302210291002391
:10125C0003934FF480620492059301A802F062FBA1
:10126C0020B911B05DF804FBFFF7CEFFFFF7CCFF00
:10127C002DE98048C9B000F06FFCFFF7C7FFFFF7FE
:10128C003BF9FFF75BF900F093FB00F0ABFB00219F
:10129C00BA4803F085F80121B94803F081F8002021
:1012AC0003F08AF8012003F087F802F0A9FF02F09E
:1012BC00AEFFBBE00022B9B1FE238DF81430182428
:1012CC008DF81540AF4B93F82E318DF81630012365
:1012DC008DF817308DF818308DF8193005202CE06A
:1012EC000022E8E70122E6E702B10121182401E01F
:1012FC00013CE4B2012C05D9A34B234413F8013C67
:10130C00002BF5D0FD238DF814308DF815408DF899
:10131C00161000238DF817309A4991F82E118DF87C
:10132C00181001218DF819108DF81A108DF81B105A
:10133C008DF81C308DF81D300920924991F82E3112
:10134C00013381F82E3185B229464FF6FF730DF12A
:10135C00150610E016F8011BDFB2794081EA011185
:10136C00C9B21B0A43EA01231BB283EAC10383EA15
:10137C0011139BB2614601F1FF3C1FFA8CFC002952
:10138C00E8D1A6B23146DFF800C210E01CF8011B10
:10139C00DFB2794081EA0111C9B21B0A83EA012349
:1013AC001BB283EAC10383EA11139BB2714601F1AC
:1013BC00FF3E1FFA8EFE0029E8D1D9B281F0FB0165
:1013CC0081EA0111C9B21B0A83EA01231BB283EA29
:1013DC00C10383EA11138DF80430C3F307238DF88E
:1013EC000530002A4FD1002701354FF0FF332A4634
:1013FC0005A96448006802F08DFC0228F5D04FF076
:10140C00FF33324660495F48006802F083FC0228D3
:10141C00F5D04FF0FF33022201A95A48006802F0C0
:10142C0079FC0228F5D0002F40F06A82564C00223D
:10143C00564BD4E90001FEF789FEC4E900010022F5
:10144C00524BD4E90201FEF781FEC4E902010022ED
:10145C004E4BD4E90401FEF779FEC4E90401494B73
:10146C0093F8343113F002017FF424AF454BD3F8D9
:10147C003831002B3FF434AF1B7813F0010F7FF49D
:10148C0031AF002217E73F4BD3F8381100F10109B7
:10149C00002900F033820F7817F00107A4D04B78A5
:1014AC008DF82030D1E90223CDE902230298CDF842
:1014BC002100BDF80C30ADF825308B68CA680133BB
:1014CC0042F100028B60CA6000232E932F93304BA5
:1014DC003093304B3193304B3293304B3393304B02
:1014EC003493304B3593304B369303F17453A3F54F
:1014FC002303A3F69243379301F110074FF4807343
:10150C002E934FF0000B4FF020080DE05246394659
:10151C0038AB03EB0B0002F0E1FFD3445744A8EBCC
:10152C000A08BBF1400F26D0B8F1000F3ED0CBF12A
:10153C00400AC245EAD9C246E8E738A800EB830165
:10154C000DF1700C0CEB830291F803E00CF823E026
:10155C0091F802C082F801C04978917010F82310FC
:10156C00D17001330F2BE8DD1CA92EA8FFF73EF834
:10157C004FF0000BD8E70023F4E700BFC8000020B1
:10158C00100100205C010020B00000200000F03FA2
:10159C0067E6096A85AE67BB72F36E3C3AF54FA5F8
:1015AC007F520E518C68059BABD9831F4F462E9BE7
:1015BC0003EBC9002E90834202D92F9A01322F924D
:1015CC00C3F3C50B0DF114090DE05246494638AB77
:1015DC0003EB0B0002F082FFD344D144A7EB0A07C4
:1015EC00BBF1400F23D027B3CBF1400ABA45ECD95D
:1015FC00BA46EAE738A800EB83010DF1700C0CEB4E
:10160C00830291F803E00CF823E091F802C082F811
:10161C0001C04978917010F82310D17001330F2B51
:10162C00E8DD1CA92EA8FEF7E1FFC346DBE700238B
:10163C00F5E7A0462E9B03EBC4042E94A34202D9DB
:10164C002F9A01322F92C3F3C50AB34C0DE04A46D0
:10165C00214638AB03EB0A0002F040FFCA444C446D
:10166C00A8EB0908BAF1400F08D0B8F1000F24D04C
:10167C00CAF14009C145EAD9C146E8E700230F2B5E
:10168C0015DC38A800EB83010DF1700C0CEB830218
:10169C0091F803E00CF823E091F802C082F801C045
:1016AC004978917010F82310D1700133E7E71CA929
:1016BC002EA8FEF79BFFBA46D7E72E9B03F110022C
:1016CC002E92934202D92F9A01322F92C3F3C50A5C
:1016DC0001AC02270DE04A46214638AB03EB0A0069
:1016EC0002F0FCFECA444C44A7EB0907BAF1400FC8
:1016FC0023D027B3CAF14009B945ECD9B946EAE77A
:10170C0038A800EB83010DF1700C0CEB830291F8FF
:10171C0003E00CF823E091F802C082F801C049788C
:10172C00917010F82310D17001330F2BE8DD1CA938
:10173C002EA8FEF75BFFC246DBE70023F5E72E9BE6
:10174C0003F138022E92934202D92F9A01322F9232
:10175C00C3F3C50A0DF1200807240DE04A464146A3
:10176C0038AB03EB0A0002F0B9FECA44C844A4EB40
:10177C000904BAF1400F23D024B3CAF14009A145A2
:10178C00ECD9A146EAE738A800EB83010DF1700C07
:10179C000CEB830291F803E00CF823E091F802C003
:1017AC0082F801C04978917010F82310D170013380
:1017BC000F2BE8DD1CA92EA8FEF718FFBA46DBE7B5
:1017CC000023F5E72E9BDF08C7F1770707F03F07EB
:1017DC0080238DF87030472200210DF1710002F04A
:1017EC008BFE2E9B07F594726A4402F8B03C190AE2
:1017FC0007F227126A4402F8B01C190C07F5937211
:10180C006A4402F8B01C190E07F225126A4402F859
:10181C00B01C2F9A07F59271694401F8B02C100A8C
:10182C0007F22311694401F8B00C100C07F5917103
:10183C00694401F8B00C120E07F221110DEB0108EE
:10184C0008F8B02C093703EBC7022E92934202D949
:10185C002F9A01322F92C3F3C50A0DF170080DE0D7
:10186C004A46414638AB03EB0A0002F037FECA4445
:10187C00C844A7EB0907BAF1400F06D027B3CAF149
:10188C004009B945ECD9B946EAE700230F2B15DC22
:10189C0038A800EB83010DF1300C0CEB830291F8AE
:1018AC0003E00CF823E091F802C082F801C04978FB
:1018BC00917010F82310D1700133E7E70CA92EA812
:1018CC00FEF794FEA246D9E79DF8C3308DF8273079
:1018DC009DF8C2308DF828309DF8C1308DF8293034
:1018EC009DF8C0308DF82A309DF8C7308DF82B301C
:1018FC009DF8C6308DF82C300D2775E5002773E563
:10190C00BFB24FF0FF333A4608A90448006802F012
:10191C0001FA0228F5D089E5B00000205C01002016
:10192C0082B00E4B9A6942F001029A619A6902F0F8
:10193C0001020092009ADA6942F08052DA61DB69A6
:10194C0003F080530193019B054A536823F0E06335
:10195C0043F00073536002B0704700BF00100240A8
:10196C0000000140FEE7FEE7FEE7FEE7FEE77047FA
:10197C007047704708B500F001F908BD08B502487A
:10198C0001F0B8FC08BD00BF4400002008B50248B7
:10199C0002F0AAFA08BD00BFC800002008B5024832
:1019AC0002F0A2FA08BD00BF100100207047000031
:1019BC0008B50A480A4B03604FF4E1334360002337
:1019CC008360C36003610C2242618361C36102F0D6
:1019DC0071F900B908BDFFF717FCFBE7C800002040
:1019EC000038014008B50A480A4B03604FF4E13354
:1019FC00436000238360C36003610C2242618361F6
:101A0C00C36102F057F900B908BDFFF7FDFBFBE716
:101A1C00100100200044004030B589B0002304932D
:101A2C000593069307930368344A934204D0344ACF
:101A3C00934233D009B030BD324B9A6942F48042A4
:101A4C009A619A6902F480420092009A9A6942F073
:101A5C0004029A619B6903F004030193019B4FF408
:101A6C00007304930223059303230793264D04A9C3
:101A7C00284600F089F94FF4806304930024059400
:101A8C00069404A9284600F07FF922462146252019
:101A9C0000F0ACF8252000F0E1F8CBE7194BDA693F
:101AAC0042F40032DA61DA6902F400320292029AEC
:101ABC009A6942F004029A619B6903F00403039350
:101ACC00039B0423049302230593032307930E4DD6
:101ADC0004A9284600F058F908230493002405941F
:101AEC00069404A9284600F04FF9224621462620E8
:101AFC0000F07CF8262000F0B1F89BE7003801409C
:101B0C0000440040001002400008014010B504469B
:101B1C000E4B18784FF47A73B3FBF0F30C4A106841
:101B2C00B0FBF3F000F0A8F868B90F2C01D9012034
:101B3C000AE0002221464FF0FF3000F057F8054B29
:101B4C001C60002000E0012010BD00BF040000203C
:101B5C00000000200800002008B5074A136843F075
:101B6C0010031360032000F02FF80F20FFF7CEFFB7
:101B7C00FFF7D6FE002008BD00200240034A116882
:101B8C00034B1B780B441360704700BF58010020B7
:101B9C0004000020014B1868704700BF580100205A
:101BAC0038B50446FFF7F6FF0546B4F1FF3F02D007
:101BBC00044B1B781C44FFF7EDFF401BA042FAD3EB
:101BCC0038BD00BF04000020074AD36823F4E0634B
:101BDC001B041B0C000200F4E060034343F0BF63E2
:101BEC0043F40033D360704700ED00E000B5194BAF
:101BFC00DB68C3F30223C3F1070CBCF1040F28BF4D
:101C0C004FF0040C03F1040EBEF1060F18D9033B80
:101C1C004FF0FF3E0EFA0CFC21EA0C0199400EFA33
:101C2C0003F322EA0303194300280BDB0901C9B2B1
:101C3C0000F1604000F5614080F800135DF804FB92
:101C4C000023E5E700F00F000901C9B2024B19545B
:101C5C00F4E700BF00ED00E014ED00E0002807DB26
:101C6C0000F01F02400901239340024A42F8203041
:101C7C00704700BF00E100E00138B0F1807F0BD26B
:101C8C004FF0E0235861054AF02182F82310002020
:101C9C00986107221A6170470120704700ED00E03F
:101CAC0090F82130DBB2022B06D00423836300238F
:101CBC0080F82030012070470268136823F00E036F
:101CCC0013600268136823F001031360036CC16B8B
:101CDC00012202FA03F34B6080F82120002380F8E4
:101CEC00203018467047000008B590F82130DBB260
:101CFC00022B03D004238363012008BD0268136800
:101D0C0023F00E0313600268136823F001031360C1
:101D1C000368194A934214D0143293421FD01432E0
:101D2C0093421ED0143293421ED0143293421ED0D2
:101D3C001432934202D04FF0807203E04FF48012C1
:101D4C0000E001220D4B5A60012380F82130002362
:101D5C0080F82030436B6BB198470020CDE7102200
:101D6C00F0E74FF48072EDE74FF48052EAE74FF45E
:101D7C008032E7E70020C0E7080002400000024084
:101D8C0090F821007047000070B582B00024A44682
:101D9C00A6E0804DAA4210D007D97F4DAA420CD0A4
:101DAC0005F58035AA4208D013E0A5F58015AA42A6
:101DBC0003D005F57025AA4207D18A68002A58D0AD
:101DCC00012A51D04361082403E0A5F58015AA42ED
:101DDC00F3D0BEF1FF0F4ED80646BEF1FF0F4CD824
:101DEC004FEA8C0233680F25954023EA050304FA69
:101DFC0002F2134333604B6813F0805F6ED0674B75
:101E0C009A6942F001029A619B6903F00103019304
:101E1C00019B4FEA9C02951C614B53F825600CF01A
:101E2C0003039D000F23AB4026EA03065D4B98424B
:101E3C0029D003F58063984200F08E8003F580630F
:101E4C00984200F08B8003F58063984219D00423EC
:101E5C001AE0CC68BDE7CC680434BAE7CC68083427
:101E6C00B7E7CC680C34B4E703610824B1E700246D
:101E7C00AFE70424ADE7061DAFE7ACF10802920012
:101E8C00B0E7032300E00023AB4033430232444D60
:101E9C0045F822304B6813F4801F61D0424A936896
:101EAC0043EA0E0393604B6813F4001F5ED03E4A66
:101EBC00D36843EA0E03D3604B6813F4003F5BD046
:101ECC00394A536843EA0E0353604B6813F4803F5E
:101EDC0058D0354A136843EA0E0313600CF1010C19
:101EEC000A6832FA0CF353D0012303FA0CF302EA1A
:101EFC00030E33EA0202F1D14A68122A3FF649AFC7
:101F0C00122A3FF666AF01A555F822F0C71D00084E
:101F1C005F1E0008691E00087B1E0008DF1D0008FC
:101F2C00DF1D0008DF1D0008DF1D0008DF1D000895
:101F3C00DF1D0008DF1D0008DF1D0008DF1D000885
:101F4C00DF1D0008DF1D0008DF1D0008DF1D000875
:101F5C00631E00086F1E0008012395E7022393E718
:101F6C00114A936823EA0E0393609CE70E4AD368E8
:101F7C0023EA0E03D3609FE70B4A536823EA0E0350
:101F8C005360A2E7084A136823EA0E031360A5E71F
:101F9C0002B070BD00002210000031100010024091
:101FAC0000000140000801400004014003685A6928
:101FBC0012F0800F01D000221A61704790F83E3069
:101FCC00DBB2402B10D00369B3F5804F1BD0036DEF
:101FDC00002B39D1436CC3F3C813026803F006031A
:101FEC0043F0F00313617047036D2BB9436C026827
:101FFC0003F0FE0313617047436C026843F0010366
:10200C00DBB21361704790F83D30DBB2212B0FD05F
:10201C00436C026843F00103DBB21361436B6BB199
:10202C009B6A5BB10268536843F40063536070476A
:10203C00436C026803F0FE031361EFE7836B33B16B
:10204C009B6A002BEED102E0036D012B00D0704790
:10205C00436CC3F3C813026803F0060343F0F103A7
:10206C001361F4E7436C0268DBB21361436B3BB161
:10207C009B6A2BB10268536843F40063536070474A
:10208C00836B002BFBD09B6A002BF3D1F7E710B4CA
:10209C008DB090F83E30DAB2C16A046B90F83D30E6
:1020AC00DBB2222B0AD000230B9303685A690B92E4
:1020BC009B690B930B9B0DB010BC7047036D0BB958
:1020CC00402A17D0036D1BB90369B3F5404F19D0E3
:1020DC00438D9BB2002B25D1039303685A6903925D
:1020EC009A690392039A1A6842F400721A600023E8
:1020FC000365E0E7019303685A6901929B690193B8
:10210C00019BD8E70023029303685A6902929A69EB
:10211C000292029A1A6842F480721A60036D0133BB
:10212C000365C8E7438D9BB2012B25D0438D9BB231
:10213C00022B7BD00268136843F48063136003683E
:10214C005A6812F4006F0ED011F5803F07D00129A8
:10215C0005D0082903D0102901D0202903D15A68B1
:10216C0042F480525A6000230A9303685A690A9217
:10217C009B690A930A9BBAE711F5803F11D0082995
:10218C0034D0202932D0122C2ED0042940D0022950
:10219C003ED010293CD00268136823F4806313608E
:1021AC003BE00268136823F48063136003685A6889
:1021BC0012F4006F0CD01A6822F480621A600023AB
:1021CC00049303685A6904929B690493049B8EE7F9
:1021DC00002205925A6905929A690592059A1A6825
:1021EC0042F400721A6082E70129CED002681368AB
:1021FC0023F4806313600023079303685A690792E2
:10220C009A690792079A1A6842F400721A606EE78C
:10221C000268136843F48063136000230693036819
:10222C005A6906929B690693069B60E7042915D0B0
:10223C00022913D0102911D00268136843F40063EB
:10224C0013600023089303685A6908929A690892EC
:10225C00089A1A6822F480621A600CE0026813680B
:10226C0043F4806313600023099303685A6909924D
:10227C009B690993099B03685A6812F4006F3FF439
:10228C0036AF11F5803F08D0012906D0082904D0BB
:10229C00102902D020297FF42AAF5A6842F48052C8
:1022AC005A6024E7438D9BB25BB1426A0368127893
:1022BC001A61436A01334362438D9BB2013B9BB26B
:1022CC0043857047438D9BB25BB103681A69436ABF
:1022DC001A70436A01334362438D9BB2013B9BB23C
:1022EC004385704782B0002301930E4B1B68DB08BB
:1022FC000D4AA2FB03231B0A03EB83030193019BEF
:10230C00013B0193019B33B103681B6813F4007FFD
:10231C00F5D1002004E0036C43F02003036401209A
:10232C0002B070470000002089B5F81403685A69A0
:10233C0012F4806F01D1002070476FF480625A61F3
:10234C0000230363202280F83D2080F83E30026C8D
:10235C0042F00402026480F83C3001207047C36AEA
:10236C00B3F52A0F04D0C36AB3F12A4F03D07047D8
:10237C000123C36270470823C362F8E72DE9F041DB
:10238C0006460C46174698463BE0FFF703FC069BB7
:10239C00C01A404502D8B8F1000F32D1012D18D027
:1023AC0033689B6924EA03039BB2B3FA83F35B099A
:1023BC009F4226D100233363202286F83D2086F8E5
:1023CC003E30326C42F02002326486F83C30012000
:1023DC0027E033685B6924EA03039BB2B3FA83F307
:1023EC005B09E5E733685B6924EA030C1FFA8CFC94
:1023FC00BCFA8CFC4FEA5C1C674511D1B8F1FF3F6D
:10240C00C3D1C4F30745012DECD033689B6924EA92
:10241C00030C1FFA8CFCBCFA8CFC4FEA5C1CEBE73F
:10242C000020BDE8F0812DE9F84305460E469046A4
:10243C00994653E01A6842F400721A602B686FF4E4
:10244C0080625A6100232B63202285F83D2085F899
:10245C003E302A6C42F004022A6485F83C3001209C
:10246C004AE0FFF797FBA0EB0900404502D8B8F112
:10247C00000F33D1012F17D02B689B6926EA030379
:10248C009BB2003B18BF012343B300232B632022D4
:10249C0085F83D2085F83E302A6C42F020022A64F3
:1024AC0085F83C30012027E02B685B6926EA0303A2
:1024BC009BB2003B18BF0123E6E72B689C6926EA18
:1024CC000404A4B2003C18BF0124A4B12B685A69BF
:1024DC0012F4806FAED1B8F1FF3FC2D1C6F30747FB
:1024EC00012FEAD12B685C6926EA0404A4B2003CF3
:1024FC0018BF0124E9E70020BDE8F88370B5044655
:10250C000D46164623685B6913F0800F21D12046D7
:10251C00FFF70CFFF8B9B5F1FF3FF3D0FFF73AFB2B
:10252C00801BA84201D8002DECD123685B6913F005
:10253C00800FE7D100232363202284F83D2084F808
:10254C003E30226C42F02002226484F83C300120A0
:10255C0000E0002070BD0120FCE700002DE9F043F5
:10256C0085B004460D4691461F46DDF830800D9E21
:10257C000368196841F48071196000964346002283
:10258C004FF00111FFF7FAFE60B9236805F0FE0564
:10259C001D613346424626492046FFF744FF68B189
:1025AC00012008E023681B6813F4807F02D04FF4ED
:1025BC0000732364032005B0BDE8F083002303936C
:1025CC0023685A6903929B690393039B32464146E5
:1025DC002046FFF793FF30B9012F0FD123685FFA24
:1025EC0089F61E61E7E7236C042B01D00120E2E79A
:1025FC002268136843F400731360F7E723684FEA0B
:10260C0019221A61324641462046FFF777FF20B95E
:10261C0023685FFA89F61E61CDE7236C042B01D089
:10262C000120C8E72268136843F400731360F7E7CE
:10263C000200010070B504460D46164623685B691E
:10264C0013F0040F21D12046FFF770FEF8B9B5F155
:10265C00FF3FF3D0FFF79EFA801BA84201D8002D54
:10266C00ECD123685B6913F0040FE7D100232363DB
:10267C00202284F83D2084F83E30226C42F0200267
:10268C00226484F83C30012000E0002070BD012061
:10269C00FCE70000002800F0CC8070B5044690F8F0
:1026AC003D30002B77D0242384F83D30226813680A
:1026BC0023F0010313602268136843F40043136092
:1026CC002268136823F40043136001F0E7F9626891
:1026DC005A4B9A4264D85A4B98428CBF0023012320
:1026EC00002B40F0A8805749A1FB00318B0C2568CA
:1026FC006A6822F03F0242EA91426A6021680A6AE3
:10270C0022F03F0266684D4DAE424FD80133134361
:10271C000B622168CA6922F44F4222F0FF026668FC
:10272C00464B9E424CD8431E7600B3FBF6F3013366
:10273C0040F6FC70034278D0C3F30B031343CB6118
:10274C0021680B6823F0C003E269206A024313433B
:10275C000B6021688B6823F4034323F0FF03226989
:10276C00E068024313438B602168CB6823F0FF03BE
:10277C006269A06902431343CB602268136843F07B
:10278C000103136000202064202384F83D30206373
:10279C0084F83E0070BD80F83C30FDF7EDFE82E71A
:1027AC00294B98428CBF0023012399E74FF496756F
:1027BC0005FB03F3254DA5FB03539B090133A6E74A
:1027CC00A368BBB9451E06EB460CB5FBFCF5013501
:1027DC00C5F30B05B5FA85F56D0945BBC3B90138D1
:1027EC0006EB4603B0FBF3F30133C3F30B0343F4E3
:1027FC000043A3E7451E06EB860C0CEB8C0CB5FBDB
:10280C00FCF50135C5F30B05B5FA85F56D09E4E763
:10281C00013806EB860303EB8303B0FBF3F30133C0
:10282C00C3F30B0343F4404388E7042386E70123F7
:10283C0084E7012070470120ACE700BFA0860100AF
:10284C007F841E0083DE1B43FF083D00D34D6210C6
:10285C002DE9F04383B004460F46904699460C9EF2
:10286C00FFF798F9054694F83D00C0B2202803D034
:10287C00022003B0BDE8F0830095192301224B49D7
:10288C002046FFF77BFD002840F0898094F83C300F
:10289C00012B00F08680012384F83C3023681A68F1
:1028AC0012F0010F03D11A6842F001021A6022687B
:1028BC00136823F400631360212384F83D30402314
:1028CC0084F83E30002323640A9B6362BDF82C30ED
:1028DC006385638D2385364BE362019500964B46E9
:1028EC00424639462046FFF739FE00285BD1238D3E
:1028FC00002B35D02A4631462046FFF7FFFD20BB82
:10290C00626A236812781A61626A531C6362218DB1
:10291C00013989B22185638D9BB2013B9BB26385E2
:10292C002368586910F0040FE1D00029DFD05278E9
:10293C001A61636A01336362238D013B2385638DC6
:10294C009BB2013B9BB26385D1E7236C042B01D076
:10295C0001208EE72268136843F400731360F7E7D5
:10296C002A4631462046FFF765FE50B1236C042BF6
:10297C0001D001207DE72268136843F400731360D3
:10298C00F7E72268136843F400731360202384F87C
:10299C003D30002384F83E3084F83C3069E7022057
:1029AC0067E7022065E7012063E700BF0200100023
:1029BC000000FFFF70477047704708B590F83D3036
:1029CC00DAB2438D9BB283B1416A0368097819610D
:1029DC00436A01334362438D9BB2013B9BB24385F7
:1029EC00438D9BB20BB9292A00D008BD02685368ED
:1029FC0023F48063536021230363282380F83D3044
:102A0C00FFF7DAFFF1E7704708B590F83D30DAB21E
:102A1C00438D9BB283B103681969436A1970436A89
:102A2C0001334362438D9BB2013B9BB24385438D83
:102A3C009BB20BB92A2A00D008BD0268536823F454
:102A4C008063536022230363282380F83D30FFF713
:102A5C00DAFFF1E7704700B583B090F83D3003F032
:102A6C002803282B0CD00023019302685169019193
:102A7C0092690192019A80F83C3003B05DF804FB36
:102A8C000268536823F48063536011F0040F0BD079
:102A9C00002311F0800F09D18289002180F83C10AD
:102AAC001946FFF7D7FFE8E70123F2E7028BF4E7BB
:102ABC007047704708B5C26A90F83D30DBB2212BE5
:102ACC0000D008BD438D9BB263B1426A0368127893
:102ADC001A61436A01334362438D9BB2013B9BB243
:102AEC004385EEE7082A04D0202A02D012F5803F55
:102AFC0019D10268536823F4E063536002681368C9
:102B0C0043F40073136000230363202380F83D30EB
:102B1C0090F83E30DBB2402B15D0002380F83E30CD
:102B2C00FFF748FFCDE70268536823F4E063536076
:102B3C0011230363002380F83E30202380F83D30BE
:102B4C00FFF738FFBDE7002380F83E30FFF7B1FFF9
:102B5C00B7E708B590F83D30026D9AB9C36C012BFC
:102B6C0008D0836CC3F3072302681361036D013330
:102B7C00036508BD836C0268DBB21361036D02331D
:102B8C000365F6E7DBB2026D012A23D0026D022A3F
:102B9C003ED1222B26D0428D92B20AB1212B2AD0C3
:102BAC00428D92B2002AE4D1212BE2D10268536803
:102BBC0023F4E06353600268136843F400731360FA
:102BCC0000230363202280F83D2080F83E30FFF77D
:102BDC0070FFCEE7836C0268DBB21361036D0133C7
:102BEC000365C6E70268136843F480731360036DD2
:102BFC0001330365BDE7426A036812781A61436AC0
:102C0C0001334362438D9BB2013B9BB24385B0E7DA
:102C1C00FFF7CCF9ADE710B590F83D30DBB290F88A
:102C2C003E20D2B2C46A018D09B9212B04D0212BCC
:102C3C003BD0402A37D010BD082C04D0202C02D019
:102C4C0014F5803F19D10268536823F4E063536094
:102C5C000268136843F4007313600023036320239A
:102C6C0080F83D3090F83E30DBB2402B15D000237D
:102C7C0080F83E30FFF79EFEDDE70268536823F4D0
:102C8C00E063536011230363002380F83E3020235C
:102C9C0080F83D30FFF78EFECDE7002380F83E3004
:102CAC00FFF707FFC7E7222BC5D1438D9BB22BB98A
:102CBC000268536823F480635360BCE790F83E309D
:102CCC00DBB2402B0CD0426A036812781A61436A5B
:102CDC0001334362438D9BB2013B9BB24385AAE710
:102CEC00FFF737FFA7E7704708B5C26A438D9BB261
:102CFC00042B14D0438D9BB2032B22D0438D9BB25B
:102D0C00022B39D003681A69436A1A70436A01337B
:102D1C004362438D9BB2013B9BB2438510E002683A
:102D2C00536823F48063536003681A69436A1A700A
:102D3C00436A01334362438D9BB2013B9BB2438593
:102D4C0008BD01684B6823F480634B60042A06D0ED
:102D5C00022A04D00268136823F4806313600368AA
:102D6C001A69436A1A70436A01334362438D9BB2FA
:102D7C00013B9BB24385E3E7012A0BD0102A09D013
:102D8C00042A38D0022A36D00268136843F4007340
:102D9C00136004E00268136823F480631360036813
:102DAC001A69436A1A70426A531C4362438D9BB280
:102DBC00013B9BB2438503681B695370436A013323
:102DCC004362438D9BB2013B9BB2438502685368BF
:102DDC0023F440735360202380F83D3090F83E304C
:102DEC00DBB2402B0DD0002380F83E30122303635E
:102DFC00FFF7E1FDA4E70268136843F480631360F6
:102E0C00CDE7002380F83E300363FFF76CFF97E7B4
:102E1C00704790F83D30DBB2222B00D0704710B5D4
:102E2C000446438D9BB2032B15D903681A69436A78
:102E3C001A70436A01334362438D9BB2013B9BB2D0
:102E4C004385438D9BB2032B0FD10268536823F447
:102E5C008063536009E0C26A022A01D0012B05D9B4
:102E6C002268536823F48063536010BDFFF73AFA6D
:102E7C0000282ED12268136823F480631360226823
:102E8C00536823F4E063536023681A69636A1A7009
:102E9C00636A01336362638D9BB2013B9BB26385B2
:102EAC00202384F83D3094F83E30DBB2402B08D020
:102EBC00002384F83E30122323632046FFF77BFD6A
:102ECC00D3E7002384F83E3023632046FFF70BFF43
:102EDC00CBE72268536823F4E063536023681A69D4
:102EEC00636A1A70636A01336362638D9BB2013B40
:102EFC009BB26385202384F83D30002384F83E3058
:102F0C002046FFF785FFB0E77047000000B583B09F
:102F1C0000230193406A90F83D20D2B2324B1B68DB
:102F2C00DB083249A1FB03131B0A03EB8303C3EB3E
:102F3C00C3030193019B43B1019B013B01930368C4
:102F4C001B6813F4007FF5D103E0036C43F02003FE
:102F5C000364436B0BB100219962836B0BB10021AD
:102F6C00996201680B6823F480630B60002343852E
:102F7C00436B0BB100215963836B0BB10021596377
:102F8C0001680B6823F001030B6090F83D30DBB255
:102F9C00602B0ED002F02802282A14D0202380F8AF
:102FAC003D30002380F83E30FFF732FF03B05DF870
:102FBC0004FB202380F83D30002380F83E3003646E
:102FCC00FFF7A2FFF2E70268136843F001031360F6
:102FDC000268136843F4806313600023036328239F
:102FEC0080F83D30E0E700BF0000002089B5F81400
:102FFC0010B5044690F83D30DBB290F83E20D2B2CA
:10300C00102A36D0402A34D003F02802282A38D08F
:10301C002268526812F4006F07D1602B05D0202370
:10302C0084F83D30002384F83E300023236323686A
:10303C005A6812F4006F48D05A6822F400625A6041
:10304C00626B92F82130DBB2012B20D0444B5363DE
:10305C00606BFEF749FE002849D02268136823F004
:10306C0001031360202384F83D30606B436B984759
:10307C003DE0222BC8D121680A6822F400620A6064
:10308C00C2E700232363282384F83D30CFE7A36BEA
:10309C00334A5A63A06BFEF727FE40B323685A6984
:1030AC0012F0400F05D01A69636A1A70636A013313
:1030BC0063622268136823F001031360202384F8F1
:1030CC003D30A06B436B984711E094F83D20D2B291
:1030DC00602A1FD05A6912F0400F05D01A69636A32
:1030EC001A70636A013363622046FFF791FE236C0A
:1030FC0013F00F0F04D02268536823F4E06353607D
:10310C0094F83D30DBB2226C12F0040F01D0282B66
:10311C0018D010BD202284F83D20002222645A6968
:10312C0012F0400F05D01A69636A1A70636A013392
:10313C0063622268136823F0010313602046FFF7D3
:10314C00E3FED4E7074BE36200232363202284F8D9
:10315C003D2084F83E302046FFF7AAFCD9E700BF9B
:10316C00192F00080000FFFF30B583B0044690F81B
:10317C003D50EDB20268536823F4E06353600023C2
:10318C00019303685A6901921A6842F001021A60AD
:10319C00019B0268136823F48063136003685A6808
:1031AC0012F4006F38D0222D21D02A2D1FD0426B63
:1031BC001268526892B24285428D92B21AB1026C78
:1031CC0042F0040202645A6822F400625A60606B96
:1031DC00FEF7D6FD01281FD0636B444A5A63606B1F
:1031EC00FEF782FDC0B1606B436B984714E0A26B95
:1031FC001268526892B26285628D92B21AB1226CD8
:10320C0042F0040222645A6822F400625A60A06BF5
:10321C00FEF7B6FD012842D1638D9BB233B3236810
:10322C005A6912F0040F0AD01A69636A1A70636A39
:10323C0001336362638D9BB2013B9BB26385236850
:10324C005A6912F0400F0AD01A69636A1A70636ADD
:10325C0001336362638D9BB2013B9BB26385638DCB
:10326C009BB21BB1236C43F004032364236C13BB8C
:10327C002A2D25D094F83D30DBB2282B29D0236B96
:10328C00222B01D0222D19D100232363202284F874
:10329C003D2084F83E302046FFF7B5FB0EE0A36BD3
:1032AC00124A5A63A06BFEF71FFD0028B4D0A06B26
:1032BC00436B9847B0E72046FFF79AFE03B030BD4A
:1032CC0000232363282384F83D302046FFF79BFB23
:1032DC00D0E7074BE36200232363202284F83D20D0
:1032EC0084F83E302046FFF7E3FBE7E7192F000890
:1032FC000000FFFFF8B5044602685568C66A90F8EE
:10330C003E30DBB290F83D10C8B2102B13D0402BDE
:10331C0011D0236C002B7AD05369002113F0020FCB
:10332C0078D015F4007F75D0236C03B191692046D9
:10333C00FFF791FBF8BDD2F818C0516911F00107E5
:10334C0005D1B6F52A0FF5D0B6F12A4FF2D017B148
:10335C0015F4007F29D111F0080F02D015F4007F6D
:10336C002AD111F0020F02D015F4007F28D11CF0E5
:10337C00040F31D0526812F4006FDBD111F0800FC2
:10338C0005D015F4806F02D011F0040F1CD011F091
:10339C00040FCFD015F4007FCCD0212818D0402BAF
:1033AC00C8D12046FFF7D5FBC4E72046FEF7D7FF70
:1033BC002046FEF703FEBDE72046FEF753FEB9E7B5
:1033CC002046FEF764FEB5E72046FFF724FCB1E784
:1033DC002046FFF76FFBADE7536813F4006FA9D1DC
:1033EC0011F0400F05D015F4806F02D011F0040FCE
:1033FC0009D011F0040F9DD015F4007F9AD020460F
:10340C00FFF772FC96E72046FFF703FD92E7916900
:10341C00536983E713F0100F02D015F4007F18D115
:10342C0021281AD0292818D013F0400F05D015F4F4
:10343C00806F02D013F0040F28D013F0040F3FF468
:10344C0079AF15F4007F3FF475AF2046FEF73AFFD5
:10345C0070E72046FFF788FE6CE713F0800F05D06D
:10346C0015F4806F02D013F0040F0BD013F0040F7F
:10347C003FF460AF15F4007F3FF45CAF2046FEF7DD
:10348C0011FF57E72046FFF798FA53E72046FFF75E
:10349C00BBFA4FE782B0084B1B68084AA2FB032318
:1034AC005B0A00FB03F3019300BF019B5A1E0192C0
:1034BC00002BF9D102B0704700000020D34D6210F0
:1034CC00002800F0F18170B582B00446036813F057
:1034DC00010F2CD0994B5B6803F00C03042B1DD00F
:1034EC00964B5B6803F00C03082B12D06368B3F5A2
:1034FC00803F41D0002B55D103F1804303F50433B9
:10350C001A6822F480321A601A6822F480221A6037
:10351C0037E08A4B5B6813F4803FE7D0874B1B681E
:10352C0013F4003F03D06368002B00F0BF812368C5
:10353C0013F0020F75D0814B5B6813F00C0F5FD04A
:10354C007E4B5B6803F00C03082B54D02369002BD3
:10355C0000F08A807A4B01221A60FEF71BFB0546AD
:10356C00764B1B6813F0020F75D1FEF713FB401B53
:10357C000228F5D903209EE1704A136843F4803386
:10358C001360636843B3FEF705FB05466B4B1B6882
:10359C0013F4003FCBD1FEF7FDFA401B6428F5D99C
:1035AC00032088E1B3F5A02F09D0644B1A6822F4EC
:1035BC0080321A601A6822F480221A60E1E703F163
:1035CC008043A3F53C331A6842F480221A601A68CF
:1035DC0042F480321A60D4E7FEF7DCFA0546574B0A
:1035EC001B6813F4003FA2D0FEF7D4FA401B6428EA
:1035FC00F5D903205FE1514B5B6813F4803FA5D1F3
:10360C004E4B1B6813F0020F03D02369012B40F0C3
:10361C004F814A4A136823F0F803616943EAC103F6
:10362C001360236813F0080F33D0A369002B5CD010
:10363C00434B0122C3F88024FEF7ACFA05463F4BFE
:10364C005B6A13F0020F21D1FEF7A4FA401B02288B
:10365C00F5D903202FE1394A136823F0F803616987
:10366C0043EAC1031360DCE7354B00221A60FEF716
:10367C0091FA0546314B1B6813F0020FD1D0FEF7BF
:10368C0089FA401B0228F5D9032014E10120FFF729
:10369C0001FF236813F0040F00F09680274BDB69C1
:1036AC0013F0805F34D1254BDA6942F08052DA6135
:1036BC00DB6903F080530193019B0125214B1B68AF
:1036CC0013F4807F26D0E368012B3DD0002B53D11F
:1036DC0003F1804303F504331A6A22F001021A62E3
:1036EC001A6A22F004021A6233E0154B0022C3F866
:1036FC008024FEF74FFA0546104B5B6A13F0020F5D
:10370C00C7D0FEF747FA401B0228F5D90320D2E0B8
:10371C000025D3E70B4A136843F480731360FEF75C
:10372C0039FA0646074B1B6813F4807FCBD1FEF7A2
:10373C0031FA801B6428F5D90320BCE0001002404C
:10374C0000004242007000405F4A136A43F00103DC
:10375C001362E36833B3FEF71DFA06465A4B1B6A35
:10376C0013F0020F2FD1FEF715FA801B41F28833AC
:10377C009842F3D903209EE0052B09D0524B1A6ACC
:10378C0022F001021A621A6A22F004021A62E0E7BD
:10379C004D4B1A6A42F004021A621A6A42F0010294
:1037AC001A62D6E7FEF7F6F90646474B1B6A13F08A
:1037BC00020F08D0FEF7EEF9801B41F288339842D5
:1037CC00F3D9032077E0E5B9E369002B72D03E4AC8
:1037DC00526802F00C02082A56D0022B17D03B4B31
:1037EC0000221A66FEF7D6F90446374B1B6813F015
:1037FC00007F47D0FEF7CEF9001B0228F5D9032035
:10380C0059E0314AD36923F08053D361DCE72F4B65
:10381C0000221A66FEF7BEF905462B4B1B6813F007
:10382C00007F06D0FEF7B6F9401B0228F5D903201D
:10383C0041E0236AB3F5803F1AD023494B6823F447
:10384C007413226A606A024313434B601F4B0122BC
:10385C001A66FEF79FF904461B4B1B6813F0007F9A
:10386C000ED1FEF797F9001B0228F5D9032022E0B0
:10387C00154A536823F40033A1680B435360DCE70B
:10388C00002018E0002016E0012B16D00E4B5B68D0
:10389C0003F48031226A914211D103F47013626AED
:1038AC0093420ED1002006E001207047012002E077
:1038BC00012000E0002002B070BD0120FBE70120D8
:1038CC00F9E70120F7E700BF001002400000424278
:1038DC000F4B5B6803F00C02082A01D00D487047AF
:1038EC00C3F383420C49885C13F4803F0BD0084B24
:1038FC005B68C3F34043094AD35C064A02FB00F001
:10390C00B0FBF3F07047064B03FB00F0704700BFB1
:10391C000010024000127A00504600086046000871
:10392C0000093D00002800F0A08070B50D4604464B
:10393C00524B1B6803F007038B420BD24F4A1368A0
:10394C0023F007030B431360136803F007038B4248
:10395C0040F08D80236813F0020F17D013F0040F82
:10396C0004D0474A536843F4E0635360236813F070
:10397C00080F04D0424A536843F460535360404AE2
:10398C00536823F0F003A1680B435360236813F0D2
:10399C00010F31D06368012B20D0022B25D0384A7F
:1039AC00126812F0020F64D035494A6822F0030203
:1039BC0013434B60FEF7EEF80646314B5B6803F0A1
:1039CC000C036268B3EB820F16D0FEF7E3F8801B92
:1039DC0041F288339842F0D9032045E0284A126816
:1039EC0012F4003FE0D101203EE0254A126812F0AB
:1039FC00007FD9D1012037E0204B1B6803F007036F
:103A0C00AB420AD91D4A136823F007032B431360FA
:103A1C00136803F00703AB422DD1236813F0040F96
:103A2C0006D0174A536823F4E063E1680B435360F4
:103A3C00236813F0080F07D0114A536823F460531E
:103A4C00216943EAC1035360FFF742FF0C4B5B68EB
:103A5C00C3F303130B4AD35CD8400B4B18600B4BCE
:103A6C001868FEF753F8002070BD01207047012044
:103A7C00FAE70120F8E70120F6E700BF002002403A
:103A8C00001002403846000800000020080000200A
:103A9C00014B1868704700BF0000002008B5FFF705
:103AAC00F7FF044B5B68C3F30223034AD35CD84093
:103ABC0008BD00BF001002404846000808B5FFF7DB
:103ACC00E7FF044B5B68C3F3C223034AD35CD840C3
:103ADC0008BD00BF0010024048460008026802F111
:103AEC000C0353E8003F23F490730C3242E800318E
:103AFC000029F3D1026802F1140353E8003F23F0CC
:103B0C000103143242E800310029F3D1036B012B7D
:103B1C0005D0202380F842300023036370470268ED
:103B2C0002F10C0353E8003F23F010030C3242E87F
:103B3C0000310029F3D1ECE790F84130DBB2212BB6
:103B4C0001D0022070478368B3F5805F17D0036AF9
:103B5C005A1C02621A7803685A60C38C9BB2013BF0
:103B6C009BB2C3844BB90268D36823F08003D36043
:103B7C000268D36843F04003D360002070470369A8
:103B8C00002BE4D1036A1B880268C3F3080353605B
:103B9C00036A02330362E0E710B504460268136956
:103BAC0023F44053C1680B431361836802691343C8
:103BBC0042691A430168CB6823F4B05323F00C0319
:103BCC001343CB600268536923F4407381690B4340
:103BDC0053610268134B9A4220D0FFF75FFF0246F5
:103BEC0002EB820202EB820263689B00B2FBF3F2EF
:103BFC000D48A0FB02314909642303FB11231B016F
:103C0C003233A0FB03235B0903F0F00202EB011239
:103C1C0003F00F03216813448B6010BDFFF74EFFB8
:103C2C000246DDE7003801401F85EB512DE9F843D2
:103C3C0005460F4616469946DDF820802C68246808
:103C4C0037EA04030CBF4FF0010C4FF0000CB445E5
:103C5C002DD1B8F1FF3FF1D0B8F1000F05D0FDF731
:103C6C0099FFA0EB09004045E8D92A6802F10C0342
:103C7C0053E8003F23F4D0730C3242E800310029A2
:103C8C00F3D12A6802F1140353E8003F23F0010337
:103C9C00143242E800310029F3D1202385F8413059
:103CAC0085F84230002385F84030032000E00020E6
:103CBC00BDE8F88360B310B5044690F8413013B3F7
:103CCC00242384F841302268D36823F40053D36052
:103CDC002046FFF761FF2268136923F490431361B8
:103CEC002268536923F02A0353612268D36843F492
:103CFC000053D36000206064202384F8413084F8A2
:103D0C004230606310BD80F84030FDF785FED7E788
:103D1C00012070472DE9F04182B01E4690F84130E9
:103D2C00DBB2202B4BD104460D46904600294AD0DD
:103D3C000AB9012044E000234364212380F8413078
:103D4C00FDF728FF0746A4F82480A4F82680A36872
:103D5C00B3F5805F02D04FF000080FE02369FBB190
:103D6C004FF000080AE038F8023B2268C3F308035E
:103D7C005360E28C92B2013A92B2E284E38C9BB231
:103D8C008BB100963B46002280212046FFF74EFF68
:103D9C00D8B9002DE7D015F8012B23685A60E8E755
:103DAC00A8460025EAE700963B4600224021204623
:103DBC00FFF73CFF58B9202384F8413000E0022083
:103DCC0002B0BDE8F0810120FAE70320F8E70320F8
:103DDC00F6E7704708B50168CA6822F04002CA606D
:103DEC00202280F84120FFF7F4FF002008BD704727
:103DFC0008B5406A0023C385C384FFF7F8FF08BDEC
:103E0C00704790F84230DBB2222B69D18368B3F54E
:103E1C00805F4FD0826AB3F5805F04D0002B56D1FF
:103E2C000369002B53D103685B681370836A0133F9
:103E3C008362C38D9BB2013B9BB2C385002B51D1D6
:103E4C0000B583B00268D36823F02003D360026806
:103E5C00D36823F48073D3600268536923F00103A1
:103E6C005361202380F8423000234363036B012B02
:103E7C0033D100230363026802F10C0353E8003FC3
:103E8C0023F010030C3242E800310029F3D103680F
:103E9C001A6812F0100F06D0002201921A680192D3
:103EAC005B680193019B818DFFF7AAFF002003B093
:103EBC005DF804FB0269002AACD1826A03685B6876
:103ECC00C3F308031380836A02338362B1E7036888
:103EDC005B6803F07F031370A8E7FDF723F9E5E7B0
:103EEC00022070470020704730B583B0044602684A
:103EFC001368D068516913F00F0505D113F0200F2A
:103F0C0002D010F0200F19D12DB111F0010119D1EF
:103F1C0010F4907F16D1216B01297DD013F0800F06
:103F2C0003D010F0800F40F0188113F0400F03D035
:103F3C0010F0400F40F0158103B030BD2046FFF764
:103F4C0060FFF9E713F0010F06D010F4807F03D067
:103F5C00626C42F00102626413F0040F04D019B1D8
:103F6C00626C42F00202626413F0020F04D019B1C9
:103F7C00626C42F00402626413F0080F07D010F078
:103F8C00200F00D119B1626C42F008026264626CBD
:103F9C00002AD1D013F0200F02D010F0200F29D11D
:103FAC0023685B6903F04003626C12F0080F00D1C8
:103FBC0063B32046FFF792FD23685B6913F0400F53
:103FCC0020D0226802F1140353E8003F23F0400391
:103FDC00143242E800310029F3D1E36B73B1634A28
:103FEC005A63E06BFDF780FE0028A5D0E06B436BB5
:103FFC009847A1E72046FFF704FFD1E72046FFF7DB
:10400C00F6FE99E72046FFF7F2FE95E72046FFF70C
:10401C00EEFE002363648FE713F0100F3FF47EAFC6
:10402C0010F0100F3FF47AAF002301931368019343
:10403C0053680193019B536913F0400F51D0E26B0D
:10404C0013685B689BB2002B3FF476AFA18D99424D
:10405C007FF672AFE3859369202B37D0226802F18B
:10406C000C0353E8003F23F480730C3242E8003118
:10407C000029F3D1226802F1140353E8003F23F026
:10408C000103143242E800310029F3D1226802F115
:10409C00140353E8003F23F04003143242E800318C
:1040AC000029F3D1202384F84230002323632268B3
:1040BC0002F10C0353E8003F23F010030C3242E8EA
:1040CC0000310029F3D1E06BFDF7EAFD02236363B5
:1040DC00A18DE38D9BB2C91A89B22046FFF790FEE1
:1040EC002AE7A18DE38D9BB2C91A89B2E38D9BB2ED
:1040FC00002B3FF421AF00293FF41EAF226802F1E0
:10410C000C0353E8003F23F490730C3242E8003068
:10411C000028F3D1226802F1140353E8003F23F086
:10412C000103143242E800300028F3D1202384F834
:10413C00423000232363226802F10C0353E8003F52
:10414C0023F010030C3242E800300028F3D1022394
:10415C0063632046FFF754FEEEE62046FFF7ECFCC7
:10416C00EAE62046FFF736FEE6E600BFFD3D000816
:10417C0010B584B000240EE04FF480730293012339
:10418C000193074A22440092002278210548FEF749
:10419C005FFB0134E4B21A2CEED904B010BD00BFA1
:1041AC000C0000204400002000B587B08DF81700EB
:1041BC004FF480730293012301930DF117020092C7
:1041CC00002278210248FEF743FB07B05DF804FBA0
:1041DC004400002000B587B08DF817004FF48073B1
:1041EC000293012301930DF11702009240227821D2
:1041FC000248FEF72DFB07B05DF804FB44000020DD
:10420C0008B5C820FDF7CCFCFFF7B2FF08BD38B5E8
:10421C00002509E00020FFF7DDFF0134E4B214F0C3
:10422C00800FF7D00135EDB2072D0CD8A5F1500059
:10423C00C0B2FFF7B9FF0020FFF7B6FF1020FFF761
:10424C00B3FF0024EBE738BD10B50446A1F15000D4
:10425C00C0B2FFF7A9FF200940F01000FFF7A4FF40
:10426C0004F00F00FFF7A0FF10BD0246012002E092
:10427C0002FB00F019464B1EDBB20029F8D1704747
:10428C00F8B507460E46203AD5B210F0800F07D18C
:10429C00102B09D031463846FFF7D6FF002430E00A
:1042AC000236F6B20027F3E731463846FFF7CCFF6B
:1042BC00002407E004EB0513134AD05CFFF78AFFD8
:1042CC000134E4B2072CF5D9711CC9B23846FFF79A
:1042DC00BBFF002408E004EB051308330A4AD05C4A
:1042EC00FFF778FF0134E4B2072CF4D90BE005EBAF
:1042FC004503064A02EB4303185DFFF76BFF0134DD
:10430C00E4B2052CF3D9F8BD8C48000864460008CB
:10431C002DE9F0478246894690461D469DF820605F
:10432C0000273C4619E0700804FB00F0C0B2504472
:10433C00334620224946C0B2FFF7A2FF0BE07008BB
:10434C0004FB00F0C0B2303250443346D2B249467E
:10435C00C0B2FFF795FF0134E4B2AC421CD2291B6A
:10436C00C9B20139C9B20A20FFF77FFFB8FBF0F0E0
:10437C000A4AA2FB003C4FEADC0C0CEB8C0CA0EBC9
:10438C004C0C5FFA8CF2002FD9D16B1E9C42D6DA02
:10439C00002AC8D00127D2E7BDE8F087CDCCCCCC21
:1043AC00032905D801EB81018B01024AD0507047DB
:1043BC00FEE700BF5C01002003282FD800EB800330
:1043CC009B01184AD35853B300EB800002EB8010CA
:1043DC00043093F84220D2B2202A1BD1E0B1002243
:1043EC001A63986201219985D9855A64222183F830
:1043FC0042101868C16841F48071C1601868416945
:10440C0041F0010141611968CB6843F02003CB6096
:10441C00104670470220704701207047FEE74FF0AE
:10442C00FF3070475C010020FDF7C0FA0B480C49C7
:10443C000C4A002302E0D458C4500433C4188C42F4
:10444C00F9D3094A094C002301E013600432A2425B
:10445C00FBD300F00FF8FCF70BFF704700000020B7
:10446C0028000020744E0008280000205C06002064
:10447C00FEE7000070B500260C4D0D4C641BA4101B
:10448C00A64209D100F040F800260A4D0A4C641BE4
:10449C00A410A64205D170BD55F8043B98470136CF
:1044AC00EEE755F8043B98470136F2E76C4E0008EE
:1044BC006C4E00086C4E0008704E000810B50139A7
:1044CC000244904201D1002005E0037811F8014F1D
:1044DC00A34201D0181B10BD0130F2E70A449142EF
:1044EC0000F1FF3300D1704710B511F8014B914228
:1044FC0003F8014FF9D110BD03460244934200D199
:10450C00704703F8011BF9E7F8B500BFF8BC08BC0D
:10451C009E467047F8B500BFF8BC08BC9E46704775
:10452C0001000000FB18180000000000982F8A42C0
:10453C0091443771CFFBC0B5A5DBB5E95BC25639E9
:10454C00F111F159A4823F92D55E1CAB98AA07D801
:10455C00015B8312BE853124C37D0C55745DBE7224
:10456C00FEB1DE80A706DC9B74F19BC1C1699BE4A4
:10457C008647BEEFC69DC10FCCA10C246F2CE92D34
:10458C00AA84744ADCA9B05CDA88F97652513E9858
:10459C006DC631A8C82703B0C77F59BFF30BE0C65F
:1045AC004791A7D55163CA0667292914850AB727ED
:1045BC0038211B2EFC6D2C4D130D385354730A658A
:1045CC00BB0A6A762EC9C281852C7292A1E8BFA261
:1045DC004B661AA8708B4BC2A3516CC719E892D1C9
:1045EC00240699D685350EF470A06A1016C1A4194C
:1045FC00086C371E4C774827B5BCB034B30C1C394B
:10460C004AAAD84E4FCA9C5BF36F2E68EE828F7409
:10461C006F63A5781478C8840802C78CFAFFBE9023
:10462C00EB6C50A4F7A3F9BEF27871C60000000041
:10463C000000000001020304060708090000000046
:10464C000102030402030405060708090A0B0C0DFA
:10465C000E0F10100102000000000000000000000E
:10466C00002F000000000700070000147F147F14C7
:10467C0000242A7F2A12006264081323003649554D
:10468C00225000000503000000001C224100000025
:10469C0041221C000014083E08140008083E0808BB
:1046AC00000000A060000008080808080000606016
:1046BC000000002010080402003E5149453E000055
:1046CC00427F4000004261514946002141454B3137
:1046DC00001814127F10002745454539003C4A4903
:1046EC004930000171090503003649494936000675
:1046FC004949291E000036360000000056360000DD
:10470C000008142241000014141414140000412257
:10471C00140800020151090600324959513E007C2F
:10472C001211127C007F49494936003E4141412219
:10473C00007F4141221C007F49494941007F090902
:10474C000901003E4149497A007F0808087F0000B2
:10475C00417F4100002040413F01007F081422416D
:10476C00007F40404040007F020C027F007F040825
:10477C00107F003E4141413E007F09090906003E81
:10478C004151215E007F09192946004649494931AA
:10479C000001017F0101003F4040403F001F2040CD
:1047AC00201F003F4038403F00631408146300078B
:1047BC000870080700615149454300007F414100E2
:1047CC0000552A552A55000041417F000004020182
:1047DC000204004040404040000001020400002060
:1047EC0054545478007F484444380038444444209E
:1047FC0000384444487F00385454541800087E094B
:10480C0001020018A4A4A47C007F08040478000012
:10481C00447D4000004080847D00007F10284400CF
:10482C000000417F4000007C04180478007C0804E0
:10483C00047800384444443800FC2424241800181C
:10484C00242418FC007C0804040800485454542008
:10485C0000043F444020003C4040207C001C204091
:10486C00201C003C4030403C004428102844001CD4
:10487C00A0A0A07C004464544C44141414141414CC
:10488C00000000000000000000000000000000001C
:10489C00000000F8000000000000003330000000B1
:1048AC0000100C06100C06000000000000000000B8
:1048BC0040C07840C0784000043F04043F0404002A
:1048CC00007088FC08300000001820FF211E00003A
:1048DC00F008F000E018000000211C031E211E004F
:1048EC0000F00888700000001E21232419272110D5
:1048FC0010160E0000000000000000000000000078
:10490C00000000E01804020000000007182040001E
:10491C0000020418E000000000402018070000000E
:10492C00404080F0804040000202010F0102020072
:10493C00000000F0000000000101011F0101010056
:10494C00000000000000000080B0700000000000BB
:10495C000000000000000000000101010101010144
:10496C0000000000000000000030300000000000DB
:10497C0000000000806018040060180601000000B0
:10498C0000E010080810E000000F102020100F00AD
:10499C00001010F8000000000020203F2020000034
:1049AC00007008080888700000302824222130008C
:1049BC0000300888884830000018202020110E0094
:1049CC000000C02010F8000000070424243F24003D
:1049DC0000F80888880808000019212020110E0012
:1049EC0000E0108888180000000F112020110E0024
:1049FC0000380808C83808000000003F000000001C
:104A0C000070880808887000001C222121221C00DC
:104A1C0000E010080810E0000000312222110F0005
:104A2C00000000C0C000000000000030300000009A
:104A3C00000000800000000000008060000000000A
:104A4C000000804020100800000102040810200023
:104A5C00404040404040400004040404040404006E
:104A6C000008102040800000002010080402010003
:104A7C00007048080808F000000000303601000003
:104A8C00C030C828E810E0000718272423140B00B6
:104A9C000000C038E0000000203C23020227382030
:104AAC0008F8888888700000203F202020110E0014
:104ABC00C03008080808380007182020201008000B
:104ACC0008F808080810E000203F202020100F00F4
:104ADC0008F88888E8081000203F202023201800C0
:104AEC0008F88888E8081000203F20000300000028
:104AFC00C03008080838000007182020221E0200C9
:104B0C0008F808000008F808203F210101213F2087
:104B1C00000808F8080800000020203F20200000B2
:104B2C0000000808F8080800C08080807F000000A2
:104B3C0008F888C028180800203F200126382000DB
:104B4C0008F8080000000000203F20202020300042
:104B5C0008F8F800F8F80800203F003F003F20005C
:104B6C0008F830C00008F808203F200007183F0064
:104B7C00E01008080810E0000F10202020100F0093
:104B8C0008F808080808F000203F21010101000086
:104B9C00E01008080810E0000F18242438504F00CB
:104BAC0008F8888888887000203F2000030C30208B
:104BBC0000708808080838000038202121221C00C9
:104BCC00180808F8080818000000203F2000000012
:104BDC0008F808000008F808001F202020201F00FB
:104BEC000878880000C83808000007380E0100005B
:104BFC00F80800F80008F800033C0700073C030025
:104C0C00081868808068180820302C03032C30208A
:104C1C000838C800C83808000000203F20000000F9
:104C2C0010080808C8380800203826212020180051
:104C3C00000000FE020202000000007F4040400025
:104C4C00000C30C000000000000000010638C0005D
:104C5C0000020202FE000000004040407F00000005
:104C6C00000004020202040000000000000000002A
:104C7C000000000000000000808080808080808028
:104C8C000002020400000000000000000000000010
:104C9C0000008080808000000019242222223F2006
:104CAC0008F8008080000000003F112020110E0049
:104CBC000000008080800000000E112020201100D8
:104CCC00000000808088F800000E112020103F208A
:104CDC000000808080800000001F2222222213000E
:104CEC00008080F0888888180020203F2020000059
:104CFC000000808080808000006B9494949360000E
:104D0C0008F8008080800000203F210000203F2018
:104D1C0000809898000000000020203F2020000018
:104D2C00000000809898000000C08080807F000008
:104D3C0008F8000080808000203F24022D302000E5
:104D4C00000808F8000000000020203F2020000090
:104D5C008080808080808000203F20003F20003FAA
:104D6C008080008080800000203F210000203F20B8
:104D7C000000808080800000001F202020201F0069
:104D8C00808000808000000080FFA12020110E0098
:104D9C000000008080808000000E112020A0FF8089
:104DAC00808080008080800020203F212000010036
:104DBC00000080808080800000332424242419008B
:104DCC00008080E0808000000000001F2020000098
:104DDC008080000000808000001F202020103F20D9
:104DEC00808080000080808000010E300806010069
:104DFC0080800080008080800F300C030C300F000E
:104E0C0000808000808080000020312E0E31200038
:104E1C00808080000080808080818E701806010068
:104E2C0000808080808080000021302C2221300086
:104E3C0000000000807C020200000000003F4040A7
:104E4C000002027C800000000040403F0000000097
:104E5C0000000000FF00000000000000FF00000048
:044E6C003101000808
:044E70000D01000828
:104E74000024F4000100000010000000AE00104007
:104E8400B081FFA1A6A83FC8D300D580D805D9F129
:084E9400DA12D8308D14AF00D2
:040000050800443576
:00000001FF
