:020000040800F2
:1000000000500020E91F0008110300081303000836
:10001000150300081703000819030008000000007A
:100020000000000000000000000000001B030008AA
:100030001D030008000000001F0300082103000842
:10004000312000083120000831200008312000084C
:10005000312000083120000831200008312000083C
:10006000312000083120000831200008312000082C
:10007000312000083120000831200008312000081C
:10008000312000083120000831200008312000080C
:1000900031200008312000083120000831200008FC
:1000A00031200008312000083120000831200008EC
:1000B00031200008312000083120000831200008DC
:1000C00031200008312000083120000831200008CC
:1000D00031200008290300083120000831200008E1
:1000E0003120000831200008312000080000000005
:1000F0000000000000000000000000000000000000
:0C01000000000000000000005FF808F1A3
:10010C0010B5054C237833B9044B13B10448AFF345
:10011C0000800123237010BD180100200000000096
:10012C001C30000808B5034B1BB103490348AFF35F
:10013C00008008BD000000001C0100201C300008DD
:10014C0084B00F4B9A6942F020029A619A6902F0CE
:10015C0020020192019A9A6942F004029A619A690A
:10016C0002F004020292029A9A6942F008029A6121
:10017C009B6903F008030393039B04B0704700BF13
:10018C000010024008B50B480B4B03600B4B43604F
:10019C0000238360C3604FF480420261436183613A
:1001AC00C361036200F05AFD00B908BD00F03AF8D3
:1001BC00FBE700BF3401002000540040A086010082
:1001CC0010B586B000230293039304930593026841
:1001DC00114B9A4201D006B010BD104CA36943F0EC
:1001EC000803A361A36903F008030093009BC023D9
:1001FC000293122303930323059302A9084800F0EA
:10020C0077FAE36943F40013E361E36903F4001341
:10021C000193019BDFE700BF005400400010024037
:10022C00000C014072B6FEE700B591B02822002107
:10023C0006A801F023FF0023019302930393049378
:10024C000593012206924FF4803307930A920222FF
:10025C000D920E934FF4E0130F9306A800F0A4FE3A
:10026C0080B90F23019302210291002303934FF4D1
:10027C0080620492059301A801F0C8F820B911B06E
:10028C005DF804FBFFF7CEFFFFF7CCFF08B500F0DD
:10029C001BF9FFF7C9FFFFF753FF00F049F8FFF711
:1002AC0071FF00F05FF801F01FFD034BB3F9001074
:1002BC00024801F0EBFEF8E71C0200203430000885
:1002CC0082B00E4B9A6942F001029A619A6902F06F
:1002DC0001020092009ADA6942F08052DA61DB691D
:1002EC0003F080530193019B054A536823F0E063AC
:1002FC0043F00073536002B0704700BF001002401F
:10030C0000000140FEE7FEE7FEE7FEE7FEE7704770
:10031C007047704708B500F0E9F808BD08B5024809
:10032C0001F056FB08BD00BF88010020704700009B
:10033C0008B50A480A4B03604FF46133436000234D
:10034C008360C36003610C2242618361C36101F06D
:10035C0025FA00B908BDFFF765FFFBE7880100200F
:10036C000038014008B50A480A4B03604FF4E133EA
:10037C00436000238360C36003610C22426183618C
:10038C00C36101F00BFA00B908BDFFF74BFFFBE7A7
:10039C00D00100200044004030B589B00023049304
:1003AC000593069307930368304A934204D0304A6E
:1003BC00934233D009B030BD2E4B9A6942F480423F
:1003CC009A619A6902F480420092009A9A6942F00A
:1003DC0004029A619B6903F004030193019B4FF49F
:1003EC00007304930223059303230793224D04A95E
:1003FC00284600F07DF94FF48063049300240594A3
:10040C00069404A9284600F073F9224621462520BB
:10041C0000F0A4F8252000F0D9F8CBE7154BDA69E9
:10042C0042F40032DA61DA6902F400320292029A82
:10043C009A6942F004029A619B6903F004030393E6
:10044C00039B0423049302230593032307930A4C71
:10045C0004A9204600F04CF90823049300230593CB
:10046C00069304A9204600F043F9A3E700380140A5
:10047C0000440040001002400008014010B5044642
:10048C000E4B18784FF47A73B3FBF0F30C4A1068E8
:10049C00B0FBF3F000F0A8F868B90F2C01D90120DB
:1004AC000AE0002221464FF0FF3000F057F8054BD0
:1004BC001C60002000E0012010BD00BF04000020E3
:1004CC00000000200800002008B5074A136843F01C
:1004DC0010031360032000F02FF80F20FFF7CEFF5E
:1004EC00FFF7EEFE002008BD00200240034A116811
:1004FC00034B1B780B441360704700BF180200209D
:10050C0004000020014B1868704700BF180200203F
:10051C0038B50446FFF7F6FF0546B4F1FF3F02D0AD
:10052C00044B1B781C44FFF7EDFF401BA042FAD391
:10053C0038BD00BF04000020074AD36823F4E063F1
:10054C001B041B0C000200F4E060034343F0BF6388
:10055C0043F40033D360704700ED00E000B5194B55
:10056C00DB68C3F30223C3F1070CBCF1040F28BFF3
:10057C004FF0040C03F1040EBEF1060F18D9033B27
:10058C004FF0FF3E0EFA0CFC21EA0C0199400EFADA
:10059C0003F322EA0303194300280BDB0901C9B258
:1005AC0000F1604000F5614080F800135DF804FB39
:1005BC000023E5E700F00F000901C9B2024B195402
:1005CC00F4E700BF00ED00E014ED00E0002807DBCD
:1005DC0000F01F02400901239340024A42F82030E8
:1005EC00704700BF00E100E00138B0F1807F0BD212
:1005FC004FF0E0235861054AF02182F823100020C7
:10060C00986107221A6170470120704700ED00E0E5
:10061C0090F82130DBB2022B06D004238363002335
:10062C0080F82030012070470268136823F00E0315
:10063C0013600268136823F001031360036CC16B31
:10064C00012202FA03F34B6080F82120002380F88A
:10065C00203018467047000008B590F82130DBB206
:10066C00022B03D004238363012008BD02681368A6
:10067C0023F00E0313600268136823F00103136068
:10068C000368194A934214D0143293421FD0143287
:10069C0093421ED0143293421ED0143293421ED079
:1006AC001432934202D04FF0807203E04FF4801268
:1006BC0000E001220D4B5A60012380F82130002309
:1006CC0080F82030436B6BB198470020CDE71022A7
:1006DC00F0E74FF48072EDE74FF48052EAE74FF405
:1006EC008032E7E70020C0E708000240000002402B
:1006FC0070B582B00024A446A6E0804DAA4210D06A
:10070C0007D97F4DAA420CD005F58035AA4208D0F6
:10071C0013E0A5F58015AA4203D005F57025AA4271
:10072C0007D18A68002A58D0012A51D04361082485
:10073C0003E0A5F58015AA42F3D0BEF1FF0F4ED809
:10074C000646BEF1FF0F4CD84FEA8C0233680F25DA
:10075C00954023EA050304FA02F2134333604B6815
:10076C0013F0805F6ED0674B9A6942F001029A6178
:10077C009B6903F001030193019B4FEA9C02951CBA
:10078C00614B53F825600CF003039D000F23AB4025
:10079C0026EA03065D4B984229D003F58063984204
:1007AC0000F08E8003F58063984200F08B8003F597
:1007BC008063984219D004231AE0CC68BDE7CC685A
:1007CC000434BAE7CC680834B7E7CC680C34B4E727
:1007DC0003610824B1E70024AFE70424ADE7061D4C
:1007EC00AFE7ACF108029200B0E7032300E000236E
:1007FC00AB4033430232444D45F822304B6813F47E
:10080C00801F61D0424A936843EA0E0393604B68A1
:10081C0013F4001F5ED03E4AD36843EA0E03D36044
:10082C004B6813F4003F5BD0394A536843EA0E031C
:10083C0053604B6813F4803F58D0354A136843EA31
:10084C000E0313600CF1010C0A6832FA0CF353D04E
:10085C00012303FA0CF302EA030E33EA0202F1D18C
:10086C004A68122A3FF649AF122A3FF666AF01A535
:10087C0055F822F02F070008C7070008D107000819
:10088C00E307000847070008470700084707000868
:10089C0047070008470700084707000847070008F4
:1008AC0047070008470700084707000847070008E4
:1008BC004707000847070008CB070008D7070008C0
:1008CC00012395E7022393E7114A936823EA0E0369
:1008DC0093609CE70E4AD36823EA0E03D3609FE72C
:1008EC000B4A536823EA0E035360A2E7084A1368C5
:1008FC0023EA0E031360A5E702B070BD00002210BE
:10090C0000003110001002400000014000080140BE
:10091C000004014003685A6912F4806F01D1002071
:10092C0070476FF480625A6100230363202280F8C1
:10093C003D2080F83E30026C42F00402026480F8E4
:10094C003C30012070472DE9F04106460C46174615
:10095C0098463BE0FFF7D6FD069BC01A404502D8EF
:10096C00B8F1000F32D1012D18D033689B6924EAFD
:10097C0003039BB2B3FA83F35B099F4226D1002396
:10098C003363202286F83D2086F83E30326C42F0EC
:10099C002002326486F83C30012027E033685B6922
:1009AC0024EA03039BB2B3FA83F35B09E5E73368EC
:1009BC005B6924EA030C1FFA8CFCBCFA8CFC4FEA32
:1009CC005C1C674511D1B8F1FF3FC3D1C4F3074597
:1009DC00012DECD033689B6924EA030C1FFA8CFCC4
:1009EC00BCFA8CFC4FEA5C1CEBE70020BDE8F08104
:1009FC002DE9F84305460E469046994653E01A6891
:100A0C0042F400721A602B686FF480625A61002302
:100A1C002B63202285F83D2085F83E302A6C42F06D
:100A2C0004022A6485F83C3001204AE0FFF76AFD95
:100A3C00A0EB0900404502D8B8F1000F33D1012FCB
:100A4C0017D02B689B6926EA03039BB2003B18BFA7
:100A5C00012343B300232B63202285F83D2085F826
:100A6C003E302A6C42F020022A6485F83C3001208A
:100A7C0027E02B685B6926EA03039BB2003B18BF97
:100A8C000123E6E72B689C6926EA0404A4B2003C27
:100A9C0018BF0124A4B12B685A6912F4806FAED12F
:100AAC00B8F1FF3FC2D1C6F30747012FEAD12B683B
:100ABC005C6926EA0404A4B2003C18BF0124E9E7EF
:100ACC000020BDE8F88370B504460D461646236831
:100ADC005B6913F0800F21D12046FFF71BFFF8B99B
:100AEC00B5F1FF3FF3D0FFF70DFD801BA84201D8F5
:100AFC00002DECD123685B6913F0800FE7D1002344
:100B0C002363202284F83D2084F83E30226C42F08E
:100B1C002002226484F83C30012000E0002070BDEB
:100B2C000120FCE72DE9F04385B004460D469146C3
:100B3C001F46DDF830800D9E0368196841F4807102
:100B4C0019600096434600224FF00111FFF7FBFE9F
:100B5C0060B9236805F0FE051D61334642462649FF
:100B6C002046FFF745FF68B1012008E023681B68A9
:100B7C0013F4807F02D04FF400732364032005B07C
:100B8C00BDE8F0830023039323685A6903929B69A1
:100B9C000393039B324641462046FFF794FF30B93E
:100BAC00012F0FD123685FFA89F61E61E7E7236CEA
:100BBC00042B01D00120E2E72268136843F4007390
:100BCC001360F7E723684FEA19221A61324641464F
:100BDC002046FFF778FF20B923685FFA89F61E617B
:100BEC00CDE7236C042B01D00120C8E722681368E1
:100BFC0043F400731360F7E70200010070B504467C
:100C0C000D46164623685B6913F0040F21D120466C
:100C1C00FFF780FEF8B9B5F1FF3FF3D0FFF772FC98
:100C2C00801BA84201D8002DECD123685B6913F01E
:100C3C00040FE7D100232363202284F83D2084F89D
:100C4C003E30226C42F02002226484F83C300120B9
:100C5C0000E0002070BD0120FCE70000002800F03F
:100C6C00CC8070B5044690F83D30002B77D024230F
:100C7C0084F83D302268136823F001031360226866
:100C8C00136843F4004313602268136823F4004391
:100C9C00136000F077FC62685A4B9A4264D85A4B46
:100CAC0098428CBF00230123002B40F0A8805749A9
:100CBC00A1FB00318B0C25686A6822F03F0242EAE6
:100CCC0091426A6021680A6A22F03F0266684D4DC3
:100CDC00AE424FD8013313430B622168CA6922F428
:100CEC004F4222F0FF026668464B9E424CD8431E90
:100CFC007600B3FBF6F3013340F6FC70034278D078
:100D0C00C3F30B031343CB6121680B6823F0C003BF
:100D1C00E269206A024313430B6021688B6823F459
:100D2C00034323F0FF032269E068024313438B6003
:100D3C002168CB6823F0FF036269A0690243134367
:100D4C00CB602268136843F0010313600020206419
:100D5C00202384F83D30206384F83E0070BD80F879
:100D6C003C30FFF72DFA82E7294B98428CBF0023C9
:100D7C00012399E74FF4967505FB03F3254DA5FB6D
:100D8C0003539B090133A6E7A368BBB9451E06EBC9
:100D9C00460CB5FBFCF50135C5F30B05B5FA85F52D
:100DAC006D0945BBC3B9013806EB4603B0FBF3F341
:100DBC000133C3F30B0343F40043A3E7451E06EBD7
:100DCC00860C0CEB8C0CB5FBFCF50135C5F30B0557
:100DDC00B5FA85F56D09E4E7013806EB860303EBFC
:100DEC008303B0FBF3F30133C3F30B0343F440432E
:100DFC0088E7042386E7012384E70120704701205C
:100E0C00ACE700BFA08601007F841E0083DE1B437D
:100E1C00FF083D00D34D62102DE9F04383B004462A
:100E2C000F46904699460C9EFFF76CFB054694F8CE
:100E3C003D00C0B2202803D0022003B0BDE8F083EF
:100E4C000095192301224B492046FFF77CFD002811
:100E5C0040F0898094F83C30012B00F0868001230F
:100E6C0084F83C3023681A6812F0010F03D11A6819
:100E7C0042F001021A602268136823F400631360C5
:100E8C00212384F83D30402384F83E300023236432
:100E9C000A9B6362BDF82C306385638D2385364BCA
:100EAC00E362019500964B46424639462046FFF7D1
:100EBC0039FE00285BD1238D002B35D02A463146D4
:100ECC002046FFF700FE20BB626A236812781A6185
:100EDC00626A531C6362218D013989B22185638D4D
:100EEC009BB2013B9BB263852368586910F0040FD9
:100EFC00E1D00029DFD052781A61636A0133636252
:100F0C00238D013B2385638D9BB2013B9BB2638593
:100F1C00D1E7236C042B01D001208EE722681368E3
:100F2C0043F400731360F7E72A4631462046FFF777
:100F3C0065FE50B1236C042B01D001207DE72268A3
:100F4C00136843F400731360F7E72268136843F4E3
:100F5C0000731360202384F83D30002384F83E3066
:100F6C0084F83C3069E7022067E7022065E701203E
:100F7C0063E700BF020010000000FFFF82B0084BC7
:100F8C001B68084AA2FB03235B0A00FB03F30193D3
:100F9C0000BF019B5A1E0192002BF9D102B0704781
:100FAC0000000020D34D6210002800F0F18170B5D4
:100FBC0082B00446036813F0010F2CD0994B5B6888
:100FCC0003F00C03042B1DD0964B5B6803F00C0351
:100FDC00082B12D06368B3F5803F41D0002B55D15C
:100FEC0003F1804303F504331A6822F480321A604B
:100FFC001A6822F480221A6037E08A4B5B6813F47B
:10100C00803FE7D0874B1B6813F4003F03D0636825
:10101C00002B00F0BF81236813F0020F75D0814BB9
:10102C005B6813F00C0F5FD07E4B5B6803F00C0316
:10103C00082B54D02369002B00F08A807A4B0122B4
:10104C001A60FFF75FFA0546764B1B6813F0020F28
:10105C0075D1FFF757FA401B0228F5D903209EE102
:10106C00704A136843F480331360636843B3FFF72B
:10107C0049FA05466B4B1B6813F4003FCBD1FFF7C5
:10108C0041FA401B6428F5D9032088E1B3F5A02F61
:10109C0009D0644B1A6822F480321A601A6822F460
:1010AC0080221A60E1E703F18043A3F53C331A6810
:1010BC0042F480221A601A6842F480321A60D4E733
:1010CC00FFF720FA0546574B1B6813F4003FA2D0DC
:1010DC00FFF718FA401B6428F5D903205FE1514B48
:1010EC005B6813F4803FA5D14E4B1B6813F0020FC5
:1010FC0003D02369012B40F04F814A4A136823F037
:10110C00F803616943EAC1031360236813F0080F05
:10111C0033D0A369002B5CD0434B0122C3F880244D
:10112C00FFF7F0F905463F4B5B6A13F0020F21D134
:10113C00FFF7E8F9401B0228F5D903202FE1394AC3
:10114C00136823F0F803616943EAC1031360DCE719
:10115C00354B00221A60FFF7D5F90546314B1B6859
:10116C0013F0020FD1D0FFF7CDF9401B0228F5D9AF
:10117C00032014E10120FFF701FF236813F0040F93
:10118C0000F09680274BDB6913F0805F34D1254B40
:10119C00DA6942F08052DA61DB6903F08053019323
:1011AC00019B0125214B1B6813F4807F26D0E3683B
:1011BC00012B3DD0002B53D103F1804303F50433B5
:1011CC001A6A22F001021A621A6A22F004021A62E6
:1011DC0033E0154B0022C3F88024FFF793F9054642
:1011EC00104B5B6A13F0020FC7D0FFF78BF9401B53
:1011FC000228F5D90320D2E00025D3E70B4A136867
:10120C0043F480731360FFF77DF90646074B1B68A8
:10121C0013F4807FCBD1FFF775F9801B6428F5D9C7
:10122C000320BCE00010024000004242007000406D
:10123C005F4A136A43F001031362E36833B3FFF7A9
:10124C0061F906465A4B1B6A13F0020F2FD1FFF7B8
:10125C0059F9801B41F288339842F3D903209EE060
:10126C00052B09D0524B1A6A22F001021A621A6A33
:10127C0022F004021A62E0E74D4B1A6A42F00402B3
:10128C001A621A6A42F001021A62D6E7FFF73AF9BB
:10129C000646474B1B6A13F0020F08D0FFF732F9D2
:1012AC00801B41F288339842F3D9032077E0E5B9EB
:1012BC00E369002B72D03E4A526802F00C02082AF5
:1012CC0056D0022B17D03B4B00221A66FFF71AF9A7
:1012DC000446374B1B6813F0007F47D0FFF712F919
:1012EC00001B0228F5D9032059E0314AD36923F0B9
:1012FC008053D361DCE72F4B00221A66FFF702F90B
:10130C0005462B4B1B6813F0007F06D0FFF7FAF84D
:10131C00401B0228F5D9032041E0236AB3F5803F36
:10132C001AD023494B6823F47413226A606A02436F
:10133C0013434B601F4B01221A66FFF7E3F8044678
:10134C001B4B1B6813F0007F0ED1FFF7DBF8001B63
:10135C000228F5D9032022E0154A536823F4003300
:10136C00A1680B435360DCE7002018E0002016E076
:10137C00012B16D00E4B5B6803F48031226A91422C
:10138C0011D103F47013626A93420ED1002006E06F
:10139C0001207047012002E0012000E0002002B093
:1013AC0070BD0120FBE70120F9E70120F7E700BF42
:1013BC0000100240000042420F4B5B6803F00C022D
:1013CC00082A01D00D487047C3F383420C49885C4E
:1013DC0013F4803F0BD0084B5B68C3F34043094ABE
:1013EC00D35C064A02FB00F0B0FBF3F07047064BEF
:1013FC0003FB00F0704700BF0010024000127A009F
:10140C00503000086030000800093D00002800F052
:10141C00A08070B50D460446524B1B6803F00703C1
:10142C008B420BD24F4A136823F007030B43136014
:10143C00136803F007038B4240F08D80236813F090
:10144C00020F17D013F0040F04D0474A536843F42B
:10145C00E0635360236813F0080F04D0424A5368CA
:10146C0043F460535360404A536823F0F003A1687F
:10147C000B435360236813F0010F31D06368012BC9
:10148C0020D0022B25D0384A126812F0020F64D0FB
:10149C0035494A6822F0030213434B60FFF732F8D8
:1014AC000646314B5B6803F00C036268B3EB820FAA
:1014BC0016D0FFF727F8801B41F288339842F0D9F9
:1014CC00032045E0284A126812F4003FE0D10120C5
:1014DC003EE0254A126812F0007FD9D1012037E096
:1014EC00204B1B6803F00703AB420AD91D4A136853
:1014FC0023F007032B431360136803F00703AB427D
:10150C002DD1236813F0040F06D0174A536823F427
:10151C00E063E1680B435360236813F0080F07D0B6
:10152C00114A536823F46053216943EAC1035360A1
:10153C00FFF742FF0C4B5B68C3F303130B4AD35CFE
:10154C00D8400B4B18600B4B1868FEF797FF002028
:10155C0070BD012070470120FAE70120F8E7012057
:10156C00F6E700BF002002400010024038300008AF
:10157C000000002008000020014B1868704700BFD5
:10158C000000002008B5FFF7F7FF044B5B68C3F3BE
:10159C000223034AD35CD84008BD00BF00100240B0
:1015AC004830000808B5FFF7E7FF044B5B68C3F34E
:1015BC00C223034AD35CD84008BD00BF00100240D0
:1015CC0048300008026802F10C0353E8003F23F492
:1015DC0090730C3242E800310029F3D1026802F119
:1015EC00140353E8003F23F00103143242E80031A6
:1015FC000029F3D1036B012B05D0202380F8423056
:10160C00002303637047026802F10C0353E8003FA8
:10161C0023F010030C3242E800310029F3D1ECE73F
:10162C0090F84130DBB2212B01D002207047836847
:10163C00B3F5805F17D0036A5A1C02621A780368EC
:10164C005A60C38C9BB2013B9BB2C3844BB90268FA
:10165C00D36823F08003D3600268D36843F040035F
:10166C00D360002070470369002BE4D1036A1B8808
:10167C000268C3F308035360036A02330362E0E7B2
:10168C0010B504460268136923F44053C1680B4338
:10169C00136183680269134342691A430168CB687A
:1016AC0023F4B05323F00C031343CB60026853694B
:1016BC0023F4407381690B4353610268134B9A42C4
:1016CC0020D0FFF75FFF024602EB820202EB8202A0
:1016DC0063689B00B2FBF3F20D48A0FB0231490991
:1016EC00642303FB11231B013233A0FB03235B098F
:1016FC0003F0F00202EB011203F00F032168134414
:10170C008B6010BDFFF74EFF0246DDE7003801404D
:10171C001F85EB512DE9F84305460F4616469946B1
:10172C00DDF820802C68246837EA04030CBF4FF0E6
:10173C00010C4FF0000CB4452DD1B8F1FF3FF1D0A6
:10174C00B8F1000F05D0FEF7DDFEA0EB0900404517
:10175C00E8D92A6802F10C0353E8003F23F4D07354
:10176C000C3242E800310029F3D12A6802F114034B
:10177C0053E8003F23F00103143242E80031002902
:10178C00F3D1202385F8413085F84230002385F8C9
:10179C004030032000E00020BDE8F88360B310B5B2
:1017AC00044690F8413013B3242384F84130226866
:1017BC00D36823F40053D3602046FFF761FF2268FF
:1017CC00136923F4904313612268536923F02A03AD
:1017DC0053612268D36843F40053D36000206064E3
:1017EC00202384F8413084F84230606310BD80F8C7
:1017FC004030FEF7D1FDD7E7012070472DE9F041CD
:10180C0082B01E4690F84130DBB2202B4BD10446FF
:10181C000D46904600294AD00AB9012044E0002325
:10182C004364212380F84130FEF76CFE0746A4F890
:10183C002480A4F82680A368B3F5805F02D04FF013
:10184C0000080FE02369FBB14FF000080AE038F8FC
:10185C00023B2268C3F308035360E28C92B2013A54
:10186C0092B2E284E38C9BB28BB100963B46002291
:10187C0080212046FFF74EFFD8B9002DE7D015F890
:10188C00012B23685A60E8E7A8460025EAE7009692
:10189C003B46002240212046FFF73CFF58B920234D
:1018AC0084F8413000E0022002B0BDE8F081012054
:1018BC00FAE70320F8E70320F6E7704708B501685C
:1018CC00CA6822F04002CA60202280F84120FFF74B
:1018DC00F4FF002008BD704708B5406A0023C3859B
:1018EC00C384FFF7F8FF08BD704790F84230DBB2B5
:1018FC00222B69D18368B3F5805F4FD0826AB3F530
:10190C00805F04D0002B56D10369002B53D10368A0
:10191C005B681370836A01338362C38D9BB2013B96
:10192C009BB2C385002B51D100B583B00268D3683C
:10193C0023F02003D3600268D36823F48073D36050
:10194C000268536923F001035361202380F842306D
:10195C0000234363036B012B33D100230363026821
:10196C0002F10C0353E8003F23F010030C3242E861
:10197C0000310029F3D103681A6812F0100F06D059
:10198C00002201921A6801925B680193019B818D80
:10199C00FFF7AAFF002003B05DF804FB0269002AE0
:1019AC00ACD1826A03685B68C3F308031380836A53
:1019BC0002338362B1E703685B6803F07F03137043
:1019CC00A8E700F077F9E5E70220704700207047A0
:1019DC0030B583B0044602681368D068516913F0BF
:1019EC000F0505D113F0200F02D010F0200F19D1E4
:1019FC002DB111F0010119D110F4907F16D1216B8A
:101A0C0001297DD013F0800F03D010F0800F40F02F
:101A1C00188113F0400F03D010F0400F40F01581E7
:101A2C0003B030BD2046FFF760FFF9E713F0010F5C
:101A3C0006D010F4807F03D0626C42F00102626425
:101A4C0013F0040F04D019B1626C42F0020262640C
:101A5C0013F0020F04D019B1626C42F004026264FC
:101A6C0013F0080F07D010F0200F00D119B1626CE1
:101A7C0042F008026264626C002AD1D013F0200F8D
:101A8C0002D010F0200F29D123685B6903F04003CA
:101A9C00626C12F0080F00D163B32046FFF792FD81
:101AAC0023685B6913F0400F20D0226802F1140305
:101ABC0053E8003F23F04003143242E80031002980
:101ACC00F3D1E36B73B1634A5A63E06BFEF7C4FD69
:101ADC000028A5D0E06B436B9847A1E72046FFF7A1
:101AEC0004FFD1E72046FFF7F6FE99E72046FFF703
:101AFC00F2FE95E72046FFF7EEFE002363648FE7C6
:101B0C0013F0100F3FF47EAF10F0100F3FF47AAFCC
:101B1C00002301931368019353680193019B53694C
:101B2C0013F0400F51D0E26B13685B689BB2002B33
:101B3C003FF476AFA18D99427FF672AFE38593693E
:101B4C00202B37D0226802F10C0353E8003F23F41A
:101B5C0080730C3242E800310029F3D1226802F183
:101B6C00140353E8003F23F00103143242E8003120
:101B7C000029F3D1226802F1140353E8003F23F04B
:101B8C004003143242E800310029F3D1202384F8B9
:101B9C00423000232363226802F10C0353E8003F18
:101BAC0023F010030C3242E800310029F3D1E06B32
:101BBC00FEF72EFD02236363A18DE38D9BB2C91A40
:101BCC0089B22046FFF790FE2AE7A18DE38D9BB2E8
:101BDC00C91A89B2E38D9BB2002B3FF421AF0029C7
:101BEC003FF41EAF226802F10C0353E8003F23F4CC
:101BFC0090730C3242E800300028F3D1226802F1D5
:101C0C00140353E8003F23F00103143242E8003080
:101C1C000028F3D1202384F8423000232363226868
:101C2C0002F10C0353E8003F23F010030C3242E89E
:101C3C0000300028F3D1022363632046FFF754FEE3
:101C4C00EEE62046FFF7ECFCEAE62046FFF736FE10
:101C5C00E6E600BFE518000881628285C285002394
:101C6C004364222380F84230036923B10268D368AD
:101C7C0043F48073D3600268536943F001035361EA
:101C8C000268D36843F02003D3600020704708B586
:101C9C0090F84230DBB2202B08D149B10AB90120AF
:101CAC0008BD00230363FFF7D7FFF9E70220F7E72E
:101CBC000120F5E708B50268074B9A4200D008BD31
:101CCC0000F008F9054A138801331380C322044934
:101CDC000448FFF7DCFFF2E700380140D003002096
:101CEC000C0300208801002008B50A480268D3685C
:101CFC0043F02003D360C3220749FFF7C8FF074B0B
:101D0C001A68D36843F40053D36000F051F800F024
:101D1C0056F808BD880100200C030020D0010020DB
:101D2C0010B584B000240EE04FF4807302930123AD
:101D3C000193074A22440092002278210548FFF7BC
:101D4C006BF80134E4B21A2CEED904B010BD00BF0C
:101D5C000C0000203401002000B587B08DF817006E
:101D6C004FF480730293012301930DF1170200923B
:101D7C00002278210248FFF74FF807B05DF804FB0A
:101D8C003401002000B587B08DF817004FF4807334
:101D9C000293012301930DF1170200924022782146
:101DAC000248FFF739F807B05DF804FB3401002056
:101DBC0008B5C820FEF7ACFBFFF7B2FF08BD38B57D
:101DCC00002509E00020FFF7DDFF0134E4B214F038
:101DDC00800FF7D00135EDB2072D0CD8A5F15000CE
:101DEC00C0B2FFF7B9FF0020FFF7B6FF1020FFF7D6
:101DFC00B3FF0024EBE738BD30B403461046D3F8EC
:101E0C008050D3F88440A542F9D04FF0000C01E08B
:101E1C000CF1010C84451ADAD3F88050D3F88440C5
:101E2C00A54213D0D3F88040651CC3F880501C5DCC
:101E3C0001F8014BD3F88050064CD4F88840A542E9
:101E4C00E6DB044A0024C2F88040E1E7604630BC7F
:101E5C00704700BF2800002070B506460D4614469A
:101E6C004FF0FF33224629463046FFF7C7FC0228C5
:101E7C00F6D070BD10B51446012808D002280CD03D
:101E8C0000F0D2F8092303604FF0FF3004E092B267
:101E9C000548FFF7E1FF204610BD92B20248FFF75C
:101EAC00DBFF2046F8E700BFD0010020002A0CDD44
:101EBC0008B518B90648FFF79FFF08BD00F0B4F845
:101ECC00092303604FF0FF30F7E70020704700BF95
:101EDC00280000203F4B1A785B789A4200D070475C
:101EEC003C4A92789342FAD13A4BDB789A42F6D13B
:101EFC00AA2BF4D1374B5B79022BF0D104230022AF
:101F0C0004E03449C95C0A4401339BB2C12BF8D9B3
:101F1C00304B93F8C230D2B29342E0D100210B295E
:101F2C0057D870B5C1EB011303F10A00294A155CAF
:101F3C0003F10B00105C05EB0025274C01EB810C29
:101F4C004FEA8C0004EB000E255203F10D00155CDA
:101F5C0003F10C00105C00EB0520AEF8020003F15D
:101F6C001100165C01F1010CCCEB0C10155C280473
:101F7C0000EB066003F11006965D00EB062028448A
:101F8C00CEF8040003F11200105C8EF8080003F187
:101F9C001600155C03F11500105C000400EB0560E5
:101FAC0003F11405555D00EB052003F11305555D98
:101FBC002844CEF80C0003F11800105C1733D35CE6
:101FCC0003EB0023AEF810301FFA8CF10B29A9D9C2
:101FDC0070BD70470C0300201C020020FEF7A6F910
:101FEC000B480C490C4A002302E0D458C45004336B
:101FFC00C4188C42F9D3094A094C002301E0136040
:10200C000432A242FBD300F015F8FEF73FF97047FB
:10201C0000000020180100200431000818010020E5
:10202C00E8030020FEE70000014B1868704700BF72
:10203C00B400002070B500260C4D0D4C641BA41090
:10204C00A64209D100F0E4FF00260A4D0A4C641B9D
:10205C00A410A64205D170BD55F8043B9847013633
:10206C00EEE755F8043B98470136F2E7FC300008E0
:10207C00FC300008FC300008003100080346024424
:10208C00934200D1704703F8011BF9E70FB40A4BD8
:10209C0013B51C6824B1A36913B9204600F066F887
:1020AC0005AB2046049AA168019300F0BBF902B07D
:1020BC00BDE8104004B07047B4000020002310B5F8
:1020CC000446C0E90033C0E9043383608181436670
:1020DC00C2818361194608225C30FFF7CFFF054BA4
:1020EC0024626362044BA362044BE362044B2363DC
:1020FC0010BD00BFDD290008FF290008372A0008A1
:10210C005B2A0008014900F0AFB800BF2D2D000874
:10211C00682270B54D1E55430E4605F1740100F052
:10212C00E5F8044640B10021C0E900160C30A0606F
:10213C0005F16802FFF7A2FF204670BD014800F0D0
:10214C00B3B800BFD3030020014800F0AEB800BF05
:10215C00D3030020014800F0A7B800BFD40300202F
:10216C00014800F0A2B800BFD403002010B504460B
:10217C00FFF7F0FFA3691BB1BDE81040FFF7F0BFFC
:10218C00C4E912332365134B134A1B68A262A342A2
:10219C0008BF0123204608BFA36100F01FF8606050
:1021AC00204600F01BF8A060204600F017F8002233
:1021BC000421E0606068FFF781FF01220921A0681B
:1021CC00FFF77CFF02221221E068FFF777FF012363
:1021DC00A361D1E76430000811210008F8B5074667
:1021EC00FFF7ACFF1E4B1E68B36913B93046FFF7FF
:1021FC00BDFF4836D6E90134013B03D533680BB338
:10220C003668F7E7B4F90C50D5B9164B04F1580001
:10221C00E360656600F047F8FFF796FF0822294651
:10222C00C4E90155C4E904552560A56104F15C00BD
:10223C00FFF724FFC4E90D55C4E912552046F8BD3B
:10224C006834D9E704213846FFF762FF0446306052
:10225C000028D5D1FFF778FF0C233B60EEE700BFD9
:10226C00643000080100FFFF2DE9F843064688465C
:10227C00002700F14804D4E90195B9F1010905D50D
:10228C002468002CF7D13846BDE8F883AB89012BC4
:10229C0007D9B5F90E30013303D029463046C04773
:1022AC0007436835E9E770477047704770B50E4EC5
:1022BC000C463168054611B900F07AFB30602146B6
:1022CC00284600F075FB431C0AD0C41C24F0030400
:1022DC00A04207D0211A284600F06AFB013001D138
:1022EC004FF0FF34204670BDDC0300202DE9F04197
:1022FC00CD1C25F0030508350C2D38BF0C25002D01
:10230C00074601DBA94205D90C2300263B60304669
:10231C00BDE8F0812E4E00F0C5FD33681C4634BB81
:10232C0029463846FFF7C2FF431C04464DD134689A
:10233C002646002E40D123683146384604EB03086C
:10234C0000F036FB80453AD1216803356D1A25F033
:10235C00030508350C2D38BF0C2538462946FFF7E8
:10236C00A5FF01302BD023682B4423600EE022689C
:10237C00521B1ED40B2A16D96119A342256018BF13
:10238C005960636808BF316062514B60384604F194
:10239C000B0600F08DFD26F00706231DF21AB6D0B1
:1023AC009B1BA350B3E76268A3420CBF32605A6018
:1023BC00ECE723466468B2E734467668B9E70C2349
:1023CC0038463B6000F074FDA1E72560DEE700BFF6
:1023DC00D8030020936810B4013B002B936007DAFC
:1023EC009469A34201DB0A2902D110BC00F034BB72
:1023FC001368581C10601970084610BC7047F8B56B
:10240C0006460F461446D518AC4201D1002007E011
:10241C003A46304614F8011BFFF7DCFF431CF3D19E
:10242C00F8BD00002DE9F04F0D46144698460646BF
:10243C009DB018B183690BB9FFF798FE894B9D428B
:10244C001BD175686B6ED90705D4AB899A0502D47C
:10245C00A86DFFF729FFAB891B0701D52B69EBB9D9
:10246C002946304600F05CFBC0B16B6EDC070ED524
:10247C004FF0FF301DB0BDE8F08F7B4B9D4201D17A
:10248C00B568DFE7794B9D4208BFF568DAE7AB89A1
:10249C009805EDD4A86DFFF708FFE9E70023099331
:1024AC0020238DF8293030234FF00109CDF80C8012
:1024BC00DFF8BC818DF82A3023469A4613F8012B9D
:1024CC000AB1252AF9D1BAEB040B0BD05B46224694
:1024DC0029463046FFF793FF013000F0AA80099A95
:1024EC005A4409929AF80030002B00F0A280002385
:1024FC004FF0FF32CDE905230AF1010A049307934B
:10250C008DF853301A935446052214F8011B584881
:10251C0000F0BAFC049AD8B9D10644BF20238DF838
:10252C005330130744BF2B238DF853309AF80030E7
:10253C002A2B15D0544600204FF00A0C079A21463E
:10254C0011F8013B303B092B4ED9B0B1079214E086
:10255C00A0EB080309FA03F31343A2460493D2E752
:10256C00039B191D1B680391002BBBBF5B4242F000
:10257C00020207930793B8BF049223782E2B0CD139
:10258C0063782A2B35D1039B02341A1D1B680392E6
:10259C00002BB8BF4FF0FF330593DFF8D8A0032210
:1025AC005046217800F070FC40B14023A0EB0A00AB
:1025BC0003FA00F0049B01340343049314F8011B49
:1025CC0006222D488DF8281000F05EFC00283FD024
:1025DC002A4B1BBB039B073323F0070308330393DE
:1025EC00099B3B44099367E70C4601200CFB023224
:1025FC00A5E700234FF00A0C194601340593204639
:10260C0010F8012B303A092A03D9002BC5D00591BB
:10261C00C3E7044601230CFB0121F0E703AB009355
:10262C002A463046164B04A9AFF300800746781CA7
:10263C00D6D16B6ED90705D4AB899A0502D4A86D97
:10264C00FFF733FEAB895B063FF512AF099811E734
:10265C0003AB00932A463046094B04A900F082F8DC
:10266C00E4E700BF88300008A83000086830000894
:10267C00C8300008CE300008D2300008000000003E
:10268C000B2400082DE9F047164699468A680B6919
:10269C0007469342B8BF1346336091F843200C466B
:1026AC00DDF820800AB1013333602368990642BFFC
:1026BC00336802333360256815F0060506D104F142
:1026CC00190AE36832689B1AAB4228DC94F8432061
:1026DC00131E226818BF012392062DD44946384692
:1026EC0004F14302C047013020D02368E56803F0B1
:1026FC000603042B18BF002532684FF00006A368B0
:10270C0008BFAD1A226908BF25EAE5759342C4BF1C
:10271C009B1AED181A34B5421AD1002008E0012397
:10272C00524649463846C047013003D14FF0FF307E
:10273C00BDE8F0870135C4E73020E11881F843008B
:10274C005A1C94F845102244023382F84310C5E712
:10275C000123224649463846C0470130E6D00136AF
:10276C00D9E700002DE9FF470F7E9146782F804670
:10277C000C469A460C9D01F1430207D8622F0AD8E9
:10278C00002F00F0D980582F00F0A48004F14205EE
:10279C0084F842703AE0A7F16303152BF6D801A137
:1027AC0051F823F0092800081D2800089927000873
:1027BC009927000899270008992700081D28000868
:1027CC0099270008992700089927000899270008DD
:1027DC002B2900084D2800080D290008992700080E
:1027EC00992700084D290008992700084D28000852
:1027FC009927000899270008152900082B681A1D2D
:10280C001B682A6004F1420584F842300123A4E0DD
:10281C0020682968060601F104030AD50E682B60AE
:10282C00002E03DA2D23764284F843300A235E48C7
:10283C0019E00E6810F0400F2B6018BF36B2EFE7AE
:10284C002B682068191D2960010601D51E6802E05D
:10285C004606FBD51E886F2F0CBF08230A2352484F
:10286C00002184F843106568002DA8BF2168A5607D
:10287C00A4BF21F0040121600EB9002D4DD01546E6
:10288C00B6FBF3F103FB1167C75D05F8017D374615
:10289C00BB420E46F4D9082B0BD12368DE0708D5B2
:1028AC00236961689942DEBF302305F8013C05F1CC
:1028BC00FF35521B22614B4621464046CDF800A005
:1028CC0003AAFFF7DFFE01304CD14FF0FF3004B00C
:1028DC00BDE8F087344881F845702968236851F8C1
:1028EC00046B29601D0614D5DF0744BF43F0200399
:1028FC0023601EB9236823F0200323601023AFE765
:10290C00236843F0200323607823284884F845305B
:10291C00E3E7590648BFB6B2E6E71546BBE72B68B6
:10292C002668181D6169286035061B6801D5196079
:10293C0002E07006FBD51980002315462361BAE727
:10294C002B6800211A1D2A601D686268284600F059
:10295C009BFA08B1401B606063682361002384F814
:10296C004330A8E72A46494640462369D047013000
:10297C00ABD023689B0713D4E068039B9842B8BF85
:10298C001846A4E70123324649464046D047013059
:10299C009BD00135E36803995B1AAB42F2DCEBE7A1
:1029AC00002504F11906F5E7D9300008EA300008D3
:1029BC0038B50023054D044608462B6000F01AFB81
:1029CC00431C02D12B6803B1236038BDE003002007
:1029DC0010B50C46B1F90E1000F0B8FA0028ABBFD8
:1029EC00636DA3891B1823F48053ACBF6365A3816B
:1029FC0010BD2DE9F0411F468B890546DB050C46C1
:102A0C00164605D502230022B1F90E1000F0C4F9C8
:102A1C00A389324623F48053A38128463B46B4F95C
:102A2C000E10BDE8F04100F069B810B50C46B1F9D4
:102A3C000E1000F0B1F9431CA38915BF606523F497
:102A4C00805343F48053A38118BFA38110BDB1F907
:102A5C000E1000F0D3B80000F8B50E46144605462B
:102A6C0018B183690BB9FFF781FB214B9C422BD129
:102A7C006C68A369A360A3891A072FD523696BB36C
:102A8C0023692068F6B2C01A63693746834204DCB6
:102A9C002146284600F044F930BBA3680130013BC5
:102AAC00A36023685A1C22601E706369834204D0A1
:102ABC00A389DB0706D50A2E04D12146284600F04F
:102ACC002FF988B93846F8BD0A4B9C4201D1AC6845
:102ADC00CFE7094B9C4208BFEC68CAE72146284661
:102AEC0000F01EF80028CBD04FF0FF37EAE700BF0C
:102AFC0088300008A83000086830000838B5044653
:102B0C00084611460022054D2A601A46FFF7B2F915
:102B1C00431C02D12B6803B1236038BDE0030020B5
:102B2C00324B70B51D6806460C4625B1AB6913B91E
:102B3C002846FFF71BFB2E4B9C420FD16C68A389D8
:102B4C00B4F90C2019072CD4DD0611D409233360F9
:102B5C0042F040034FF0FF30A3813EE0254B9C42F6
:102B6C0001D1AC68EBE7244B9C4208BFEC68E6E76C
:102B7C00580712D5616B41B104F14403994202D05C
:102B8C00304600F09BF900236363A38923F02403F0
:102B9C00A3810023636023692360A38943F00803A6
:102BAC00A38123694BB9A38903F42073B3F5007F88
:102BBC0003D02146304600F027F9A089B4F90C2047
:102BCC0010F001030AD00023A36063695B42A36188
:102BDC00236943B910F08000BAD170BD810758BF8A
:102BEC006369A360F4E70020F7E700BFB40000209E
:102BFC0088300008A83000086830000838B5002379
:102C0C00054D044608462B6000F0D4F9431C02D154
:102C1C002B6803B1236038BDE00300208A89F8B526
:102C2C00054610070C4657D44B68002B04DC0B6C84
:102C3C00002B01DC0020F8BDE66A002EFAD0002340
:102C4C0012F480522F682B6032D0606DA3895A0722
:102C5C0005D56368C01A636B0BB1236CC01A0023D3
:102C6C000246E66A2846216AB047431CA38906D16E
:102C7C0029681D292CD8294ACA40D60728D50022F4
:102C8C0062602269D904226004D5421C01D12B68F0
:102C9C0003B96065616B2F600029CBD004F144034C
:102CAC00994202D0284600F009F900206063C2E77F
:102CBC00216A01232846B047411CC7D12B68002B41
:102CCC00C4D01D2B01D0162B01D12F60B2E7A389E4
:102CDC0043F04003A381AEE70F69002FAAD09307FE
:102CEC0018BF00230E6808BF4B69F61B0F608B6082
:102CFC00002E9FDD33463A462846216AD4F828C078
:102D0C00E047002806DCA3894FF0FF3043F0400376
:102D1C00A38190E70744361AEAE700BF0100402080
:102D2C0038B50B6905460C4613B90025284638BD45
:102D3C0018B183690BB9FFF719FA144B9C421BD1DC
:102D4C006C68B4F90C30002BEFD0626ED00704D451
:102D5C00990502D4A06DFFF7A7FA28462146FFF784
:102D6C005DFF636E0546DA07E0D4A3899B05DDD4CD
:102D7C00A06DFFF79AFAD9E7054B9C4201D1AC68DC
:102D8C00DFE7044B9C4208BFEC68DAE788300008A8
:102D9C00A83000086830000838B5044608461146CB
:102DAC000022054D2A601A4600F01CF9431C02D182
:102DBC002B6803B1236038BDE003002070B50E46CC
:102DCC00B1F90E10144600291D4696B008DA0022FF
:102DDC00B6F90C302A601A0610D44FF480630EE05A
:102DEC006A4600F0C5F80028F1DB019A02F4704243
:102DFC00A2F500535A425A412A60EEE740230020C4
:102E0C00236016B070BD00008B8973B59D07064614
:102E1C000C4607D504F1470323602361012363614A
:102E2C0002B070BD6A4601ABFFF7C8FF00990546BA
:102E3C003046FFF75BFA48B9B4F90C309A05EFD479
:102E4C0023F0030343F00203A381E3E70D4BB362CA
:102E5C00A389206043F08003A381009B2061636100
:102E6C00019B5BB13046B4F90E1000F093F828B119
:102E7C00A38923F0030343F00103A381A089054335
:102E8C00A581CDE711210008034610B5C9B2024453
:102E9C009342184601D1002003E0047801338C42A0
:102EAC00F6D110BD0148FFF7FFB900BFD2030020D7
:102EBC000148FFF7FAB900BFD203002038B5054628
:102ECC00002940D051F8043C0C1F002BB8BFE4186B
:102EDC00FFF7E8FF1C4A136833B963601460284697
:102EEC00BDE83840FFF7E4BFA34208D92068211899
:102EFC008B4201BF19685B6809182160EDE71A461F
:102F0C005B680BB1A342FAD911685018A0420BD1DF
:102F1C0020680144501883421160E0D118685B6846
:102F2C00014411605360DAE702D90C232B60D6E719
:102F3C00206821188B4201BF19685B680918216051
:102F4C0063605460CBE738BDD803002038B5044625
:102F5C00084611460022054D2A601A46FEF7A6FFC8
:102F6C00431C02D12B6803B1236038BDE003002061
:102F7C0038B50023064D0446084611462B6000F078
:102F8C0021F8431C02D12B6803B1236038BD00BF6C
:102F9C00E003002038B50023054D044608462B609D
:102FAC0000F018F8431C02D12B6803B1236038BD24
:102FBC00E00300205822024B4FF0FF301A6070479C
:102FCC00E00300205822024B4FF0FF301A6070478C
:102FDC00E00300205822024B00201A60704700BF0B
:102FEC00E00300205822024B4FF0FF301A6070476C
:102FFC00E0030020044A05491368002B08BF0B4668
:10300C001844106018467047E4030020E8030020C1
:10301C00F8B500BFF8BC08BC9E467047F8B500BFB9
:08302C00F8BC08BC9E46704789
:1030340025640A00000000000000000001020304EF
:103044000607080900000000010203040203040546
:10305400060708090A0B0C0D0E0F101001020000E0
:10306400B800002000000000000000000000000084
:10307400000000000000000000000000000000004C
:10308400000000000000000000000000000000003C
:10309400000000000000000000000000000000002C
:1030A400000000000000000000000000000000001C
:1030B400000000000000000000000000000000000C
:1030C40000000000232D302B2000686C4C00656646
:1030D4006745464700303132333435363738394165
:1030E400424344454600303132333435363738397B
:0830F40061626364656600007F
:0430FC003101000896
:043100000D010008B5
:103104000024F4000100000010000000AE00104094
:10311400B081FFA1A6A83FC8D300D580D805D9F1B6
:10312400DA12D8308D14AF00000000000000000057
:10313400000000000000000000000000000000008B
:10314400000000000000000000000000000000007B
:10315400000000000000000000000000000000006B
:10316400000000000000000000000000000000005B
:10317400000000000000000000000000000000004B
:10318400000000000000000000000000000000003B
:10319400000000000000000000000000000000002B
:1031A400000000000000000000000000000000001B
:1031B40080000000B80000200000000088300008F3
:1031C400A83000086830000800000000000000007B
:1031D40000000000000000000000000000000000EB
:1031E40000000000000000000000000000000000DB
:1031F40000000000000000000000000000000000CB
:1032040000000000000000000000000000000000BA
:083214000000000000000000B2
:0400000508001FE9E7
:00000001FF
