:020000040800F2
:1000000000000320455100086D1200086F1200081F
:100010007112000873120008751200080000000039
:10002000000000000000000000000000B1320008E5
:10003000771200080000000051330008B5330008B3
:1000400095510008955100089551000895510008F8
:1000500095510008955100089551000895510008E8
:100060009551000879120008955100089551000833
:1000700095510008955100089551000895510008C8
:1000800095510008955100089551000895510008B8
:1000900085120008955100089551000895510008F7
:1000A0009551000895510008955100089551000898
:1000B0009551000895510008955100089551000888
:1000C0009551000895510008955100089551000878
:1000D0009551000895510008955100089551000868
:1000E0009551000895510008955100089551000858
:1000F0009551000895510008955100089551000848
:100100009551000895510008955100089551000837
:100110009551000895510008955100089512000866
:100120009551000895510008955100089551000817
:100130009551000895510008955100089551000807
:1001400095510008955100089551000895510008F7
:10015000A512000895510008955100089551000816
:1001600095510008955100089551000895510008D7
:1001700095510008955100089551000800000000B5
:1001800095510008955100089551000895510008B7
:1001900095510008955100089551000895510008A7
:0C01A00000000000000000009551000865
:1001B00010B5054C237833B9044B13B10448AFF3A1
:1001C00000800123237010BD1000002000000000FB
:1001D0000C52000808B5034B1BB103490348AFF3A9
:1001E000008008BD00000000140000200C52000830
:1001F00081F0004102E000BF83F0004330B54FEAD8
:1002000041044FEA430594EA050F08BF90EA020F44
:100210001FBF54EA000C55EA020C7FEA645C7FEAD7
:10022000655C00F0E2804FEA5454D4EB5555B8BFFA
:100230006D420CDD2C4480EA020281EA030382EA6B
:10024000000083EA010180EA020281EA0303362DFD
:1002500088BF30BD11F0004F4FEA01314FF4801CD0
:100260004CEA113102D0404261EB410113F0004FE2
:100270004FEA03334CEA133302D0524263EB430399
:1002800094EA050F00F0A780A4F10104D5F1200E37
:100290000DDB02FA0EFC22FA05F2801841F1000192
:1002A00003FA0EF2801843FA05F359410EE0A5F166
:1002B00020050EF1200E012A03FA0EFC28BF4CF097
:1002C000020C43FA05F3C01851EBE37101F000454D
:1002D00007D54FF0000EDCF1000C7EEB00006EEB5A
:1002E0000101B1F5801F1BD3B1F5001F0CD34908E4
:1002F0005FEA30004FEA3C0C04F101044FEA44523B
:1003000012F5800F80F09A80BCF1004F08BF5FEAC1
:10031000500C50F1000041EB045141EA050130BDA1
:100320005FEA4C0C404141EB0101013C28BFB1F5B3
:10033000801FE9D291F0000F04BF01460020B1FAFE
:1003400081F308BF2033A3F10B03B3F120020CDAD1
:100350000C3208DD02F1140CC2F10C0201FA0CF0AF
:1003600021FA02F10CE002F11402D8BFC2F1200C14
:1003700001FA02F120FA0CFCDCBF41EA0C019040CA
:10038000E41AA2BF01EB0451294330BD6FEA040413
:100390001F3C1CDA0C340EDC04F11404C4F12002FE
:1003A00020FA04F001FA02F340EA030021FA04F310
:1003B00045EA030130BDC4F10C04C4F1200220FA67
:1003C00002F001FA04F340EA0300294630BD21FAA5
:1003D00004F0294630BD94F0000F83F4801306BF6B
:1003E00081F480110134013D4EE77FEA645C18BF5F
:1003F0007FEA655C29D094EA050F08BF90EA020FF6
:1004000005D054EA000C04BF1946104630BD91EAED
:10041000030F1EBF0021002030BD5FEA545C05D1F0
:100420004000494128BF41F0004130BD14F580042F
:100430003CBF01F5801130BD01F0004545F0FE41A3
:1004400041F470014FF0000030BD7FEA645C1ABFD8
:10045000194610467FEA655C1CBF0B46024650EA0F
:10046000013406BF52EA033591EA030F41F400213B
:1004700030BD00BF90F0000F04BF0021704730B5C1
:100480004FF4806404F132044FF000054FF0000196
:1004900050E700BF90F0000F04BF0021704730B557
:1004A0004FF4806404F1320410F0004548BF40422C
:1004B0004FF000013EE700BF42004FEAE2014FEA81
:1004C00031014FEA02701FBF12F07F4393F07F4F5C
:1004D00081F06051704732F07F4208BF704793F05F
:1004E0007F4F04BF41F40021704730B54FF4607472
:1004F00001F0004521F000411CE700BF50EA010275
:1005000008BF704730B54FF000050AE050EA01021D
:1005100008BF704730B511F0004502D5404261EB8D
:1005200041014FF4806404F132045FEA915C3FF4CE
:10053000D8AE4FF003025FEADC0C18BF03325FEA6B
:10054000DC0C18BF033202EBDC02C2F1200300FA1C
:1005500003FC20FA02F001FA03FE40EA0E0021FA41
:1005600002F11444BDE600BF70B54FF0FF0C4CF42F
:10057000E06C1CEA11541DBF1CEA135594EA0C0FE1
:1005800095EA0C0F00F0DEF82C4481EA030621EA1C
:100590004C5123EA4C5350EA013518BF52EA033557
:1005A00041F4801143F4801338D0A0FB02CE4FF009
:1005B0000005E1FB02E506F00042E0FB03E54FF039
:1005C0000006E1FB03569CF0000F18BF4EF0010E31
:1005D000A4F1FF04B6F5007F64F5407404D25FEA2D
:1005E0004E0E6D4146EB060642EAC62141EA5551E0
:1005F0004FEAC52040EA5E504FEACE2EB4F1FD0C22
:1006000088BFBCF5E06F1ED8BEF1004F08BF5FEA9F
:10061000500E50F1000041EB045170BD06F0004651
:1006200046EA010140EA020081EA0301B4EB5C04FE
:10063000C2BFD4EB0C0541EA045170BD41F48011F6
:100640004FF0000E013C00F3AB8014F1360FDEBF1B
:10065000002001F0004170BDC4F10004203C35DAF7
:100660000C341BDC04F11404C4F1200500FA05F37A
:1006700020FA04F001FA05F240EA020001F000421B
:1006800021F0004110EBD37021FA04F642EB060191
:100690005EEA430E08BF20EAD37070BDC4F10C04BB
:1006A000C4F1200500FA04F320FA05F001FA04F27F
:1006B00040EA020001F0004110EBD37041F100016B
:1006C0005EEA430E08BF20EAD37070BDC4F1200576
:1006D00000FA05F24EEA020E20FA04F301FA05F2DE
:1006E00043EA020321FA04F001F0004121FA04F286
:1006F00020EA020000EBD3705EEA430E08BF20EA56
:10070000D37070BD94F0000F0FD101F0004640008F
:1007100041EB010111F4801F08BF013CF7D041EA11
:10072000060195F0000F18BF704703F00046520015
:1007300043EB030313F4801F08BF013DF7D043EAE6
:100740000603704794EA0C0F0CEA135518BF95EA9C
:100750000C0F0CD050EA410618BF52EA4306D1D123
:1007600081EA030101F000414FF0000070BD50EA42
:10077000410606BF1046194652EA430619D094EACC
:100780000C0F02D150EA013613D195EA0C0F05D1B6
:1007900052EA03361CBF104619460AD181EA03010A
:1007A00001F0004141F0FE4141F470014FF00000C2
:1007B00070BD41F0FE4141F4780170BD70B54FF05D
:1007C000FF0C4CF4E06C1CEA11541DBF1CEA1355DD
:1007D00094EA0C0F95EA0C0F00F0A7F8A4EB0504BF
:1007E00081EA030E52EA03354FEA013100F08880B6
:1007F0004FEA03334FF0805545EA131343EA12637F
:100800004FEA022245EA111545EA10654FEA002633
:100810000EF000419D4208BF964244F1FD0404F5EC
:10082000407402D25B084FEA3202B61A65EB030548
:100830005B084FEA32024FF480104FF4002CB6EB05
:10084000020E75EB030E22BFB61A754640EA0C0085
:100850005B084FEA3202B6EB020E75EB030E22BFC5
:10086000B61A754640EA5C005B084FEA3202B6EB06
:10087000020E75EB030E22BFB61A754640EA9C00C5
:100880005B084FEA3202B6EB020E75EB030E22BF95
:10089000B61A754640EADC0055EA060E18D04FEA53
:1008A000051545EA16754FEA06164FEAC30343EAF3
:1008B00052734FEAC2025FEA1C1CC0D111F4801FC0
:1008C0000BD141EA00014FF000004FF0004CB6E7B9
:1008D00011F4801F04BF01430020B4F1FD0C88BF58
:1008E000BCF5E06F3FF6AFAEB5EB030C04BFB6EB63
:1008F000020C5FEA500C50F1000041EB045170BD56
:100900000EF0004E4EEA113114EB5C04C2BFD4EB82
:100910000C0541EA045170BD41F480114FF0000E06
:10092000013C90E645EA060E8DE60CEA135594EA82
:100930000C0F08BF95EA0C0F3FF43BAF94EA0C0F85
:100940000AD150EA01347FF434AF95EA0C0F7FF4FA
:1009500025AF104619462CE795EA0C0F06D152EA4E
:1009600003353FF4FDAE1046194622E750EA410632
:1009700018BF52EA43067FF4C5AE50EA41047FF443
:100980000DAF52EA43057FF4EBAE12E74FF0FF3CA8
:1009900006E000BF4FF0010C02E000BF4FF0010C79
:1009A0004DF804CD4FEA410C7FEA6C5C4FEA430CF2
:1009B00018BF7FEA6C5C1BD001B050EA410C0CBF41
:1009C00052EA430C91EA030F02BF90EA020F0020A3
:1009D000704710F1000F91EA030F58BF994208BF0A
:1009E00090422CBFD8176FEAE37040F001007047C7
:1009F0004FEA410C7FEA6C5C02D150EA013C07D11E
:100A00004FEA430C7FEA6C5CD6D152EA033CD3D068
:100A10005DF8040B704700BF8446104662468C4662
:100A20001946634600E000BF01B5FFF7B7FF002895
:100A300048BF10F1000F01BD4DF808EDFFF7F4FFBE
:100A40000CBF012000205DF808FB00BF4DF808ED49
:100A5000FFF7EAFF34BF012000205DF808FB00BF6C
:100A60004DF808EDFFF7E0FF94BF012000205DF88E
:100A700008FB00BF4DF808EDFFF7CEFF94BF012043
:100A800000205DF808FB00BF4DF808EDFFF7C4FF3C
:100A900034BF012000205DF808FB00BF4FEA41028F
:100AA000B2F1E04324BFB3F5001CDCF1FE5C0DD9CC
:100AB00001F0004C4FEAC0024CEA5070B2F1004F16
:100AC00040EB830008BF20F00100704711F0804F19
:100AD00021D113F13872BCBF01F00040704741F4DE
:100AE00080114FEA5252C2F11802C2F1200C10FAE2
:100AF0000CF320FA02F018BF40F001004FEAC123C6
:100B00004FEAD32303FA0CFC40EA0C0023FA02F369
:100B10004FEA4303CCE77FEA625307D150EA01333F
:100B20001EBF4FF0FE4040F44000704701F000400F
:100B300040F0FE4040F40000704700BF53B94AB98E
:100B4000002908BF00281CBF4FF0FF314FF0FF30D5
:100B500000F074B9ADF1080C6DE904CE00F006F8B0
:100B6000DDF804E0DDE9022304B070472DE9F04729
:100B7000089D04468E46002B4DD18A42944669D981
:100B8000B2FA82F252B101FA02F3C2F1200120FA64
:100B900001F10CFA02FC41EA030E94404FEA1C48B2
:100BA000210CBEFBF8F61FFA8CF708FB16E341EAAE
:100BB000034306FB07F199420AD91CEB030306F134
:100BC000FF3080F01F81994240F21C81023E634455
:100BD0005B1AA4B2B3FBF8F008FB103344EA0344F9
:100BE00000FB07F7A7420AD91CEB040400F1FF330E
:100BF00080F00A81A74240F207816444023840EA4B
:100C00000640E41B00261DB1D4400023C5E9004383
:100C10003146BDE8F0878B4209D9002D00F0EF8006
:100C20000026C5E9000130463146BDE8F087B3FA39
:100C300083F6002E4AD18B4202D3824200F2F98021
:100C4000841A61EB030301209E46002DE0D0C5E924
:100C5000004EDDE702B9FFDEB2FA82F2002A40F070
:100C60009280A1EB0C014FEA1C471FFA8CFE012673
:100C7000200CB1FBF7F307FB131140EA01410EFB17
:100C800003F0884208D91CEB010103F1FF3802D2BE
:100C9000884200F2CB804346091AA4B2B1FBF7F0B8
:100CA00007FB101144EA01440EFB00FEA64508D9DB
:100CB0001CEB040400F1FF3102D2A64500F2BB8018
:100CC0000846A4EB0E0440EA03409CE7C6F1200767
:100CD000B34022FA07FC4CEA030C20FA07F401FAAD
:100CE00006F31C43F9404FEA1C4900FA06F3B1FB36
:100CF000F9F8200C1FFA8CFE09FB181140EA01419B
:100D000008FB0EF0884202FA06F20BD91CEB010137
:100D100008F1FF3A80F08880884240F28580A8F18F
:100D200002086144091AA4B2B1FBF9F009FB1011E1
:100D300044EA014100FB0EFE8E4508D91CEB01017F
:100D400000F1FF346CD28E456AD90238614440EA22
:100D50000840A0FB0294A1EB0E01A142C846A646A2
:100D600056D353D05DB1B3EB080261EB0E0101FA2B
:100D700007F722FA06F3F1401F43C5E90071002688
:100D80003146BDE8F087C2F12003D8400CFA02FCDE
:100D900021FA03F3914001434FEA1C471FFA8CFEEE
:100DA000B3FBF7F007FB10360B0C43EA064300FBDE
:100DB0000EF69E4204FA02F408D91CEB030300F17C
:100DC000FF382FD29E422DD9023863449B1B89B233
:100DD000B3FBF7F607FB163341EA034106FB0EF3BC
:100DE0008B4208D91CEB010106F1FF3816D28B4269
:100DF00014D9023E6144C91A46EA004638E72E4635
:100E0000284605E70646E3E61846F8E64B45A9D22C
:100E1000B9EB020864EB0C0E0138A3E74646EAE79B
:100E2000204694E74046D1E7D0467BE7023B614449
:100E300032E7304609E76444023842E7704700BFB2
:100E400008B50C480C4B0360092343600023836002
:100E5000C3604FF4003202614361037643768376C8
:100E6000C3760377437700F0D3FA00B908BD00F0EA
:100E70001BF9FBE72C0000200064004010B588B08F
:100E80000023039304930593069307930268184B7A
:100E90009A4201D008B010BD0024019403F5EA3352
:100EA0001A6C42F000721A641A6C02F0007201921D
:100EB000019A02941A6B42F008021A631B6B03F04A
:100EC00008030293029B03230393022204920693D6
:100ED0000923079303A9074801F0ECF822460521EE
:100EE000142000F097FE142000F0CCFED2E700BFE3
:100EF00000640040000C024000B583B00022019263
:100F0000094B196B41F4800119631B6B03F48003D7
:100F10000193019B0521442000F07CFE442000F059
:100F2000B1FE03B05DF804FB00380240034B0360E0
:100F3000034B0B6080231360704700BF58020020F2
:100F40005800002010B588B00DF1040C074C0FCCF0
:100F5000ACE80F0094E807008CE80700002101A826
:100F600002F0CDF8024B186008B010BD2452000802
:100F700054000020F0B58DB0002407940894099423
:100F80000A940B9400943E4B1A6B42F001021A63D0
:100F90001A6B02F001020092009A01941A6B42F05F
:100FA00002021A631A6B02F002020192019A029481
:100FB0001A6B42F008021A631A6B02F008020292DE
:100FC000029A03941A6B42F080021A631A6B02F0C1
:100FD00080020392039A04941A6B42F004021A638B
:100FE0001A6B02F004020492049A05941A6B42F000
:100FF00010021A631A6B02F010020592059A069409
:101000001A6B42F020021A631B6B03F02003069355
:10101000069B1C4F01224FF40061384601F048F94D
:10102000194D01224FF48041284601F041F908236F
:1010300007934FF488130893099407A9134801F004
:1010400039F84FF4006307930126089609940A942F
:1010500007A9384601F02EF84FF48043079308960D
:1010600009940A9407A9284601F024F8224605218C
:10107000092000F0CFFD092000F004FE0DB0F0BD06
:1010800000380240001002400014024000080240F4
:1010900008B50268034B9A4200D008BD00F0A6F9DB
:1010A000FBE700BF0014004072B6FEE700B595B044
:1010B0003022002108A804F0A1F800230393049330
:1010C0000593069307930193234A116C41F08051D5
:1010D0001164126C02F080520192019A02931F4B2C
:1010E0001A6842F440421A601B6803F440430293BA
:1010F000029B012308934FF48033099302230E933C
:101100004FF480020F9206221092B4221192129391
:101110000423139308A801F01FF9B0B901F0DEF819
:10112000A8B90F23039302230493002305934FF4DC
:10113000A05306934FF480530793052103A801F0B1
:1011400059FB30B915B05DF804FBFFF7ADFFFFF7B1
:10115000ABFFFFF7A9FF00BF00380240007000405E
:1011600008B500F029F9FFF7A1FFFFF703FFFFF72C
:10117000C3FEFFF765FE00F0A7F8FFF7E3FE01F0FE
:10118000B9FFFEE700B583B0002200920D4B596C09
:1011900041F480415964596C01F4804100910099F7
:1011A0000192196C41F0805119641B6C03F080535B
:1011B0000193019B0F216FF0010000F02BFD03B0A4
:1011C0005DF804FB0038024030B589B004460023C6
:1011D0000193214B1A6C42F020021A641B6C03F03D
:1011E00020030193019B02A903A801F0D9FB069BF0
:1011F000CBB901F0B5FB03461848A0FB03239B0CB9
:10120000013B1748174A026040F2E732C260436070
:10121000002303618360836101F04CFD054630B11A
:10122000284609B030BD01F09BFB4300E4E70C48C1
:1012300001F0D6FB05460028F2D1372000F022FD50
:101240000F2C01D90125EBE700222146372000F0C1
:10125000E1FC054B1C60E3E70038024083DE1B43E2
:10126000B00200200014004008000020FEE7FEE766
:10127000FEE7FEE7FEE7704708B5082001F020F81A
:1012800008BD000008B5024800F08CFB08BD00BF97
:101290002C00002008B5024801F0EAFB08BD00BFA1
:1012A000B002002008B5024800F016FE08BD00BFDD
:1012B000F8020020034AD2F8883043F47003C2F8E1
:1012C0008830704700ED00E008B50B480B4B036019
:1012D0000B4B436000238360C3604FF48062026164
:1012E0000C2242618361C36101F0D8FD00B908BDE1
:1012F000FFF7DAFEFBE700BF5803002000100140B3
:10130000A086010030B589B00023039304930593B0
:1013100006930793026803F1804303F588339A42EA
:1013200001D009B030BD04460025019503F5943382
:101330005A6C42F010025A645A6C02F01002019288
:10134000019A02951A6B42F002021A631B6B03F0BA
:1013500002030293029BC0230393022304930323FB
:1013600006930723079303A9104800F0A3FE104833
:10137000104B03604FF0006343608560C5604FF41D
:1013800080630361456185614FF48073C3614FF4ED
:1013900040330362456200F003FD18B9044BA363B8
:1013A0009C63BEE7FFF780FEF8E700BF0004024041
:1013B000F80200208864024008B50B4B1A6842F41A
:1013C00000721A601A6842F480621A601A6842F465
:1013D00080721A60032000F00BFC0F20FFF7F4FE70
:1013E000FFF7D0FE002008BD003C0240034A116810
:1013F000034B1B780B441360704700BF9C03002015
:1014000004000020014B1868704700BF9C030020B7
:10141000002800F0A18038B5044690F82030D3B100
:101420002268136843F001031360FFF7EBFF0546E2
:1014300023685A6812F0010F10D1FFF7E3FF401B39
:101440000A28F5D9636A43F400336362052384F8FC
:101450002030012038BDFFF711FDE1E71A6822F0C6
:1014600002021A60FFF7CEFF054623685A6812F0A1
:10147000020F0DD0FFF7C6FF401B0A28F5D9636A9B
:1014800043F400336362052384F820300120E1E750
:10149000227E012A3DD01A6822F080021A60637E03
:1014A000012B3BD02268136823F040031360A37E16
:1014B000012B39D02268136823F020031360E37EE8
:1014C000012B37D02268136843F010031360237F89
:1014D000012B35D02268136823F008031360637F63
:1014E000012B33D02268136823F004031360A36830
:1014F000E268134322691343626913436268013A45
:1015000021681343CB6100206062012384F82030FE
:10151000A0E71A6842F080021A60C0E722681368E8
:1015200043F040031360C2E72268136843F02003CE
:101530001360C4E72268136823F010031360C6E742
:101540002268136843F008031360C8E72268136831
:1015500043F004031360CAE70120704790F820307D
:10156000013BDBB2012B05D9436A43F4802343627C
:101570000120704730B5464BD3F8002242F00102FB
:10158000C3F80022D3F8002222F47C52C3F80022D0
:10159000D3F80022486A42EA0022C3F800224A69CE
:1015A00002F01F02012000FA02F2D3F81C026FEAD7
:1015B000020C20EA0200C3F81C02CB69C3B9344B09
:1015C000D3F80C020CEA0000C3F80C028C884869BE
:1015D000CD6844EA0544483043F830408C680888B8
:1015E00040EA04404C6904F1480E03EBCE03586016
:1015F000CB69012B1ED08B69002B33D12448D0F846
:1016000004320CEA0303C0F804320B698BBB204898
:10161000D0F814320CEA0303C0F814320B6A012B21
:101620002ED01B4AD2F8003223F00103C2F8003258
:10163000002030BD164BD3F80C021043C3F80C0247
:101640008C8848690D6844EA0544483043F83040C6
:1016500088894C698D6840EA0540483403EBC4032F
:101660005860C8E70A48D0F804321343C0F804327F
:10167000CBE70748D0F814321343C0F81432CDE753
:101680000349D1F81C321A43C1F81C22C9E700BF34
:101690000064004070B5044690F82050EDB2012D72
:1016A00006D0436A43F4002343620125284670BDF7
:1016B000022380F820300268136823F001031360CE
:1016C000FFF7A0FE064623685B6813F0010F0CD0FD
:1016D000FFF798FE831B0A2BF5D9636A43F40033A6
:1016E0006362052384F82030E0E700256562DDE7CA
:1016F00030B590F820C00468A4680CF1FF3C5FFA94
:101700008CFCBCF1010F6BD814F0E05F62D0C4F325
:10171000016CBCF1020F05D9436A43F40003436234
:10172000012062E0012404FA0CF41C608B68002B99
:101730003DD10D68CB68046843EA45550CF11803A8
:101740001B01E55003680C690CF1180E03EB0E1336
:101750005C600B7D012B35D0D17993791B0443EA72
:101760000163517943EA012314790168234301EBB2
:101770000C11C1F88C31D17893781B0443EA0163D2
:10178000517843EA0123117802680B4302EB0C12F3
:10179000C2F8883102680CF1180C4FEA0C1C52F8A0
:1017A0000C3043F0010342F80C3000201DE04C687F
:1017B00043EAC403CC6823430CF1180424010568F0
:1017C0002B51BFE7036803EB0E13596841F4807196
:1017D0005960C1E7436A43F400134362012004E007
:1017E000436A43F480234362012030BD90F82030E7
:1017F000013BDBB2012B01D90020704703689868D8
:1018000010F0806000D001209A6812F0006F00D0C4
:1018100001309B6813F0805FEFD00130704790F883
:1018200020C00CF1FF3C5FFA8CFCBCF1010F00F210
:10183000958030B451B90468E46814F0030F10D1F6
:10184000436A43F400134362012077E0046824698B
:1018500014F0030F05D1436A43F4001343620120DF
:101860006CE001F11B04240105682C5904F0040408
:101870009460002C64D101F11B04240105682C59EB
:10188000640D1460046801F11B0C4FEA0C1C54F841
:101890000C4004F00204D46004686444646804F0FA
:1018A0000F041461046864446468C4F307249461F9
:1018B000046864446468240C5461026802EB0112F9
:1018C000D2F8B8211A70026802EB0112D2F8B821DE
:1018D000C2F307225A70026802EB0112D2F8B82153
:1018E000C2F307429A70026802EB0112D2F8B821E3
:1018F000120EDA70026802EB0112D2F8BC211A71E2
:10190000026802EB0112D2F8BC21C2F307225A711D
:10191000026802EB0112D2F8BC21C2F307429A71AD
:10192000026802EB0112D2F8BC21120EDA7179B909
:101930000268D36843F02003D360002030BC7047B6
:1019400001F11B04240105682C59E408546099E74F
:101950000268136943F020031361EEE7436A43F41E
:10196000802343620120704790F82030013BDBB2B6
:10197000012B05D9436A43F4802343620120704759
:1019800002685369194351610020704770477047DE
:10199000704770477047704770477047704770478F
:1019A000704770472DE9F84F054603685C69D3F826
:1019B00004809F68D3F80CB0D3F810A0D3F8189027
:1019C00014F001063BD017F0010616D001229A60F0
:1019D00017F0020F08D117F0040F0CD117F008060A
:1019E00006D04FF4805608E0FFF7D0FF002604E051
:1019F000FFF7CFFF01E04FF4006617F4807F0DD0B2
:101A00002B684FF480729A6017F4007F40F0868054
:101A100017F4806F00F0868046F4005617F4803F7C
:101A20000DD02B684FF480329A6017F4003F40F0DD
:101A3000838017F4802F00F0838046F4004614F072
:101A4000080F07D01BF0100F04D046F400762B6867
:101A50001022DA6014F0040F02D01BF0080F79D1C5
:101A600014F0020F04D02B68DB6813F0030F78D159
:101A700014F0400F07D01AF0100F04D046F480661F
:101A80002B6810221A6114F0200F02D01AF0080FF0
:101A90006BD114F0100F04D02B681B6913F0030FE7
:101AA0006AD114F4003F02D018F0100F68D114F47A
:101AB000803F02D018F0080F69D114F4004F7AD09B
:101AC00018F0040F74D014F4807F04D019F0010FC3
:101AD00001D046F0010614F4007F04D019F0020F83
:101AE00001D046F0020614F4806F04D019F0040F00
:101AF00001D046F0040614F4006F59D019F07009B3
:101B000056D0B9F1400F65D058D8B9F1200F5ED04A
:101B1000B9F1300F42D146F0200644E02846FFF7E5
:101B200036FF7BE717F4006F02D046F4804675E776
:101B30002846FFF72FFF71E72846FFF729FF7EE7CA
:101B400017F4002F02D046F4803678E72846FFF7D6
:101B500022FF74E72B680822DA602846FFF71CFF93
:101B60007EE7284603F036F982E72B6808221A61DF
:101B70002846FFF713FF8CE72846FFF70EFF90E794
:101B80002B6810225A602846FFF709FF8FE72B6861
:101B900008225A602846FFF703FF8EE7B9F1100FBD
:101BA00001D146F008062A68936923F07003936117
:101BB0002B6804225A609EB9BDE8F88FB9F1500F26
:101BC0000BD0B9F1600FEED146F48076EBE746F02A
:101BD0001006E8E746F04006E5E746F08006E2E753
:101BE0006B6A1E436E622846FFF7DBFEE4E70000E7
:101BF000074AD36823F4E0631B041B0C000200F4C3
:101C0000E060034343F0BF6343F40033D3607047A5
:101C100000ED00E000B5194BDB68C3F30223C3F10C
:101C2000070CBCF1040F28BF4FF0040C03F1040EA5
:101C3000BEF1060F18D9033B4FF0FF3E0EFA0CFC25
:101C400021EA0C0199400EFA03F322EA0303194337
:101C500000280BDB0901C9B200F1604000F56140CA
:101C600080F800135DF804FB0023E5E700F00F00A7
:101C70000901C9B2024B1954F4E700BF00ED00E0BE
:101C800014ED00E0002807DB00F01F0240090123EB
:101C90009340024A42F82030704700BF00E100E064
:101CA00030B405682C6824F480242C6004686360D8
:101CB0008368402B05D0036899600368DA6030BC04
:101CC000704703689A600368D960F8E710B4036846
:101CD000D9B210390C4AA2FB014212090B4CA25C8A
:101CE000C2655F2909D923F47F7323F0030304330A
:101CF0008365806D5DF8044B704723F47F7323F098
:101D000003038365F5E700BFABAAAAAA9C520008AB
:101D1000836A826992B9012B0AD0022B02D00BB1DF
:101D200000207047C36A13F0807F28D100207047DD
:101D3000C36AB3F1C07F24D000207047B2F5005FC2
:101D400009D0022B25D9032B25D1C36A13F0807F3C
:101D500023D100207047032B03D8DFE803F01404DD
:101D6000140A00207047C36A13F0807F0DD1002051
:101D70007047C36AB3F1C07F09D0002070470120CB
:101D800070470120704701207047012070470120F3
:101D90007047012070470020704701207047000005
:101DA00070B50446FFF72EFB002C5BD005460223DE
:101DB00084F83530002384F834302268136823F027
:101DC0000103136023681A6812F0010F0AD0FFF7AD
:101DD00019FB431B052BF5D920236365032084F8E9
:101DE000350070BD1A68204810406168A2680A4337
:101DF000E1680A4321690A4361690A43A1690A4308
:101E0000E1690A43216A0A430243616A04291ED038
:101E10001A602668756925F00705636A1D43042B5F
:101E200007D1A36A1D43E36A1BB12046FFF770FF89
:101E300090B975612046FFF749FFE26D3F2393405B
:101E4000836000206065012384F83530C9E7E16ACA
:101E5000206B01430A43DBE740236365012084F8DC
:101E60003500BEE70120BCE73F8010F038B50446DE
:101E7000856D90F8340001282BD0012084F83400BF
:101E800094F83500C0B2012804D0002384F834301F
:101E9000022038BD022084F835000020606520460D
:101EA000FFF7FEFEE26D3F239340AB6022681368AC
:101EB00043F016031360236C23B12268136843F0C8
:101EC000080313602268136843F0010313600020C5
:101ED000DFE70220DDE70000F0B583B00446002311
:101EE0000193724B1D68724BA3FB0535AD0A876DDC
:101EF0003E68C26D08239340334210D003681A68CD
:101F000012F0040F0BD01A6822F004021A60C26D9E
:101F100008239340BB60436D43F001034365E26DCA
:101F200001239340334209D02268526912F0800F96
:101F300004D0BB60636D43F002036365E26D04236C
:101F40009340334209D02268126812F0020F04D085
:101F5000BB60636D43F004036365E26D102393403F
:101F6000334224D02268126812F0080F1FD0BB60E1
:101F700023681A6812F4802F0DD01B6813F4002F09
:101F800004D1236C9BB12046984710E0A36C73B139
:101F9000204698470BE01A6812F4807F03D11A6834
:101FA00022F008021A60236C0BB120469847E26DBC
:101FB00020239340334255D02268126812F0100F4C
:101FC00050D0BB6094F83530DBB2052B0ED02368BF
:101FD0001A6812F4802F33D01B6813F4002F2AD113
:101FE000636C002B3ED0204698473BE02268136884
:101FF00023F0160313602268536923F080035361B2
:10200000236CA3B12268136823F008031360E26D08
:102010003F239340BB60012384F83530002384F8CC
:102020003430236D002B3FD0204698473CE0A36C12
:10203000002BE7D1EBE7E36BA3B12046984711E013
:102040001A6812F4807F09D11A6822F010021A600F
:10205000012384F83530002384F83430E36B0BB16E
:1020600020469847636DFBB1636D13F0010F17D0E5
:10207000052384F835302268136823F001031360C8
:10208000019B01330193AB4204D823681B6813F012
:10209000010FF5D1012384F83530002384F8343062
:1020A000E36C0BB12046984703B0F0BD0000002060
:1020B000B5814E1B00230F2B00F2F18070B582B06A
:1020C00061E085685E000324B44025EA0405CC681D
:1020D000B4402C438460456825EA02054C68C4F38B
:1020E00000129A402A4342605BE0DC08083450F852
:1020F000246003F0070295000F22AA4026EA020E90
:102100000A69AA4042EA0E0240F824205DE0092252
:1021100000E0002202FA0EF22A430234604D45F834
:102120002420604A94686FEA0C0224EA0C054E6889
:1021300016F4801F01D04CEA04055A4CA560E468EF
:1021400002EA04054E6816F4001F01D04CEA0405AB
:10215000544CE560646802EA04054E6816F4003FDA
:1021600001D04CEA04054F4C6560246822404D685C
:1021700015F4803F01D04CEA04024A4C226001333E
:102180000F2B00F28A8001229A400C6804EA020CAC
:1021900032EA0404F3D14C6804F00304013C012C3E
:1021A0008FD94A6802F00302032A09D0C4685D008F
:1021B0000322AA4024EA02048A68AA402243C26099
:1021C0004A6802F00302022A8FD004684FEA430EE5
:1021D000032202FA0EF224EA02044A6802F0030221
:1021E00002FA0EF2224302604A6812F4403FC6D05F
:1021F000002201922C4A546C44F480445464526C82
:1022000002F480420192019A9C08A51C244A52F8CB
:10221000255003F003024FEA820E0F2202FA0EF25B
:1022200025EA0205214A90423FF473AF02F580622D
:10223000904222D002F58062904220D002F5806266
:1022400090421ED002F5806290421CD002F580625E
:1022500090421AD002F58062904218D002F5806256
:10226000904216D002F58062904214D002F580624E
:1022700090423FF44CAF0A224CE701224AE7022287
:1022800048E7032246E7042244E7052242E7062204
:1022900040E707223EE708223CE702B070BD7047E6
:1022A00000380140003C014000380240000002407C
:1022B0000AB181617047090481617047704700006D
:1022C00008B5054B5B69034200D108BD024B58615C
:1022D000FFF7F4FFF9E700BF003C014010B582B002
:1022E00000230193194B1A6C42F080521A641B6C44
:1022F00003F080530193019B154B01221A64FFF7F1
:1023000081F80446134B5B6813F4803F08D1FFF754
:1023100079F8001BB0F57A7FF4D9032002B010BD24
:102320000B4B01225A64FFF76DF80446094B5B68BA
:1023300013F4003F07D1FFF765F8001BB0F57A7F73
:10234000F4D90320EAE70020E8E700BF00380240A4
:1023500000000E4200700040002800F0E08170B5DF
:1023600082B00446036813F0010F3BD09F4B9B687B
:1023700003F00C03042B2CD09C4B9B6803F00C0344
:10238000082B21D06368B3F5803F4FD0B3F5A02F61
:1023900052D0964B1A6822F480321A601A6822F4DE
:1023A00080221A606368002B50D0FFF72BF8054697
:1023B0008E4B1B6813F4003F14D1FFF723F8401B2A
:1023C0006428F5D90320B1E1884B5B6813F4800FD2
:1023D000D8D0864B1B6813F4003F03D06368002BF2
:1023E00000F09F81236813F0020F54D07F4B9B684D
:1023F00013F00C0F3ED07D4B9B6803F00C03082BB1
:1024000033D0E368002B68D0794B01221A60FEF7C5
:10241000F9FF0546754B1B6813F0020F54D1FEF708
:10242000F1FF401B0228F5D903207FE16F4A1368B2
:1024300043F480331360B5E76C4B1A6842F4802292
:102440001A601A6842F480321A60ABE7FEF7DAFFCE
:102450000546664B1B6813F4003FC3D0FEF7D2FF5E
:10246000401B6428F5D9032060E1604B5B6813F4DE
:10247000800FC6D15D4B1B6813F0020F03D0E368D9
:10248000012B40F05081594A136823F0F803216969
:1024900043EAC1031360236813F0080F42D0636955
:1024A0006BB3534B0122C3F8802EFEF7ABFF0546FA
:1024B0004E4B5B6F13F0020F34D1FEF7A3FF401BAE
:1024C0000228F5D9032031E1484A136823F0F803C4
:1024D000216943EAC1031360DDE7454B00221A601E
:1024E000FEF790FF0546414B1B6813F0020FD2D058
:1024F000FEF788FF401B0228F5D9032016E13C4B6C
:102500000022C3F8802EFEF77DFF0546374B5B6F38
:1025100013F0020F06D0FEF775FF401B0228F5D915
:10252000032003E1236813F0040F77D02F4B1B6CBB
:1025300013F0805F33D1002301932C4B1A6C42F0CF
:1025400080521A641B6C03F080530193019B012598
:10255000284B1B6813F4807F23D0A368012B34D051
:10256000052B38D0214B1A6F22F001021A671A6F1F
:1025700022F004021A67A368002B3DD0FEF742FF49
:1025800006461A4B1B6F13F0020F46D1FEF73AFFB7
:10259000801B41F288339842F3D90320C6E000251E
:1025A000D6E7144A136843F480731360FEF72AFFDA
:1025B0000646104B1B6813F4807FCED1FEF722FF36
:1025C000801B0228F5D90320B0E0084A136F43F0BE
:1025D00001031367CFE7054B1A6F42F004021A6735
:1025E0001A6F42F001021A67C5E700BF00380240C7
:1025F0000000474200700040FEF704FF0646524BC1
:102600001B6F13F0020F08D0FEF7FCFE801B41F297
:1026100088339842F3D9032088E0EDB9A369002BF1
:1026200000F08380484A926802F00C02082A51D0D8
:10263000022B17D0454B00221A66FEF7E3FE044634
:10264000414B1B6813F0007F42D0FEF7DBFE001BFE
:102650000228F5D9032069E03B4A136C23F080532C
:102660001364DBE7394B00221A66FEF7CBFE054602
:10267000354B1B6813F0007F06D0FEF7C3FE401BEE
:102680000228F5D9032051E0E369226A1343626A04
:1026900043EA8213A26A5208013A43EA0243E26A19
:1026A00043EA0263284A5360284B01221A66FEF768
:1026B000A9FE0446244B1B6813F0007F06D1FEF7E9
:1026C000A1FE001B0228F5D903202FE000202DE0F9
:1026D00000202BE0012B2BD01B4B5B6803F4800107
:1026E000E269914226D103F03F02216A8A4223D156
:1026F000616A47F6C0721A40B2EB811F1ED103F423
:102700004031A26A5208013AB1EB024F18D103F0EE
:102710007063E26AB3EB026F14D1002006E001207F
:102720007047012002E0012000E0002002B070BDEF
:102730000120FBE70120F9E70120F7E70120F5E799
:102740000120F3E70120F1E7003802400000474292
:1027500008B5254B9B6803F00C03042B3FD0082BD6
:102760003FD1214B5A6802F03F025B6813F4800F9F
:1027700012D01D4B5968C1F388111C480023A1FBDE
:102780000001FEF7DBF9184B5B68C3F3014301332B
:102790005B00B0FBF3F025E0134B5968C1F3881CD4
:1027A0004FEA4C11B1EB0C006EEB0E0E4FEA8E139C
:1027B00043EA90638101091A63EB0E03DB0043EAED
:1027C0005173C90011EB0C0C43F100039902002373
:1027D0004FEA8C2041EA9C51FEF7B0F9D3E7034859
:1027E00000E0034808BD00BF00380240001BB700EE
:1027F0000024F400002800F09B8070B50D460446CC
:102800004F4B1B6803F00F038B4208D2CBB24C4AEC
:102810001370136803F00F038B4240F08B80236822
:1028200013F0020F17D013F0040F04D0454A936839
:1028300043F4E0539360236813F0080F04D0414A37
:10284000936843F4604393603E4A936823F0F00337
:10285000A1680B439360236813F0010F32D06368C3
:10286000012B21D09A1E012A25D9364A126812F06E
:10287000020F61D033498A6822F0030213438B6050
:10288000FEF7C0FD06462F4B9B6803F00C03626801
:10289000B3EB820F16D0FEF7B5FD801B41F28833F3
:1028A0009842F0D9032042E0264A126812F4003F11
:1028B000E0D101203BE0234A126812F0007FD9D119
:1028C000012034E01E4B1B6803F00F03AB4207D915
:1028D000EAB21B4B1A701B6803F00F03AB422DD1F9
:1028E000236813F0040F06D0164A936823F4E053CC
:1028F000E1680B439360236813F0080F07D0114A77
:10290000936823F46043216943EAC1039360FFF7AE
:102910001FFF0C4B9B68C3F303130B4AD35CD840D7
:102920000A4B18600A4B1868FEF74EFC002070BD79
:10293000012070470120FAE70120F8E70120F6E7BF
:10294000003C024000380240845200080000002091
:1029500008000020014B1868704700BF00000020ED
:1029600008B5FFF7F7FF044B9B68C3F38223034AC4
:10297000D35CD84008BD00BF003802409452000824
:1029800008B5FFF7E7FF044B9B68C3F34233034AE4
:10299000D35CD84008BD00BF003802409452000804
:1029A0000F2303600B4B9A6802F0030242609A689F
:1029B00002F0F00282609A6802F4E052C2609B6802
:1029C000DB0803F4E0530361034B1B6803F00F03C0
:1029D0000B60704700380240003C02407047000026
:1029E00090F83D30DBB2012B37D1022380F83D3027
:1029F0000268D36843F00103D3600368194A934225
:102A000020D0B3F1804F1DD0A2F57C42934219D063
:102A100002F58062934215D002F58062934211D094
:102A200002F5784293420DD002F57052934209D0DC
:102A3000A2F59432934205D01A6842F001021A605E
:102A4000002070479A6802F00702062A07D01A6829
:102A500042F001021A6000207047012070470020F8
:102A6000704700BF000001407047704770477047D3
:102A700010B5044603681A6912F0020F11D0DA6823
:102A800012F0020F0DD06FF002021A6101230377DA
:102A900003689B6913F0030F70D0FFF7E6FF002374
:102AA000237723681A6912F0040F12D0DA6812F043
:102AB000040F0ED06FF004021A61022323772368FB
:102AC0009B6913F4407F5FD02046FFF7CEFF0023C1
:102AD000237723681A6912F0080F12D0DA6812F00F
:102AE000080F0ED06FF008021A61042323772368C1
:102AF000DB6913F0030F4ED02046FFF7B6FF00232B
:102B0000237723681A6912F0100F12D0DA6812F0D6
:102B1000100F0ED06FF010021A610823237723687C
:102B2000DB6913F4407F3DD02046FFF79EFF002372
:102B3000237723681A6912F0010F03D0DA6812F0C4
:102B4000010F36D123681A6912F0800F03D0DA68BA
:102B500012F0800F34D123681A6912F0400F03D0AD
:102B6000DA6812F0400F32D123681A6912F0200F90
:102B700003D0DA6812F0200F30D110BDFFF774FFD8
:102B80002046FFF773FF8AE72046FFF76DFF2046D8
:102B9000FFF76CFF9BE72046FFF766FF2046FFF735
:102BA00065FFACE72046FFF75FFF2046FFF75EFFBB
:102BB000BDE76FF001021A612046FEF769FAC1E72E
:102BC0006FF080021A61204600F0A1F8C3E76FF0B1
:102BD00040021A612046FFF74AFFC5E76FF0200266
:102BE0001A61204600F092F8C7E700000368304AF7
:102BF000904212D0B0F1804F0FD0A2F57C429042AB
:102C00000BD002F58062904207D002F580629042BC
:102C100003D002F57842904203D123F070034A6852
:102C20001343234A90422AD0B0F1804F27D0A2F517
:102C30007C42904223D002F5806290421FD002F580
:102C4000806290421BD002F57842904217D002F584
:102C50007052904213D002F5806290420FD002F57C
:102C6000806290420BD0A2F59832904207D002F5D4
:102C70008062904203D002F58062904203D123F437
:102C80004073CA68134323F080034A691343036007
:102C90008B68C3620B688362054B984203D003F5CF
:102CA0008063984201D10B6903630123436170473C
:102CB0000000014040B310B5044690F83D30F3B138
:102CC000022384F83D30214651F8040BFFF78EFFB4
:102CD000012384F8463084F83E3084F83F3084F88D
:102CE000403084F8413084F8423084F8433084F82E
:102CF000443084F8453084F83D30002010BD80F821
:102D00003C30FFF76BFEDBE70120704770477047F0
:102D1000026802F10C0353E8003F23F0C0030C32B9
:102D200042E800310029F3D1202380F83D3070477C
:102D3000026802F10C0353E8003F23F490730C3255
:102D400042E800310029F3D1026802F1140353E88C
:102D5000003F23F00103143242E800310029F3D18F
:102D6000036B012B05D0202380F83E300023036342
:102D70007047026802F10C0353E8003F23F0100390
:102D80000C3242E800310029F3D1ECE738B50446B3
:102D90000268136923F44053C1680B4313618368CD
:102DA0000269134342691343C2691A430168CB683D
:102DB00023F4164323F00C031343CB6002685369DA
:102DC00023F4407381690B4353610368314A934292
:102DD00006D002F58062934202D0FFF7C1FD01E008
:102DE000FFF7CEFDE369B3F5004F29D000210318AA
:102DF00049411B1841F10001C90041EA5371DB0050
:102E0000181863684FEA83024FEA937341F1000197
:102E1000FDF794FE204DA5FB00325109642303FB0E
:102E200011031B013233A5FB03235B0903F0F002FE
:102E300002EB011203F00F03216813448B6038BDCD
:102E40000023021843EB0301121841F10001C900ED
:102E500041EA5271D200101841F1000162689218E3
:102E60005B41FDF76BFE0C4DA5FB0032510964235D
:102E700003FB1103DB003233A5FB03235B095A007C
:102E800002F4F87202EB011203F007032168134405
:102E90008B60D4E7001001401F85EB5158B310B58B
:102EA000044690F83D300BB3242384F83D3022686B
:102EB000D36823F40053D3602046FFF767FF2268EE
:102EC000136923F4904313612268536923F02A03A2
:102ED00053612268D36843F40053D3600020206418
:102EE000202384F83D3084F83E3010BD80F83C301B
:102EF000FEF708FAD8E7012070477047704710B511
:102F0000846B23685A6994F83D30DBB2212B10D0D2
:102F100023685A6902F0400294F83E30DBB2222B5B
:102F200011D0236C43F0100323642046FFF7E6FF23
:102F300010BD02F08002002AEAD00023E38420467C
:102F4000FFF7E6FEE4E7002AEBD00023E385204606
:102F5000FFF7EEFEE5E7704708B5806B036B012BCA
:102F600002D0FFF7CAFF08BD818D4908FFF7F3FFC4
:102F7000F9E708B50346806B1B681B6813F4807F74
:102F80002BD10023C385026802F10C0353E8003FF4
:102F900023F480730C3242E800310029F3D1026837
:102FA00002F1140353E8003F23F00103143242E816
:102FB00000310029F3D1026802F1140353E8003F05
:102FC00023F04003143242E800310029F3D12023DA
:102FD00080F83E30036B012B05D0036B012B0FD023
:102FE00001F054FC08BD026802F10C0353E8003FF5
:102FF00023F010030C3242E800310029F3D1ECE752
:10300000818DFFF7A8FFEDE730B583B00446134686
:103010008162828500250564222280F83E20826B31
:103020002048D063A26B20481064A26B1F48D06474
:10303000A26B156520680A46011DA06BFEF716FFFE
:10304000019523681A6801925B680193019B84F8DB
:103050003C5023695BB1226802F10C0353E8003F46
:1030600043F480730C3242E800310029F3D1226826
:1030700002F1140353E8003F43F00103143242E825
:1030800000310029F3D1226802F1140353E8003F14
:1030900043F04003143242E800310029F3D100200C
:1030A00003B030BD732F0008592F0008FF2E000811
:1030B00008B590F83E30DBB2202B0DD171B17AB15A
:1030C00090F83C30012B0DD0012380F83C300023D8
:1030D0000363FFF799FF00E0022008BD0120FCE731
:1030E0000120FAE70220F8E7842801D00330704776
:1030F0000020704708B501F02DF8002008BD2DE92B
:10310000F04387B004460F464569BDB18669AEB14C
:10311000D0F80480D0F80090B0F90800FFF7E4FF81
:103120000296019500903B4622694946404600F0D0
:10313000A1FF0590059807B0BDE8F0836568266893
:10314000D4F81080B4F90800FFF7CEFF05AB019367
:1031500000903B461FFA88F23146284600F0C5FF32
:103160000128E7D00020E6E708B500B9012001F00A
:103170003BF9002008BD00F1080343604FF0FF3227
:103180008260C36003610023036070470023036112
:10319000704743684B609A688A6051609960086123
:1031A000036801330360704730B40D68B5F1FF3F29
:1031B00011D000F108031C465B681A68AA42FAD9CC
:1031C00063684B6099608C606160086103680133DB
:1031D000036030BC70470469F2E7036941688268A4
:1031E0008A60416851605A68824206D000220261BA
:1031F0001A68013A1A601868704782685A60F5E7E1
:1032000082B0002301930D4B1B68B3F1FF3F08D040
:103210004FF0500383F31188BFF36F8FBFF34F8FCD
:10322000FEE74FF0500383F31188BFF36F8FBFF3B6
:103230004F8F019B002BFCD002B070470C00002088
:1032400008480068006880F308884FF0000080F3A9
:10325000148862B661B6BFF34F8FBFF36F8F00DF84
:1032600000BF000008ED00E0DFF80C00016841F449
:10327000700101607047000088ED00E04FF080733E
:1032800040F8043C21F0010140F8081C054B40F8CF
:103290000C3C40F8202C6FF0020340F8243C4438EA
:1032A000704700BF0132000800000000000000006D
:1032B000074B19680868B0E8F04F80F30988BFF33E
:1032C0006F8F4FF0000080F311887047AFF30080DC
:1032D000C83F00204FF0500383F31188BFF36F8F76
:1032E000BFF34F8F0B4A136801331360012B00D0DB
:1032F00070474FF0E023D3F8043D13F0FF0FF7D0F1
:103300004FF0500383F31188BFF36F8FBFF34F8FDC
:10331000FEE700BF0C000020094B1B6843B94FF0CB
:10332000500383F31188BFF36F8FBFF34F8FFEE716
:10333000013B034A13600BB983F31188704700BF48
:103340000C00002000000000000000000000000051
:10335000EFF30980BFF36F8F154B1A681EF0100F43
:1033600008BF20ED108A20E9F04F10602DE9090018
:103370004FF0500080F31188BFF34F8FBFF36F8F72
:1033800001F058F84FF0000080F3118809BC19686B
:103390000868B0E8F04F1EF0100F08BFB0EC108ABC
:1033A00080F30988BFF36F8F704700BFAFF30080D1
:1033B000C83F002008B54FF0500383F31188BFF3D6
:1033C0006F8FBFF34F8F00F007FF28B14FF0E0235E
:1033D0004FF08052C3F8042D002383F3118808BDF9
:1033E0004FF0E022002313619361054B1B680549F0
:1033F000A1FB03139B09013B536107231361704732
:1034000000000020D34D62104FF0E023D3F8002DD0
:103410003D4B9A421CD04FF0E023D3F8002D3B4B9C
:103420009A421ED030B583B0394B1A78D2B201928D
:10343000FF221A701B78DBB28DF803309DF8033041
:1034400003F05003334A1370334B07221A601BE01A
:103450004FF0500383F31188BFF36F8FBFF34F8F8B
:10346000FEE74FF0500383F31188BFF36F8FBFF374
:103470004F8FFEE7284A1368013B13609DF8033025
:103480005B00DBB28DF803309DF8033013F0800F42
:10349000F0D1214B1B68032B08D04FF0500383F36E
:1034A0001188BFF36F8FBFF34F8FFEE71B021A4ADD
:1034B000136003F4E0631360019BDBB2144A1370E2
:1034C0004FF0E024D4F8203D43F47003C4F8203DCD
:1034D000D4F8203D43F07043C4F8203DFFF780FF4F
:1034E00000250E4B1D60FFF7BFFED4F8343F43F0BC
:1034F0004043C4F8343FFFF7A3FE00F09BFFFFF703
:103500007FFE284603B030BD71C20F4170C20F412B
:1035100000E400E0A0030020A40300200C00002031
:10352000124A12F0070F1ED0D11D21F00701C1F57C
:10353000705313440A460E48026000214160134450
:10354000083B23F007030B48036059601960991A80
:1035500051601360084B1960084B1960084B4FF01D
:1035600000421A6070474FF47053E4E7AC03002048
:10357000C03F0020A8030020B43F0020B03F00203F
:10358000AC3F0020164B1A461B688342FBD35168A0
:1035900002EB010C844509D0416800EB010C634546
:1035A00009D00360904219D0106070474068014410
:1035B00051601046F0E710B40A4C2468A3420BD0C7
:1035C0005B681944416013681B680360904200D037
:1035D00010605DF8044B70470460F7E7704700BF68
:1035E000C03F0020A803002070B5054600F0ECFDA8
:1035F000364B1B68A3B1364B1B681D424ED135B10B
:10360000083515F0070F02D025F007050835002D05
:1036100046D0304B1B68AB4251D32F4A146804E0AC
:10362000FFF77EFFE7E722461C466368AB4202D203
:103630002368002BF7D1254B1B68A34241D01668A5
:1036400008362368136063685B1B102B10D9601960
:1036500010F0070F08D04FF0500383F31188BFF329
:103660006F8FBFF34F8FFEE743606560FFF78AFF00
:10367000626818490B689B1A0B60184909688B42ED
:1036800001D216490B60124B1B6813436360002381
:103690002360134A13680133136002E0002600E040
:1036A000002600F025FE16F0070F0CD04FF0500357
:1036B00083F31188BFF36F8FBFF34F8FFEE70026B0
:1036C000EFE70026EDE7304670BD00BFA8030020FD
:1036D000AC3F0020B03F0020C03F0020B43F00209E
:1036E000B83F0020002834D038B50446A0F10805C2
:1036F00050F8043C174A1268134208D14FF05003A7
:1037000083F31188BFF36F8FBFF34F8FFEE750F83D
:10371000081C41B14FF0500383F31188BFF36F8F42
:10372000BFF34F8FFEE723EA020340F8043C00F0AA
:103730004BFD54F8041C084A13680B4413602846D8
:10374000FFF720FF054A13680133136000F0D0FD36
:1037500038BD7047AC3F0020B03F0020BC3F002088
:103760000346406A18B11B6B1868C0F1200070470F
:1037700010B50446FFF7AEFDA26BE36B9A4204D08E
:103780000024FFF7C9FD204610BD0124F9E710B55C
:103790000446FFF79FFDA36B23B90124FFF7BCFD8F
:1037A000204610BD0024F9E770B504461546866B27
:1037B000026C5AB903681BB100200136A66370BDC4
:1037C000806800F0A1FF0023A360F6E76DB94068B0
:1037D00001F006FD226C636813446360A2689342A3
:1037E00019D3236863602846E7E7C06801F0F8FC56
:1037F000226C5142E3689B1AE3602268934202D232
:10380000A3680B44E360022D01D00020D5E726B168
:10381000013E0020D1E72846CFE70020CDE738B5AC
:103820000546FFF757FD95F8454064B201E0013CBD
:1038300064B2002C0ADD6B6A43B105F1240000F08C
:103840005DFE0028F3D000F0EDFEF0E7FF2385F8E1
:103850004530FFF761FDFFF73DFD95F8444064B248
:1038600001E0013C64B2002C0ADD2B6943B105F193
:10387000100000F043FE0028F3D000F0D3FEF0E784
:10388000FF2385F84430FFF747FD38BD38B5E0B178
:103890000D460446FFF71EFD2368E26B216C01FB19
:1038A0000230A0600020A0636360013A02FB013394
:1038B000E360FF2384F8443084F84530FDB9236980
:1038C00063B9FFF729FD012038BD4FF0500383F3A2
:1038D0001188BFF36F8FBFF34F8FFEE704F1100025
:1038E00000F00CFE0028ECD04FF0E0234FF08052A7
:1038F000C3F8042DBFF34F8FBFF36F8FE1E704F1DF
:103900001000FFF738FC04F12400FFF734FCD8E77F
:1039100010B5034602980C4631B90060C3630464D5
:103920000121FFF7B3FF10BD0260F7E740B94FF088
:10393000500383F31188BFF36F8FBFF34F8FFEE700
:10394000F0B583B00D461446064601FB00F0483042
:10395000FFF74AFE074650B1002380F8463000903A
:10396000234600F1480229463046FFF7D1FF38468A
:1039700003B0F0BDF0B585B0019288B10F461D4689
:103980000446B1B1022D20D1E36B012B1DD04FF0C5
:10399000500383F31188BFF36F8FBFF34F8FFEE7A0
:1039A0004FF0500383F31188BFF36F8FBFF34F8F36
:1039B000FEE7036C002BE5D04FF0500383F3118832
:1039C000BFF36F8FBFF34F8FFEE700F037FE064661
:1039D00058B9019B002B48D04FF0500383F3118856
:1039E000BFF36F8FBFF34F8FFEE700263DE02A46FF
:1039F00039462046FFF7D8FE636A7BB948B14FF0DD
:103A0000E0234FF08052C3F8042DBFF34F8FBFF374
:103A10006F8FFFF781FC012005B0F0BD04F1240099
:103A200000F06CFD0028F4D04FF0E0234FF08052FE
:103A3000C3F8042DBFF34F8FBFF36F8FE9E7FFF794
:103A40006BFC0020E8E702A800F09EFD012619E0CB
:103A5000002384F8443021E0002384F8453023E03B
:103A60002046FFF7DCFE00F043FCFFF733FCA26BBF
:103A7000E36B9A42BBD3022DB9D0019B002BDED061
:103A8000002EE0D0FFF748FC00F09EFBFFF722FC81
:103A900094F8442052B2B2F1FF3FD9D094F84520B7
:103AA00052B2B2F1FF3FD7D0FFF736FC01A902A80E
:103AB00000F076FDD8B92046FFF75AFE0028CFD097
:103AC000019904F1100000F001FD2046FFF7A7FE68
:103AD00000F00EFC0028C8D14FF0E0234FF08052D8
:103AE000C3F8042DBFF34F8FBFF36F8FBDE72046A0
:103AF000FFF795FE00F0FCFB00208DE748B108B50C
:103B0000002181600160C1600B460A46FFF732FF69
:103B100008BD704710B5024600210120FFF706FFDF
:103B20000446FFF7EBFF204610BD38B538B1044618
:103B3000856800F07DFD85420AD0002038BD4FF039
:103B4000500383F31188BFF36F8FBFF34F8FFEE7EE
:103B5000E368013BE3600BB10120EFE71A46194629
:103B60002046FFF707FF0120E8E770B584B0019118
:103B700058B10446036C8BB14FF0500383F31188A6
:103B8000BFF36F8FBFF34F8FFEE74FF0500383F308
:103B90001188BFF36F8FBFF34F8FFEE700F04EFD2C
:103BA000054650B9019B5BB14FF0500383F3118878
:103BB000BFF36F8FBFF34F8FFEE70026354655E00A
:103BC000064653E0013BA36323683BB123694BB92D
:103BD000FFF7A2FB0126304604B070BD00F048FE9E
:103BE000A060F3E704F1100000F088FC0028EFD09B
:103BF0004FF0E0234FF08052C3F8042DBFF34F8FF6
:103C0000BFF36F8FE4E746B14FF0500383F31188A1
:103C1000BFF36F8FBFF34F8FFEE7FFF77DFBDAE750
:103C200002A800F0B1FC01252AE0002384F844300A
:103C300032E0002384F8453034E0FFF74BFBA06806
:103C400000F00CFD0646FFF767FB3BE02046FFF760
:103C5000E6FD00F04DFB09E02046FFF7E0FD00F037
:103C600047FB2046FFF793FD002842D1FFF732FBC8
:103C7000A36B002BA6D1019B002BC4D0002DCFD06D
:103C8000FFF74AFB00F0A0FAFFF724FB94F844305A
:103C90005BB2B3F1FF3FC8D094F845305BB2B3F1EB
:103CA000FF3FC6D0FFF738FB01A902A800F078FC5F
:103CB0000028D1D12046FFF76AFD0028C6D023682E
:103CC000002BBAD0019904F1240000F0FFFB20463C
:103CD000FFF7A5FD00F00CFB0028C7D14FF0E02353
:103CE0004FF08052C3F8042DBFF34F8FBFF36F8F97
:103CF000BCE70EB900266EE7FFF7ECFA2046FFF7A7
:103D00002FFD0146A06800F059FDFFF705FBF1E724
:103D100080B170B50C460546866800F089FC864285
:103D200011D021462846FFF720FF80B1EB68013310
:103D3000EB600CE04FF0500383F31188BFF36F8FFB
:103D4000BFF34F8FFEE7EB680133EB60012070BDDE
:103D5000084B1B681B6823B9074B4FF0FF321A60F2
:103D60007047044B1B68DB68DB685A68024B1A60BB
:103D7000704700BFCC3F0020944200202DE9F0475F
:103D800007469846089DDDF824900A9C266B02F1B0
:103D90008042013A06EB820626F007066664002997
:103DA0003AD08E464FF0000CBCF10F0F0BD81EF826
:103DB0000C2004EB0C0383F834201EF80C3013B1F4
:103DC0000CF1010CF0E7002384F843301F2D00D9DB
:103DD0001F25E562A5644FF0000AC4F84CA0201D21
:103DE000FFF7D4F904F11800FFF7D0F92461C5F109
:103DF0002005A5616462C4F850A084F854A042462E
:103E000039463046FFF73AFA2060B9F1000F01D089
:103E1000C9F80040BDE8F087002384F83430D5E7C6
:103E200038B5002407E004EB840293000E481844E0
:103E3000FFF7A1F901341F2CF5D90C4D2846FFF7E7
:103E40009AF90B4C2046FFF796F90A48FFF793F9C9
:103E50000948FFF790F90948FFF78DF9084B1D60F5
:103E6000084B1C6038BD00BFD43F002068420020D2
:103E70007C420020A0420020CC420020B84200201A
:103E8000CC3F0020D03F002010B50446FFF722FAB7
:103E9000214A136801331360204B1B685BB1204B30
:103EA0001B686BB91D4B1B68DA6AE36A9A4207D834
:103EB0001A4B1C6004E0194B1C601368012B28D0BE
:103EC000184A136801331360E06A01238340164ADD
:103ED00011680B43136000EB8000211D134B03EBB3
:103EE0008000FFF756F9FFF717FA0D4B1B687BB1FF
:103EF0000A4B1B68DA6AE36A9A4209D24FF0E02360
:103F00004FF08052C3F8042DBFF34F8FBFF36F8F74
:103F100010BDFFF785FFD3E754420020C83F0020C3
:103F2000B44200206042002064420020D43F0020C0
:103F300010B5044690F8553063B1012B11D0022B17
:103F40000ED04FF0500383F31188BFF36F8FBFF390
:103F50004F8FFEE7006BFFF7C5FB2046FFF7C2FB64
:103F600010BDFFF7BFFBFBE70F4B1B68D3B110B5CC
:103F7000FFF7B0F90D4BDB68DC68201DFFF72DF96A
:103F80000B4A1368013B1360074A1368013B136037
:103F9000FFF7C2F92046FFF7CBFF034B1B68002B4E
:103FA000E6D110BD704700BF58420020CC4200202F
:103FB0005442002008B5FFF7D7FF074B1B68012BC1
:103FC000F9D94FF0E0234FF08052C3F8042DBFF32E
:103FD0004F8FBFF36F8FEEE7D43F002070B50446DC
:103FE0000D461D4B1E681D4B18680430FFF7F5F891
:103FF00050B91A4B1B68DA6A012303FA02F2184916
:104000000B6823EA02030B60B4F1FF3F0DD0344488
:10401000124B1B685C60A64210D9124B18680F4BFC
:1040200019680431FFF7C0F870BD002DEFD00B4BBD
:10403000196804310C48FFF7ACF8F5E70B4B18682A
:10404000064B19680431FFF7AFF8094B1B68A34210
:10405000EAD9074B1C60E7E7E0420020C83F002098
:1040600064420020D03F0020B8420020CC3F002016
:104070009442002030B587B00B9C7CB10C9DB5B14B
:1040800058250495049D582D1AD04FF0500383F302
:104090001188BFF36F8FBFF34F8FFEE74FF05003D0
:1040A00083F31188BFF36F8FBFF34F8FFEE74FF09D
:1040B000500383F31188BFF36F8FBFF34F8FFEE779
:1040C000049D0C9D2C63022485F855400024039424
:1040D000029505AC01940A9C0094FFF74FFE0C98E2
:1040E000FFF7D2FE059807B030BD2DE9F04385B04B
:1040F0000746884614461E469000FFF775FA00B33F
:1041000081465820FFF770FA0546B0B1C0F83090EC
:10411000E5B1002385F85530039302950D9B01937B
:104120000C9B00933346224641463846FFF726FE55
:104130002846FFF7A9FE012005E04846FFF7D2FA1E
:10414000E6E74FF0FF3005B0BDE8F0834FF0FF30F9
:10415000F9E7000010B588B000240594069407AA7A
:1041600006A905A8FCF7E2FE059B0293069B0193B6
:1041700000942346079A0E490E48FFF77BFF0E4B2B
:10418000186090B14FF0500383F31188BFF36F8F25
:10419000BFF34F8F094B4FF0FF321A60084B0122DB
:1041A0001A60084B1C60FFF72FF908B010BD00BF64
:1041B000A4520008B53F000890420020944200201D
:1041C000B4420020E0420020024A13680133136029
:1041D000704700BF5C420020F8B53A4B1B68002BCB
:1041E00069D1394B1D6801351D60C5B9374B1B6856
:1041F0001B6843B14FF0500383F31188BFF36F8FF7
:10420000BFF34F8FFEE7314A1168314B18681060D9
:104210001960304A136801331360FFF799FD2E4B84
:104220001B68AB423DD900272C4B1B68DB6A03EBB4
:1042300083039A002A4B9B58012B00D90127294B55
:104240001B68002B3CD001273AE001271F4B1B685D
:104250001B6843B31D4B1B68DB68DC6863689D42C9
:1042600026D3261D3046FEF7B8FFA36A1BB104F122
:104270001800FEF7B2FFE36A01229A401A49086863
:1042800002430A6003EB83039A003146144810444A
:10429000FEF77FFFE26A114B1B68DB6A9A42D4D2B9
:1042A000D4E70027D2E70C4B4FF0FF321A60BBE790
:1042B000094A1360B8E70D4A1368013313600027F9
:1042C0003846F8BD5C420020E0420020CC3F002090
:1042D000D03F00209842002094420020C83F002098
:1042E000D43F0020E4420020644200209C42002091
:1042F00038B5354B1B6843B94FF0500383F3118831
:10430000BFF36F8FBFF34F8FFEE7FEF7E3FF2E4B38
:104310001A68013A1A601B68002B4FD12B4B1B689F
:104320000BB900244BE00024294B1B681BB3284B1E
:10433000DB68DC6804F11800FEF74FFF251D2846F6
:10434000FEF74BFFE06A01238340224A11680B43CA
:10435000136000EB800029461F4B03EB8000FEF743
:1043600018FFE26A1D4B1B68DB6A9A42DCD31C4BC8
:1043700001221A60D8E70CB1FFF7EAFC194B1C6860
:1043800084B9174B1C68D4B14FF0E0234FF0805232
:10439000C3F8042DBFF34F8FBFF36F8F01240EE0DE
:1043A000013C07D0FFF718FF0028F9D00C4B012281
:1043B0001A60F5E70B4B00221A60E2E70024FEF7D3
:1043C000ABFF204638BD00BF5C42002054420020B5
:1043D000A042002064420020D43F0020C83F0020BB
:1043E000E44200209C42002010B5A8B10446104BC6
:1043F0001B6843B14FF0500383F31188BFF36F8FF5
:10440000BFF34F8FFEE7FFF7DFFE00212046FFF7E7
:10441000E5FDFFF76DFF48B94FF0E0234FF0805204
:10442000C3F8042DBFF34F8FBFF36F8F10BD00BFD4
:104430005C420020204B1B681BB1204B01221A60FC
:1044400070471E4B00221A601D4B1B68B3FA83F3A2
:10445000DBB2C3F11F0303EB83018A0019498A58B9
:1044600042B94FF0500383F31188BFF36F8FBFF34E
:104470004F8FFEE7134903EB830082000A44506824
:104480004068506003EB830C4FEA8C020832114401
:10449000884209D003EB83039A000A4B13445B68FC
:1044A000DA68094B1A607047406862469100054A15
:1044B0000A445060EEE700BF5C420020E442002066
:1044C00064420020D43F0020C83F002058B110B5FE
:1044D0000C46094A11681831FEF766FE0121204694
:1044E000FFF77CFD10BD4FF0500383F31188BFF33D
:1044F0006F8FBFF34F8FFEE7C83F002038B5C3680A
:10450000DC6824B304F118052846FEF766FE184B54
:104510001B682BBB251D2846FEF75FFEE06A0123C2
:104520008340144A11680B43136000EB8000294656
:10453000114B03EB8000FEF72CFEE26A0F4B1B6869
:10454000DB6A9A4211D901200D4B186038BD4FF03B
:10455000500383F31188BFF36F8FBFF34F8FFEE7D4
:1045600029460848FEF715FEE7E70020EEE700BF02
:104570005C42002064420020D43F0020C83F00205D
:10458000E4420020A0420020034B1B680360034B61
:104590001B684360704700BF98420020E042002043
:1045A000F8B5C8B10C460546F9B1FEF793FE1B4BB2
:1045B00019686B68C81A2268B2F1FF3F26D0184EFE
:1045C00036682F68B74201D08B4224D9824215D871
:1045D0000023236001241AE04FF0500383F3118875
:1045E000BFF36F8FBFF34F8FFEE74FF0500383F39E
:1045F0001188BFF36F8FBFF34F8FFEE75B1A134431
:1046000023602846FFF7C0FF002400E00024FEF7E7
:1046100083FE2046F8BD0124F9E700BFE0420020F8
:1046200098420020014B01221A607047E4420020AA
:10463000014B1868704700BFC83F0020054B1B683E
:1046400033B1054B1B680BB1002070470220704747
:1046500001207047B44200205C420020002849D06D
:1046600038B50446C36A254A1268D26A934239D2E1
:104670008269002A05DB214A1268D26AC2F120024F
:104680008261616903EB83031D4A02EB8303994254
:1046900005D01A4B1B68DB6AE362012038BD251D7B
:1046A0002846FEF79AFD40B9E26A012303FA02F2B6
:1046B00014490B6823EA02030B60104B1B68D86A8D
:1046C000E062012404FA00F30E4A11680B43136000
:1046D00000EB800029460A4B03EB8000FEF759FDF2
:1046E0002046DBE7826C054B1B68DB6A9A4203D3EA
:1046F0000020D3E7002070470120CFE7C83F00200B
:10470000D43F00206442002000284CD038B5044635
:10471000274B1B68834208D04FF0500383F3118866
:10472000BFF36F8FBFF34F8FFEE7C36C43B94FF0FA
:10473000500383F31188BFF36F8FBFF34F8FFEE7F2
:10474000013BC364C16A826C91422ED00BB1002040
:1047500038BD051D2846FEF740FD70B9E26A02EB40
:1047600082039B001349CB583BB9012303FA02F2A1
:1047700011490B6823EA02030B60A06CE062C0F1F0
:104780002003A361012404FA00F30B4A11680B43D0
:10479000136000EB80002946064B03EB8000FEF718
:1047A000F8FC2046D4E7002070470020D0E700BF87
:1047B000C83F0020D43F002064420020002850D091
:1047C00038B50446C36C43B94FF0500383F31188E6
:1047D000BFF36F8FBFF34F8FFEE7826C8A4200D228
:1047E0000A46E16A914201D0012B00D038BD1D4B31
:1047F0001B68A3422CD0E262A369002B02DBC2F14A
:104800002002A261626901EB8101174B03EB810178
:104810008A42EBD1251D2846FEF7DFFC40B9E26A4B
:10482000012303FA02F211490B6823EA02030B6029
:10483000E06A012383400D4A11680B43136000EBCB
:1048400080002946084B03EB8000FEF7A2FCCDE771
:104850004FF0500383F31188BFF36F8FBFF34F8F77
:10486000FEE77047C83F0020D43F0020644200208C
:10487000054B1B6823B1044B1A68D36C0133D36416
:10488000014B1868704700BFC83F002008B5026898
:10489000034B1B689A4200D008BD00F0BDFAFBE74D
:1048A0005803002010B5064C122206492046FEF798
:1048B000FFFB2268D36843F01003D36010BD00BF34
:1048C000580300207843002030B5ADF52B7D4FF420
:1048D0007A70FEF749FC5AE004EBC4031801434B1D
:1048E00053F8241090221AAB184400F079FC0134DC
:1048F000032CF1DDFEF710FD00240FE004AB03EB09
:10490000C40304EBC40215011AAA1544D3E900013B
:10491000FCF7C4F8294600F0F0F90134032CEDDD72
:104920009DED307ADDED546A9DED786ADDED9C7A7F
:10493000BDEEC66AFDEEE66ABDEEC77AFDEEE77A29
:1049400017EE903A1BB2009316EE103A1BB216EE19
:10495000902A12B217EE101A09B2254800F0EAFAAE
:10496000FEF7B8FC00240BE0204B53F8240004EBC6
:10497000C403190190221AAB194400F031FC013430
:10498000032CF1DDFEF7C8FC0A20FFF72DFD194DC1
:10499000286B4FF0FF31FFF7BBF90CACAC46BCE81D
:1049A0000F000FC4BCE80F000FC4BCE80F000FC419
:1049B0009CE8030084E80300286BFFF7B6F8202288
:1049C000002104A800F01AFCDDE90C23DDE90E014A
:1049D000DDE91045CDE90245CDE9000104A800F06C
:1049E000CBF8FEF777FC002482E700BFE842002006
:1049F0002C0000200043002010B588B00DF1040CFD
:104A0000064C0FCCACE80F0094E807008CE80700D8
:104A1000002101A8FEF773FB08B010BD405200084A
:104A200008B50D4800F09AF90C4A0D4B136003F1DC
:104A30009001516003F59071916003F5D871D160D8
:104A400000221A7083F8902083F8202183F8B02187
:104A500000F012FA08BD00BF2C000020E842002040
:104A60009C43002008B5FFF7DBFF08BD08B5FFF742
:104A700019FF00F069F8FFF7F5FF00F051F8FFF7B4
:104A8000BBFFFEE70000000080B586B0FEF722FC09
:104A9000214A03AB10685168926807C3FEF73CFCDB
:104AA00003238DF81430ADF80C30ADF80E30ADF8AE
:104AB00010301A4C206B4FF0FF31FFF729F912A785
:104AC000D7E900670FF24809D9E90089CDE90089E3
:104AD00022463046394600F019F9CDE9008904F143
:104AE00008023046394600F011F9CDE9008904F199
:104AF00010023046394600F009F9206BFFF715F82F
:104B00000A20FFF771FCC1E7BD7493180456F0BF8B
:104B10009A9999999999A93F8C43002000430020C4
:104B200010B588B00DF1040C064C0FCCACE80F00AA
:104B300094E807008CE80700002101A8FEF7DFFADF
:104B400008B010BD5C52000808B50420FEF7E2FF73
:104B5000064B18630420FEF7DDFF054B18630420A5
:104B6000FEF7D8FF034B186108BD00BF00430020CB
:104B700038430020E84200202DE9F04782B0824609
:104B800014461D46DDE90A8942464B462046294621
:104B9000FBF732FBCDE9000127A3D3E90023DDE9D0
:104BA0000C01FBF7E1FC06460F4602460B46DDE929
:104BB0000001FBF721FB22A3D3E90023FBF7D4FC80
:104BC000CAE9000142464B4620462946FBF716FB40
:104BD00032463B46FBF710FB19A3D3E90023FBF752
:104BE000C3FCCAE9020122462B4640464946FBF770
:104BF00003FB32463B46FBF7FFFA11A3D3E9002340
:104C0000FBF7B2FCCAE90401204605F10041424627
:104C10004B46FBF7F1FA32463B46FBF7EDFA08A3A9
:104C2000D3E90023FBF7A0FCCAE9060102B0BDE806
:104C3000F08700BFAFF30080894160E5D022D73F05
:104C4000CFF753E3A5A6A240D0ED047A90ED037A06
:104C500077EEC77AC0ED057AD0ED007A90ED057A4F
:104C6000D0ED076A37EE667A67EE877A90ED017AC3
:104C7000D0ED056A27EE267A77EE877A90ED026A04
:104C800090ED057AD0ED076A76EEA66A37EE667A81
:104C9000D0ED066A37EE267A26EE077A77EE877A27
:104CA00090ED087A77EE277AC0ED087AC3698361C0
:104CB000D0ED047A90ED037A77EEC77AC0ED077AEB
:104CC00090ED087AD0ED097AB4EEE77AF1EE10FAB9
:104CD00001DD436A036290ED087AD0ED097AF1EEC6
:104CE000677AB4EEE77AF1EE10FA05D5D0ED097ADD
:104CF000F1EE677AC0ED087A704708B58864CB6832
:104D00004B6401F13800FFF79FFF08BD2DE9F04724
:104D100004460D46924621F00047DDE90823394656
:104D2000FBF76AFA8046894600220023FBF78EFED5
:104D300078B922463B4640464946FBF73FFD0246CE
:104D40000B4620462946FBF70FFCCAE90001BDE8E7
:104D5000F08700220023CAE90023F8E710B58AB0E3
:104D600004460023059306930122079200930193C2
:104D700002930393049308920E2309936946FCF768
:104D8000EDFB58B92046FCF785FC50B902212046BE
:104D9000FCF7EAFD40B900200AB010BDFCF784F929
:104DA000F0E7FCF781F9F1E7FCF77EF9F3E70000A3
:104DB00084B008B50DF1080C8CE80F001AB1BDE8FD
:104DC000084004B07047024900F096F9F7E700BFC9
:104DD0007043002002680E4B1B689A4200D0704757
:104DE00000B58DB00B4B05AA0021FCF718FD58B992
:104DF0000CAB13E907008DE8070005AB0FCBFFF7FD
:104E0000D7FF0DB05DF804FBFCF74EF9F0E700BFEB
:104E10002C00002070430020154A1378517843EA93
:104E20000123C3F30A03134803809378C90841EAB6
:104E30004311C1F30A014180D1789B0943EA810300
:104E4000117943EA8123C3F30A0383805379490824
:104E500041EAC311C1F30A01C18099090172C3F388
:104E600001134372137C527C43EA0223438170474F
:104E7000784300208C430020002310E003EBC301A3
:104E80000A0123498A5CD2B2012A37D003EBC3025C
:104E900011011F4A0A444FF08C4151630133072B23
:104EA00034DC1B4803EBC30211014218DFF86CC06D
:104EB000C2F838C0DFF868C0C2F83CC0DFF864C090
:104EC000C2F840C0DFF860C0C2F85CC0DFF85CC068
:104ED000C2F864C04FF07E5CC2F868C04FF0000CAE
:104EE000C2F86CC0DFF848C0C2F888C0425C002A33
:104EF000C4D102460A4407491163C7E703EBC30262
:104F00001101034A0A4404491163BFE7704700BF17
:104F10009C4300202CA09941000010420000404119
:104F2000CDCC4C3E0000A0400000FA450000A0425D
:104F300000409C4510B588B00446BDF928C0082043
:104F400006904FF400700290002004900590C1F389
:104F500007208DF800008DF80110C2F307218DF8AD
:104F600002108DF80320C3F307228DF804208DF87A
:104F700005309DF929308DF806308DF807C02046A0
:104F8000FCF734FC0028FAD0054B6A4602A92046FB
:104F9000FCF7AEFB08B908B010BDFCF785F8FAE7DE
:104FA000984300200A784B7843EA022307EE903AB0
:104FB000F8EEE77A9FED3F7A67EE877AD0ED0D6ADB
:104FC00087EEA67A80ED027A8A78CB7843EA0223CC
:104FD0001BB207EE903AF8EEE77AC0ED037A0A7951
:104FE0004B7943EA02231BB207EE903AF8EEE77AD8
:104FF000C0ED047AC36983618368C361D0ED077A29
:1050000090ED067A77EEC77A9FED2B7AF4EEC77AA9
:10501000F1EE10FA3CDD436A013B4362D0ED097AC0
:10502000F8EEE77A9FED237A67EE877AC0ED0A7A89
:10503000D0ED077A90ED087A37EEC77AD0ED0A7A8C
:1050400077EE877AC0ED0A7A90ED0C7AD0ED0A6A95
:10505000C6EE877AC0ED0A7AD0ED036A90ED0C7A3D
:10506000C6EE877AC0ED0B7A436A4FF4B47202FB46
:1050700003F307EE903A90ED077AF8EEE77A77EED1
:10508000877A90ED087A77EEC77AC0ED057A704797
:10509000D0ED077A90ED067A77EEC77A9FED077A22
:1050A000F4EEC77AF1EE10FAB8D5436A01334362E1
:1050B000B4E700BF0000B44300003443000034C331
:1050C0000A784B7843EA022307EE903AF8EEE77A43
:1050D0009FED087A67EE877AD0ED0D6A87EEA67AA3
:1050E00080ED027A836883618369C36183680362A8
:1050F000704700BF0000B443F8B5A0F20124072CAC
:1051000001D90120F8BD04EBC4030D4A02EB0313DF
:105110005B68312B0BDC04EBC40602EB0616304651
:10512000FFF7CEFF7368013373600020EAE704EBFA
:10513000C404034800EB0410FFF734FFF5E700BF99
:105140009C430020DFF834D00D480E490E4A00235E
:1051500002E0D458C4500433C4188C42F9D30B4A2B
:105160000B4C002301E013600432A242FBD3FCF796
:10517000A1F800F011F8FBF7F3FF704700000320DF
:105180000000002010000020E45200081000002061
:105190001C480020FEE7000070B50D4D0D4C641B4F
:1051A000A4100026A64209D10B4D0C4C00F02EF89D
:1051B000641BA4100026A64205D170BD55F8043B1F
:1051C00098470136EEE755F8043B98470136F2E779
:1051D000DC520008DC520008DC520008E0520008F3
:1051E0000A44914200F1FF3300D1704710B511F825
:1051F000014B03F8014F9142F9D110BD024403461F
:10520000934200D1704703F8011BF9E7F8B500BFDE
:10521000F8BC08BC9E467047F8B500BFF8BC08BC97
:045220009E467047EF
:10522400785200086D4A00080000000000000000E9
:10523400800000000000000000000000AC520008E4
:10524400C94800080200000000000000000400003B
:105254000000000000000000BC520008894A000859
:105264000100000000000000000400000000000035
:105274000000000064656661756C745461736B00B2
:1052840000000000000000000102030406070809F2
:1052940000000000010203040006101600061016A8
:1052A40049444C4500000000436861737369735FAF
:1052B400536572766F000000436861737369735FAE
:1052C40053746174654D616368696E650000000024
:0852D40098B8FF7F0100000003
:0452DC00D5010008F0
:0452E000B101000810
:1052E4000024F4000100000010000000AAAAAAAAE9
:040000050800514559
:00000001FF
