:020000040800F2
:1000000000000320E51700083D0600083F06000831
:1000100041060008430600084506000800000000ED
:10002000000000000000000000000000470600087B
:1000300049060008000000004B0600084D060008B5
:10004000351800083518000835180008351800085C
:10005000351800083518000835180008351800084C
:10006000351800083518000835180008351800083C
:10007000351800083518000835180008351800082C
:10008000351800083518000835180008351800081C
:10009000351800083518000835180008351800080C
:1000A00035180008351800083518000835180008FC
:1000B00035180008351800083518000835180008EC
:1000C00035180008351800083518000835180008DC
:1000D00035180008351800083518000835180008CC
:1000E00035180008351800083518000835180008BC
:1000F00035180008351800083518000835180008AC
:10010000351800083518000835180008351800089B
:10011000550600083518000835180008351800087D
:10012000351800083518000835180008351800087B
:10013000351800083518000835180008351800086B
:10014000351800083518000835180008351800085B
:10015000351800083518000835180008351800084B
:10016000351800083518000835180008351800083B
:100170003518000835180008351800080000000080
:10018000351800083518000835180008351800081B
:10019000351800083518000835180008351800080B
:0C01A000000000000000000035180008FE
:1001AC0010B5054C237833B9044B13B10448AFF3A5
:1001BC0000800123237010BD0C0000200000000003
:1001CC009018000808B5034B1BB103490348AFF363
:1001DC00008008BD000000001000002090180008EE
:1001EC0053B94AB9002908BF00281CBF4FF0FF3192
:1001FC004FF0FF3000F074B9ADF1080C6DE904CE8E
:10020C0000F006F8DDF804E0DDE9022304B07047E5
:10021C002DE9F047089D04468E46002B4DD18A42AD
:10022C00944669D9B2FA82F252B101FA02F3C2F1E0
:10023C00200120FA01F10CFA02FC41EA030E944071
:10024C004FEA1C48210CBEFBF8F61FFA8CF708FB92
:10025C0016E341EA034306FB07F199420AD91CEB6A
:10026C00030306F1FF3080F01F81994240F21C819C
:10027C00023E63445B1AA4B2B3FBF8F008FB1033E4
:10028C0044EA034400FB07F7A7420AD91CEB040419
:10029C0000F1FF3380F00A81A74240F207816444E9
:1002AC00023840EA0640E41B00261DB1D44000236E
:1002BC00C5E900433146BDE8F0878B4209D9002DD2
:1002CC0000F0EF800026C5E9000130463146BDE85C
:1002DC00F087B3FA83F6002E4AD18B4202D38242C6
:1002EC0000F2F980841A61EB030301209E46002D75
:1002FC00E0D0C5E9004EDDE702B9FFDEB2FA82F2CA
:10030C00002A40F09280A1EB0C014FEA1C471FFA27
:10031C008CFE0126200CB1FBF7F307FB131140EA0E
:10032C0001410EFB03F0884208D91CEB010103F1DB
:10033C00FF3802D2884200F2CB804346091AA4B29D
:10034C00B1FBF7F007FB101144EA01440EFB00FE71
:10035C00A64508D91CEB040400F1FF3102D2A645D6
:10036C0000F2BB800846A4EB0E0440EA03409CE775
:10037C00C6F12007B34022FA07FC4CEA030C20FA22
:10038C0007F401FA06F31C43F9404FEA1C4900FA42
:10039C0006F3B1FBF9F8200C1FFA8CFE09FB1811BF
:1003AC0040EA014108FB0EF0884202FA06F20BD932
:1003BC001CEB010108F1FF3A80F08880884240F282
:1003CC008580A8F102086144091AA4B2B1FBF9F0C6
:1003DC0009FB101144EA014100FB0EFE8E4508D9C1
:1003EC001CEB010100F1FF346CD28E456AD9023846
:1003FC00614440EA0840A0FB0294A1EB0E01A1422B
:10040C00C846A64656D353D05DB1B3EB080261EB98
:10041C000E0101FA07F722FA06F3F1401F43C5E972
:10042C00007100263146BDE8F087C2F12003D840A8
:10043C000CFA02FC21FA03F3914001434FEA1C47EA
:10044C001FFA8CFEB3FBF7F007FB10360B0C43EADC
:10045C00064300FB0EF69E4204FA02F408D91CEB8C
:10046C00030300F1FF382FD29E422DD9023863448A
:10047C009B1B89B2B3FBF7F607FB163341EA03412A
:10048C0006FB0EF38B4208D91CEB010106F1FF3879
:10049C0016D28B4214D9023E6144C91A46EA004670
:1004AC0038E72E46284605E70646E3E61846F8E602
:1004BC004B45A9D2B9EB020864EB0C0E0138A3E74B
:1004CC004646EAE7204694E74046D1E7D0467BE72C
:1004DC00023B614432E7304609E76444023842E7A4
:1004EC00704700BF84B000220192104B196B41F091
:1004FC0001011963196B01F001010191019902923B
:10050C00196B41F004011963196B01F0040102919C
:10051C00029903921A6B42F080021A631B6B03F070
:10052C0080030393039B04B0704700BF0038024064
:10053C0072B6FEE700B595B03022002108A801F094
:10054C0099F900230393049305930693079301935E
:10055C00224A116C41F080511164126C02F08052ED
:10056C000192019A02931E4A116841F440411160B4
:10057C00126802F440420292029A0222089201216D
:10058C000B9110210C910E920F9308231093B4230E
:10059C00119312920423139308A800F019FBB0B91D
:1005AC0000F0D8FAA8B90F23039302230493002375
:1005BC0005934FF4A05306934FF4805307930521F2
:1005CC0003A800F053FD30B915B05DF804FBFFF73C
:1005DC00AFFFFFF7ADFFFFF7ABFF00BF00380240E6
:1005EC000070004008B500F0C1F8FFF7A3FFFFF75B
:1005FC0079FF00F03BF8FEE782B0002100910B4B35
:10060C005A6C42F480425A645A6C02F48042009252
:10061C00009A01911A6C42F080521A641B6C03F020
:10062C0080530193019B02B0704700BF0038024019
:10063C00FEE7FEE7FEE7FEE7FEE770477047704710
:10064C0008B500F0ADF808BD08B5024800F084FF0D
:10065C0008BD00BF28000020034AD2F8883043F4BC
:10066C007003C2F88830704700ED00E008B50A4806
:10067C000A4B03604FF4E133436000238360C36093
:10068C0003610C2242618361C36100F0ABFE00B9CF
:10069C0008BDFFF74DFFFBE728000020004C004091
:1006AC0010B588B000230393049305930693079326
:1006BC000268194B9A4201D008B010BD0024019475
:1006CC0003F5F6331A6C42F400221A641A6C02F425
:1006DC0000220192019A02941A6B42F004021A63EE
:1006EC001B6B03F004030293029B4FF440630393D0
:1006FC0002230493032306930823079303A90748B3
:10070C0000F02AF922462146342000F06DF83420FE
:10071C0000F0A2F8D0E700BF004C004000080240F7
:10072C0010B504460E4B18784FF47A73B3FBF0F304
:10073C000C4A1068B0FBF3F000F09CF868B90F2C71
:10074C0001D901200AE0002221464FF0FF3000F0D1
:10075C004BF8054B1C60002000E0012010BD00BFD1
:10076C0004000020000000200800002008B50B4BFE
:10077C001A6842F400721A601A6842F480621A60B5
:10078C001A6842F480721A60032000F01BF80F20E4
:10079C00FFF7C6FFFFF730FF002008BD003C02400A
:1007AC00034A1168034B1B780B441360704700BF5E
:1007BC006C00002004000020014B1868704700BF3B
:1007CC006C000020074AD36823F4E0631B041B0C65
:1007DC00000200F4E060034343F0BF6343F40033D2
:1007EC00D360704700ED00E000B5194BDB68C3F334
:1007FC000223C3F1070CBCF1040F28BF4FF0040C0B
:10080C0003F1040EBEF1060F18D9033B4FF0FF3E67
:10081C000EFA0CFC21EA0C0199400EFA03F322EAC1
:10082C000303194300280BDB0901C9B200F1604036
:10083C0000F5614080F800135DF804FB0023E5E748
:10084C0000F00F000901C9B2024B1954F4E700BFC4
:10085C0000ED00E014ED00E0002807DB00F01F02C3
:10086C00400901239340024A42F82030704700BFF0
:10087C0000E100E00138B0F1807F0BD24FF0E023B3
:10088C005861054AF02182F8231000209861072254
:10089C001A6170470120704700ED00E070B5044606
:1008AC00866DFFF789FF94F83530DBB2022B06D04A
:1008BC0080236365002384F83430012070BD054625
:1008CC002268136823F0160313602268536923F01F
:1008DC0080035361236CE3B12268136823F008038F
:1008EC0013602268136823F00103136023681B68EC
:1008FC0013F0010F11D0FFF75FFF431B052BF5D948
:10090C0020236365032084F83500002384F83430F9
:10091C00D4E7A36C002BDFD1E3E7E26D3F239340D8
:10092C00B360012384F83530002084F83400C5E727
:10093C0090F83530DBB2022B03D0802343650120C5
:10094C007047052380F835300268136823F00103E3
:10095C00136000207047000000230F2B00F2F18081
:10096C0070B582B061E085685E000324B44025EA6E
:10097C000405CC68B4402C438460456825EA020524
:10098C004C68C4F300129A402A4342605BE0DC08D6
:10099C00083450F8246003F0070295000F22AA4097
:1009AC0026EA020E0A69AA4042EA0E0240F8242006
:1009BC005DE0092200E0002202FA0EF22A43023422
:1009CC00604D45F82420604A94686FEA0C0224EAD2
:1009DC000C054E6816F4801F01D04CEA04055A4CE5
:1009EC00A560E46802EA04054E6816F4001F01D005
:1009FC004CEA0405544CE560646802EA04054E6850
:100A0C0016F4003F01D04CEA04054F4C6560246895
:100A1C0022404D6815F4803F01D04CEA04024A4C48
:100A2C00226001330F2B00F28A8001229A400C685D
:100A3C0004EA020C32EA0404F3D14C6804F0030417
:100A4C00013C012C8FD94A6802F00302032A09D019
:100A5C00C4685D000322AA4024EA02048A68AA4002
:100A6C002243C2604A6802F00302022A8FD0046853
:100A7C004FEA430E032202FA0EF224EA02044A68F9
:100A8C0002F0030202FA0EF2224302604A6812F4E8
:100A9C00403FC6D0002201922C4A546C44F480444E
:100AAC005464526C02F480420192019A9C08A51C79
:100ABC00244A52F8255003F003024FEA820E0F220B
:100ACC0002FA0EF225EA0205214A90423FF473AF76
:100ADC0002F58062904222D002F58062904220D0D2
:100AEC0002F5806290421ED002F5806290421CD0CA
:100AFC0002F5806290421AD002F58062904218D0C2
:100B0C0002F58062904216D002F58062904214D0B9
:100B1C0002F5806290423FF44CAF0A224CE701226E
:100B2C004AE7022248E7032246E7042244E705226B
:100B3C0042E7062240E707223EE708223CE702B0E4
:100B4C0070BD704700380140003C01400038024045
:100B5C000000024010B582B000230193194B1A6CAF
:100B6C0042F080521A641B6C03F080530193019B7A
:100B7C00154B01221A64FFF71FFE0446134B5B68EA
:100B8C0013F4803F08D1FFF717FE001BB0F57A7FF6
:100B9C00F4D9032002B010BD0B4B01225A64FFF7AD
:100BAC000BFE0446094B5B6813F4003F07D1FFF7BB
:100BBC0003FE001BB0F57A7FF4D90320EAE700208E
:100BCC00E8E700BF0038024000000E420070004011
:100BDC00002800F0E08170B582B00446036813F081
:100BEC00010F3BD09F4B9B6803F00C03042B2CD0C4
:100BFC009C4B9B6803F00C03082B21D06368B3F566
:100C0C00803F4FD0B3F5A02F52D0964B1A6822F4E8
:100C1C0080321A601A6822F480221A606368002BF2
:100C2C0050D0FFF7C9FD05468E4B1B6813F4003FEF
:100C3C0014D1FFF7C1FD401B6428F5D90320B1E1A5
:100C4C00884B5B6813F4800FD8D0864B1B6813F469
:100C5C00003F03D06368002B00F09F81236813F0E2
:100C6C00020F54D07F4B9B6813F00C0F3ED07D4B82
:100C7C009B6803F00C03082B33D0E368002B68D07F
:100C8C00794B01221A60FFF797FD0546754B1B68DF
:100C9C0013F0020F54D1FFF78FFD401B0228F5D93A
:100CAC0003207FE16F4A136843F480331360B5E788
:100CBC006C4B1A6842F480221A601A6842F4803233
:100CCC001A60ABE7FFF778FD0546664B1B6813F41B
:100CDC00003FC3D0FFF770FD401B6428F5D90320FB
:100CEC0060E1604B5B6813F4800FC6D15D4B1B68F1
:100CFC0013F0020F03D0E368012B40F05081594AE6
:100D0C00136823F0F803216943EAC10313602368D5
:100D1C0013F0080F42D063696BB3534B0122C3F835
:100D2C00802EFFF749FD05464E4B5B6F13F0020F0B
:100D3C0034D1FFF741FD401B0228F5D9032031E1E6
:100D4C00484A136823F0F803216943EAC10313608E
:100D5C00DDE7454B00221A60FFF72EFD0546414B9F
:100D6C001B6813F0020FD2D0FFF726FD401B0228A0
:100D7C00F5D9032016E13C4B0022C3F8802EFFF777
:100D8C001BFD0546374B5B6F13F0020F06D0FFF7C8
:100D9C0013FD401B0228F5D9032003E1236813F04F
:100DAC00040F77D02F4B1B6C13F0805F33D10023D3
:100DBC0001932C4B1A6C42F080521A641B6C03F09A
:100DCC0080530193019B0125284B1B6813F4807FF2
:100DDC0023D0A368012B34D0052B38D0214B1A6FAC
:100DEC0022F001021A671A6F22F004021A67A36834
:100DFC00002B3DD0FFF7E0FC06461A4B1B6F13F09F
:100E0C00020F46D1FFF7D8FC801B41F28833984281
:100E1C00F3D90320C6E00025D6E7144A136843F43F
:100E2C0080731360FFF7C8FC0646104B1B6813F465
:100E3C00807FCED1FFF7C0FC801B0228F5D90320A0
:100E4C00B0E0084A136F43F001031367CFE7054B7B
:100E5C001A6F42F004021A671A6F42F001021A6705
:100E6C00C5E700BF00380240000047420070004058
:100E7C00FFF7A2FC0646524B1B6F13F0020F08D073
:100E8C00FFF79AFC801B41F288339842F3D9032078
:100E9C0088E0EDB9A369002B00F08380484A926882
:100EAC0002F00C02082A51D0022B17D0454B00221D
:100EBC001A66FFF781FC0446414B1B6813F0007F58
:100ECC0042D0FFF779FC001B0228F5D9032069E01A
:100EDC003B4A136C23F080531364DBE7394B00223D
:100EEC001A66FFF769FC0546354B1B6813F0007F4B
:100EFC0006D0FFF761FC401B0228F5D9032051E016
:100F0C00E369226A1343626A43EA8213A26A5208B3
:100F1C00013A43EA0243E26A43EA0263284A536015
:100F2C00284B01221A66FFF747FC0446244B1B682A
:100F3C0013F0007F06D1FFF73FFC001B0228F5D908
:100F4C0003202FE000202DE000202BE0012B2BD0E4
:100F5C001B4B5B6803F48001E269914226D103F0DC
:100F6C003F02216A8A4223D1616A47F6C0721A4055
:100F7C00B2EB811F1ED103F44031A26A5208013A30
:100F8C00B1EB024F18D103F07063E26AB3EB026F5E
:100F9C0014D1002006E001207047012002E001205E
:100FAC0000E0002002B070BD0120FBE70120F9E752
:100FBC000120F7E70120F5E70120F3E70120F1E735
:100FCC00003802400000474208B5254B9B6803F0EF
:100FDC000C03042B3FD0082B3FD1214B5A6802F055
:100FEC003F025B6813F4800F12D01D4B5968C1F39C
:100FFC0088111C480023A1FB0001FFF7F1F8184BE6
:10100C005B68C3F3014301335B00B0FBF3F025E0F5
:10101C00134B5968C1F3881C4FEA4C11B1EB0C000F
:10102C006EEB0E0E4FEA8E1343EA90638101091AA0
:10103C0063EB0E03DB0043EA5173C90011EB0C0C9C
:10104C0043F10003990200234FEA8C2041EA9C51A2
:10105C00FFF7C6F8D3E7034800E0034808BD00BF1C
:10106C000038024040787D010024F400002800F094
:10107C009B8070B50D4604464F4B1B6803F00F0365
:10108C008B4208D2CBB24C4A1370136803F00F0397
:10109C008B4240F08B80236813F0020F17D013F0B3
:1010AC00040F04D0454A936843F4E05393602368DB
:1010BC0013F0080F04D0414A936843F460439360E3
:1010CC003E4A936823F0F003A1680B4393602368B6
:1010DC0013F0010F32D06368012B21D09A1E012A24
:1010EC0025D9364A126812F0020F61D033498A684A
:1010FC0022F0030213438B60FFF75EFB06462F4B77
:10110C009B6803F00C036268B3EB820F16D0FFF7F9
:10111C0053FB801B41F288339842F0D9032042E004
:10112C00264A126812F4003FE0D101203BE0234A2A
:10113C00126812F0007FD9D1012034E01E4B1B68DD
:10114C0003F00F03AB4207D9EAB21B4B1A701B68B2
:10115C0003F00F03AB422DD1236813F0040F06D01C
:10116C00164A936823F4E053E1680B4393602368B9
:10117C0013F0080F07D0114A936823F460432169D8
:10118C0043EAC1039360FFF71FFF0C4B9B68C3F34B
:10119C0003130B4AD35CD8400A4B18600A4B1868EF
:1011AC00FFF7BEFA002070BD012070470120FAE75E
:1011BC000120F8E70120F6E7003C0240003802402D
:1011CC00A81800080000002008000020014B186837
:1011DC00704700BF0000002008B5FFF7F7FF044B75
:1011EC009B68C3F38223034AD35CD84008BD00BF7D
:1011FC0000380240B818000808B5FFF7E7FF044BA9
:10120C009B68C3F34233034AD35CD84008BD00BF8C
:10121C0000380240B8180008026802F10C0353E8C9
:10122C00003F23F490730C3242E800310029F3D1D3
:10123C00026802F1140353E8003F23F00103143257
:10124C0042E800310029F3D1036B012B05D0202398
:10125C0080F83E30002303637047026802F10C03F0
:10126C0053E8003F23F010030C3242E80031002910
:10127C00F3D1ECE790F83D30DBB2212B01D002200A
:10128C0070478368B3F5805F17D0036A5A1C0262FB
:10129C001A7803685A60C38C9BB2013B9BB2C3841F
:1012AC004BB90268D36823F08003D3600268D3681B
:1012BC0043F04003D360002070470369002BE4D156
:1012CC00036A1B880268C3F308035360036A023382
:1012DC000362E0E738B504460268136923F440530F
:1012EC00C1680B431361836802691343426913435A
:1012FC00C2691A430168CB6823F4164323F00C032C
:10130C001343CB600268536923F4407381690B4328
:10131C0053610368314A934206D002F580629342CE
:10132C0002D0FFF759FF01E0FFF766FFE369B3F561
:10133C00004F29D00021031849411B1841F100012D
:10134C00C90041EA5371DB00181863684FEA830245
:10135C004FEA937341F10001FEF742FF204DA5FBCC
:10136C0000325109642303FB11031B013233A5FB2B
:10137C0003235B0903F0F00202EB011203F00F03ED
:10138C00216813448B6038BD0023021843EB030122
:10139C00121841F10001C90041EA5271D200101833
:1013AC0041F10001626892185B41FEF719FF0C4D88
:1013BC00A5FB00325109642303FB1103DB0032331C
:1013CC00A5FB03235B095A0002F4F87202EB01122D
:1013DC0003F00703216813448B60D4E7001001402D
:1013EC001F85EB5158B310B5044690F83D300BB344
:1013FC00242384F83D302268D36823F40053D3604F
:10140C002046FFF767FF2268136923F490431361AA
:10141C002268536923F02A0353612268D36843F48A
:10142C000053D36000202064202384F83D3084F8DE
:10143C003E3010BD80F83C30FFF732F9D8E7012080
:10144C007047704708B50168CA6822F04002CA604C
:10145C00202280F83D20FFF7F4FF002008BD7047E4
:10146C00704708B5806B0023C385C384FFF7F8FF72
:10147C0008BD704790F83E30DBB2222B67D18368F1
:10148C00B3F5805F4DD0826AB3F5805F04D0002B3A
:10149C0054D10369002B51D103685B681370836AC4
:1014AC0001338362C38D9BB2013B9BB2C385002B7E
:1014BC004FD100B583B00268D36823F02003D3600A
:1014CC000268D36823F48073D3600268536923F0F5
:1014DC0001035361202380F83E30036B012B33D181
:1014EC0000230363026802F10C0353E8003F23F06E
:1014FC0010030C3242E800310029F3D103681A685A
:10150C0012F0100F06D0002201921A6801925B684B
:10151C000193019B818DFFF7ACFF002003B05DF8B8
:10152C0004FB0269002AAED1826A03685B68C3F3CC
:10153C0008031380836A02338362B3E703685B6832
:10154C0003F07F031370AAE7FFF789FFE5E702209A
:10155C00704700207047000030B583B00446026825
:10156C001368D068516913F00F0505D113F0200FE3
:10157C0002D010F0200F19D12DB111F0010119D1A9
:10158C0010F4907F16D1216B01297DD013F0800FC0
:10159C0003D010F0800F40F0158113F0400F03D0F2
:1015AC0010F0400F40F0128103B030BD2046FFF721
:1015BC0061FFF9E713F0010F06D010F4807F03D020
:1015CC00226C42F00102226413F0040F04D019B112
:1015DC00226C42F00202226413F0020F04D019B103
:1015EC00226C42F00402226413F0080F07D010F0B2
:1015FC00200F00D119B1226C42F008022264226C37
:10160C00002AD1D013F0200F02D010F0200F29D1D6
:10161C0023685B6903F04003226C12F0080F00D1C1
:10162C0063B32046FFF7F8FD23685B6913F0400FA6
:10163C0020D0226802F1140353E8003F23F040034A
:10164C00143242E800310029F3D1A36B73B1614A23
:10165C001A65A06BFFF76CF90028A5D0A06B036D81
:10166C009847A1E72046FFF705FFD1E72046FFF793
:10167C00F7FE99E72046FFF7F3FE95E72046FFF7C4
:10168C00EFFE002323648FE713F0100F3FF47EAFBF
:10169C0010F0100F3FF47AAF0023019313680193FD
:1016AC0053680193019B536913F0400F50D0A26B08
:1016BC0013685B689BB2002B3FF476AFA18D994207
:1016CC007FF672AFE385D369B3F5807F37D022689C
:1016DC0002F10C0353E8003F23F480730C3242E810
:1016EC0000310029F3D1226802F1140353E8003FC2
:1016FC0023F00103143242E800310029F3D12268AF
:10170C0002F1140353E8003F23F04003143242E883
:10171C0000310029F3D1202384F83E3000232363C9
:10172C00226802F10C0353E8003F23F010030C3243
:10173C0042E800310029F3D1A06BFFF7AFF8A18D7F
:10174C00E38D9BB2C91A89B22046FFF792FE2BE7B4
:10175C00A18DE38D9BB2C91A89B2E38D9BB2002B8C
:10176C003FF422AF00293FF41FAF226802F10C03B3
:10177C0053E8003F23F490730C3242E80030002809
:10178C00F3D1226802F1140353E8003F23F0010364
:10179C00143242E800300028F3D1202384F83E3084
:1017AC0000232363226802F10C0353E8003F23F06B
:1017BC0010030C3242E800300028F3D12046FFF72A
:1017CC0058FEF1E62046FFF755FDEDE62046FFF703
:1017DC0039FEE9E66F140008DFF834D00D480E49E5
:1017EC000E4A002302E0D458C4500433C4188C426F
:1017FC00F9D30B4A0B4C002301E013600432A242D4
:10180C00FBD3FEF729FF00F011F8FEF7EBFE704753
:10181C0000000320000000200C000020D01800085D
:10182C000C00002070000020FEE7000070B50D4D8C
:10183C000D4C641BA4100026A64209D10B4D0C4C78
:10184C0000F020F8641BA4100026A64205D170BD40
:10185C0055F8043B98470136EEE755F8043B98479A
:10186C000136F2E7C8180008C8180008C8180008A4
:10187C00CC18000802440346934200D1704703F889
:10188C00011BF9E7F8B500BFF8BC08BC9E467047D1
:0C189C00F8B500BFF8BC08BC9E467047C1
:1018A8000000000000000000010203040607080908
:0818B80000000000010203041E
:0818C0005CE9FF7F010000005C
:0418C800D101000842
:0418CC00AD01000862
:0C18D0000024F4000100000010000000E3
:04000005080017E5F3
:00000001FF
