:020000040800F2
:1000000000000320F9300008711C0008731C000870
:10001000751C0008771C0008791C0008000000000F
:100020000000000000000000000000007B1C000831
:100030007D1C0008000000007F1C0008811C0008D7
:1000400049310008493100084931000849310008A8
:100050004931000849310008493100084931000898
:100060004931000849310008493100084931000888
:100070004931000849310008493100084931000878
:100080004931000849310008493100084931000868
:100090004931000849310008493100084931000858
:1000A0004931000849310008493100084931000848
:1000B0004931000849310008493100084931000838
:1000C0004931000849310008493100084931000828
:1000D0004931000849310008493100084931000818
:1000E0004931000849310008493100084931000808
:1000F00049310008493100084931000849310008F8
:1001000049310008493100084931000849310008E7
:10011000891C0008991C0008493100084931000871
:1001200049310008493100084931000849310008C7
:1001300049310008493100084931000849310008B7
:1001400049310008493100084931000849310008A7
:100150004931000849310008493100084931000897
:100160004931000849310008493100084931000887
:1001700049310008493100084931000800000000F9
:100180004931000849310008493100084931000867
:100190004931000849310008493100084931000857
:0C01A000000000000000000049310008D1
:1001AC0010B5054C237833B9044B13B10448AFF3A5
:1001BC0000800123237010BD1000002000000000FF
:1001CC00E031000808B5034B1BB103490348AFF3FA
:1001DC00008008BD0000000014000020E031000881
:1001EC0081F0004102E000BF83F0004330B54FEADC
:1001FC0041044FEA430594EA050F08BF90EA020F49
:10020C001FBF54EA000C55EA020C7FEA645C7FEADB
:10021C00655C00F0E2804FEA5454D4EB5555B8BFFE
:10022C006D420CDD2C4480EA020281EA030382EA6F
:10023C00000083EA010180EA020281EA0303362D01
:10024C0088BF30BD11F0004F4FEA01314FF4801CD4
:10025C004CEA113102D0404261EB410113F0004FE6
:10026C004FEA03334CEA133302D0524263EB43039D
:10027C0094EA050F00F0A780A4F10104D5F1200E3B
:10028C000DDB02FA0EFC22FA05F2801841F1000196
:10029C0003FA0EF2801843FA05F359410EE0A5F16A
:1002AC0020050EF1200E012A03FA0EFC28BF4CF09B
:1002BC00020C43FA05F3C01851EBE37101F0004551
:1002CC0007D54FF0000EDCF1000C7EEB00006EEB5E
:1002DC000101B1F5801F1BD3B1F5001F0CD34908E8
:1002EC005FEA30004FEA3C0C04F101044FEA44523F
:1002FC0012F5800F80F09A80BCF1004F08BF5FEAC6
:10030C00500C50F1000041EB045141EA050130BDA5
:10031C005FEA4C0C404141EB0101013C28BFB1F5B7
:10032C00801FE9D291F0000F04BF01460020B1FA02
:10033C0081F308BF2033A3F10B03B3F120020CDAD5
:10034C000C3208DD02F1140CC2F10C0201FA0CF0B3
:10035C0021FA02F10CE002F11402D8BFC2F1200C18
:10036C0001FA02F120FA0CFCDCBF41EA0C019040CE
:10037C00E41AA2BF01EB0451294330BD6FEA040417
:10038C001F3C1CDA0C340EDC04F11404C4F1200202
:10039C0020FA04F001FA02F340EA030021FA04F314
:1003AC0045EA030130BDC4F10C04C4F1200220FA6B
:1003BC0002F001FA04F340EA0300294630BD21FAA9
:1003CC0004F0294630BD94F0000F83F4801306BF6F
:1003DC0081F480110134013D4EE77FEA645C18BF63
:1003EC007FEA655C29D094EA050F08BF90EA020FFA
:1003FC0005D054EA000C04BF1946104630BD91EAF2
:10040C00030F1EBF0021002030BD5FEA545C05D1F4
:10041C004000494128BF41F0004130BD14F5800433
:10042C003CBF01F5801130BD01F0004545F0FE41A7
:10043C0041F470014FF0000030BD7FEA645C1ABFDC
:10044C00194610467FEA655C1CBF0B46024650EA13
:10045C00013406BF52EA033591EA030F41F400213F
:10046C0030BD00BF90F0000F04BF0021704730B5C5
:10047C004FF4806404F132044FF000054FF000019A
:10048C0050E700BF90F0000F04BF0021704730B55B
:10049C004FF4806404F1320410F0004548BF404230
:1004AC004FF000013EE700BF42004FEAE2014FEA85
:1004BC0031014FEA02701FBF12F07F4393F07F4F60
:1004CC0081F06051704732F07F4208BF704793F063
:1004DC007F4F04BF41F40021704730B54FF4607476
:1004EC0001F0004521F000411CE700BF50EA010279
:1004FC0008BF704730B54FF000050AE050EA010222
:10050C0008BF704730B511F0004502D5404261EB91
:10051C0041014FF4806404F132045FEA915C3FF4D2
:10052C00D8AE4FF003025FEADC0C18BF03325FEA6F
:10053C00DC0C18BF033202EBDC02C2F1200300FA20
:10054C0003FC20FA02F001FA03FE40EA0E0021FA45
:10055C0002F11444BDE600BF53B94AB9002908BFE3
:10056C0000281CBF4FF0FF314FF0FF3000F074B982
:10057C00ADF1080C6DE904CE00F006F8DDF804E0EE
:10058C00DDE9022304B070472DE9F047089D0446CD
:10059C008E46002B4DD18A42944669D9B2FA82F22A
:1005AC0052B101FA02F3C2F1200120FA01F10CFA66
:1005BC0002FC41EA030E94404FEA1C48210CBEFB9E
:1005CC00F8F61FFA8CF708FB16E341EA034306FB27
:1005DC0007F199420AD91CEB030306F1FF3080F0B6
:1005EC001F81994240F21C81023E63445B1AA4B203
:1005FC00B3FBF8F008FB103344EA034400FB07F7A5
:10060C00A7420AD91CEB040400F1FF3380F00A81E5
:10061C00A74240F207816444023840EA0640E41BDA
:10062C0000261DB1D4400023C5E900433146BDE886
:10063C00F0878B4209D9002D00F0EF800026C5E928
:10064C00000130463146BDE8F087B3FA83F6002E40
:10065C004AD18B4202D3824200F2F980841A61EBB8
:10066C00030301209E46002DE0D0C5E9004EDDE7D6
:10067C0002B9FFDEB2FA82F2002A40F09280A1EBBE
:10068C000C014FEA1C471FFA8CFE0126200CB1FB13
:10069C00F7F307FB131140EA01410EFB03F088420C
:1006AC0008D91CEB010103F1FF3802D2884200F299
:1006BC00CB804346091AA4B2B1FBF7F007FB10112B
:1006CC0044EA01440EFB00FEA64508D91CEB0404C9
:1006DC0000F1FF3102D2A64500F2BB800846A4EB24
:1006EC000E0440EA03409CE7C6F12007B34022FA0F
:1006FC0007FC4CEA030C20FA07F401FA06F31C433E
:10070C00F9404FEA1C4900FA06F3B1FBF9F8200C4A
:10071C001FFA8CFE09FB181140EA014108FB0EF090
:10072C00884202FA06F20BD91CEB010108F1FF3AE0
:10073C0080F08880884240F28580A8F102086144EC
:10074C00091AA4B2B1FBF9F009FB101144EA0141FA
:10075C0000FB0EFE8E4508D91CEB010100F1FF34A5
:10076C006CD28E456AD90238614440EA0840A0FB3D
:10077C000294A1EB0E01A142C846A64656D353D013
:10078C005DB1B3EB080261EB0E0101FA07F722FA37
:10079C0006F3F1401F43C5E9007100263146BDE860
:1007AC00F087C2F12003D8400CFA02FC21FA03F3C3
:1007BC00914001434FEA1C471FFA8CFEB3FBF7F044
:1007CC0007FB10360B0C43EA064300FB0EF69E4269
:1007DC0004FA02F408D91CEB030300F1FF382FD202
:1007EC009E422DD9023863449B1B89B2B3FBF7F6AA
:1007FC0007FB163341EA034106FB0EF38B4208D983
:10080C001CEB010106F1FF3816D28B4214D9023EC3
:10081C006144C91A46EA004638E72E46284605E7E1
:10082C000646E3E61846F8E64B45A9D2B9EB0208B2
:10083C0064EB0C0E0138A3E74646EAE7204694E742
:10084C004046D1E7D0467BE7023B614432E7304675
:10085C0009E76444023842E7704700BF84B00022C5
:10086C000092154B196B41F004011963196B01F0DF
:10087C000401009100990192196B41F00101196377
:10088C00196B01F00101019101990292196B41F070
:10089C0008011963196B01F0080102910299039286
:1008AC001A6B42F080021A631B6B03F080030393F4
:1008BC00039B04B0704700BF003802402DE9F04F95
:1008CC00C9B08246D0F808B0C3680193036902939B
:1008DC004369039383690493C3690593036A06937D
:1008EC00436A0793002205E051F8223008A840F82B
:1008FC00223001320F2AF7DD102222E0931E08A9C4
:10090C0051F823104FEAF14383EA714383EA9123B0
:10091C00D11F08A850F821100B44A2F10F0150F878
:10092C0021004FEAB04181EAF01181EAD0010B4479
:10093C00A2F1100108A850F821100B4440F8223005
:10094C0001323F2ADADDDDF81CE0069E059F049A91
:10095C00DDF80C80029C019DDC4600202FE04FEA64
:10096C00F22383EAB21383EA7263734402EA070147
:10097C0026EA020E81EA0E010B44234951F820109D
:10098C000B4408A951F820100B444FEA7C3181EA42
:10099C00BC0181EABC5185EA040E0EEA0C0E05EA94
:1009AC0004098EEA090E71440130B6463E461746DC
:1009BC0008EB0302A0462C46654603EB010C3F28CE
:1009CC00CDDD0CEB0B03CAF80830019B1D44CAF8B3
:1009DC000C50029B1C44CAF81040039B4344CAF8B9
:1009EC001430049B1A44CAF81820059B1F44CAF8FB
:1009FC001C70069B1E44CAF82060079B7344CAF8FF
:100A0C00243049B0BDE8F08F043200082DE9F04FD6
:100A1C00C3B00090002800F09C820F46904602F173
:100A2C00020902F58B7602F21D1301930023289321
:100A3C002993A74B2A93A74B2B93A74B2C93A74BEC
:100A4C002D93A74B2E93A74B2F93A74B309303F1CA
:100A5C007453A3F52303A3F69243319300F1100BC7
:100A6C004FF4807328934FF0000A20250CE02246A7
:100A7C00594632AB03EB0A0002F096FBA244A344A6
:100A8C002D1BBAF1400F06D015B3CAF14004AC428D
:100A9C00EDD92C46EBE700230F2B12DC32A800EB30
:100AAC00830112AC04EB830291F803C004F823C059
:100ABC008C7854704978917010F82310D1700133F0
:100ACC00EAE712A928A8FFF7F9FE4FF0000ADBE7C6
:100ADC00289B03F150022892934202D9299A0132A1
:100AEC002992C3F3C50B4FF00A0A0DE02246494682
:100AFC0032AB03EB0B0002F057FBA344A144AAEB6F
:100B0C00040ABBF1400F22D0BAF1000F21D0CBF177
:100B1C0040045445EAD95446E8E732A800EB830177
:100B2C0012AC04EB830291F803C004F823C08C7858
:100B3C0054704978917010F82310D17001330F2B39
:100B4C00EBDD12A928A8FFF7B9FEAB46DCE70023C2
:100B5C00F5E708F10C0B98F80390289D05EBC903F9
:100B6C0028939D4202D9299B01332993C5F3C505CE
:100B7C000BE02246594632AB581902F015FB2544BE
:100B8C00A344A9EB0409402D21D0B9F1000F20D0CA
:100B9C00C5F140044C45ECD94C46EAE732A800EBD1
:100BAC00830112AC04EB8302CD7804F823508C78CB
:100BBC0054704978917010F82310D17001330F2BB9
:100BCC00ECDD12A928A8FFF779FE5546DDE70023D6
:100BDC00F5E708F58A7B289D05F1100328939D42C3
:100BEC0002D9299B01332993C5F3C5054FF0020A9D
:100BFC000BE02246594632AB581902F0D5FA25447F
:100C0C00A344AAEB040A402D21D0BAF1000F20D046
:100C1C00C5F140045445ECD95446EAE732A800EB40
:100C2C00830112AC04EB8302CD7804F823508C784A
:100C3C0054704978917010F82310D17001330F2B38
:100C4C00ECDD12A928A8FFF739FE4D46DDE700239D
:100C5C00F5E7289D05F1380328939D4202D9299B7D
:100C6C0001332993C5F3C5054FF007090BE0224664
:100C7C00314632AB581902F097FA25442644A9EBB9
:100C8C000409402D21D0B9F1000F2FD0C5F140043B
:100C9C004C45ECD94C46EAE732A800EB830112AC88
:100CAC0004EB8302CD7804F823508C785470497887
:100CBC00917010F82310D17001330F2BECDD12A9B9
:100CCC0028A8FFF7FBFD5546DDE70023F5E700BF3D
:100CDC0067E6096A85AE67BB72F36E3C3AF54FA5C1
:100CEC007F520E518C68059BABD9831F289BDC0867
:100CFC00C4F1770404F03F0480238DF84830472278
:100D0C0000210DF1490002F05DFA289E04F588736C
:100D1C006B4403F8C06C320A04F20F136B4403F8F3
:100D2C00C02C320C04F587736B4403F8C02C320EC4
:100D3C0004F20D136B4403F8C02C299B04F5867246
:100D4C006A4402F8C03C190A04F20B126A4402F815
:100D5C00C01C190C04F585726A4402F8C01C1B0EE9
:100D6C0004F209120DEB020505F8C03C093406EB40
:100D7C00C40328939E4202D9299B01332993C6F3BD
:100D8C00C5060DF1480A0AE02A46514632AB9819BD
:100D9C0002F00AFA2E44AA44641B402E20D00CB355
:100DAC00C6F14005A542EFD92546EDE732A800EB88
:100DBC00830102AA02EB8302CD7802AE06F823501F
:100DCC008D7855704978917010F82310D1700133DB
:100DDC000F2BEBDD02A928A8FFF770FD4E46DEE7CE
:100DEC000023F5E79DF8AB308DF898309DF8AA30CC
:100DFC008DF899309DF8A9308DF89A309DF8A8306F
:100E0C008DF89B309DF8AF308DF89C309DF8AE304E
:100E1C008DF89D300622019926A802F0B5F938B15B
:100E2C000223009A82F83430002043B0BDE8F08FE2
:100E3C0098F8165100220023CDE9242308F2171448
:100E4C00D8F817012490B8F81B31ADF894300FB1D5
:100E5C00002307E00323009A82F834300020E4E7F3
:100E6C0001339BB23988994215D998F8070003EBE6
:100E7C00C3023A44D2789042F2D198F8080003EBBE
:100E8C00C3023A4412799042EAD103EBC3063E44C2
:100E9C00B278AA42E4D1994227D10F2919D8249AC1
:100EAC002D4E9619259840F1000C009A9068D26846
:100EBC0086427CEB020212D398F8070003EBC302C4
:100ECC003A44D07098F8080010719570013139804F
:100EDC0020E00423009A82F834300020A5E7052393
:100EEC00009A82F8343000209FE700200021CDE9E1
:100EFC00120103EBC3023A44D2F805001290B2F887
:100F0C000920ADF84C20249A9042259A139971EB44
:100F1C00020218D203EBC3033B44D8F81721C3F8E1
:100F2C000520A288A3F80920249A259B009CA06880
:100F3C00E1689042994101D2A260E3600120009BDC
:100F4C0083F8340071E70623009A82F834300020CD
:100F5C006BE7012069E700BF808D5B002DE9F04154
:100F6C0005460C461F46069E00230B70CB780F2BB4
:100F7C0000F28180DFE813F01000100030004F0009
:100F8C006D009D00B000C300D600F80019013F01B0
:100F9C005C0196019601D201FD2A0FD0FE2A6AD17E
:100FAC000223E3700023C3708270237B43F00103A0
:100FBC0023734FF0FF33037043705CE00223E37044
:100FCC000023C3708270237B23F0010323734FF043
:100FDC00FF33037043704EE0C2700023237103880B
:100FEC00D9B24A4082EA0212D2B21B0A43EA022365
:100FFC001BB283EAC20383EA12130380237B13F030
:10100C00010F05D00023037143710523E37032E017
:10101C000323E3702FE0027132F0010307D0A378B1
:10102C000133A370002323700123E37023E00388B2
:10103C00D9B24A4082EA0212D2B21B0A43EA022314
:10104C001BB283EAC20383EA121303800423E37006
:10105C0011E042710388D9B24A4082EA0212D2B23C
:10106C001B0A43EA02231BB283EAC20383EA12136C
:10107C0003800523E3702378012B00F084810FB1EA
:10108C00EB78FB7066B1E378F37023793371637995
:10109C000133737123893381A3787381237B337379
:1010AC000023A3702378022B00F076812078BDE812
:1010BC00F08182710388D9B24A4082EA0212D2B21C
:1010CC001B0A43EA02231BB283EAC20383EA12130C
:1010DC0003800623E370CEE7C2710388D9B24A407D
:1010EC0082EA0212D2B21B0A43EA02231BB283EA3F
:1010FC00C20383EA121303800723E370BBE7027277
:10110C000388D9B24A4082EA0212D2B21B0A43EADD
:10111C0002231BB283EAC20383EA1213038008235F
:10112C00E370A8E7427200238372C3720388D9B2BA
:10113C004A4082EA0212D2B21B0A43EA02231BB2D1
:10114C0083EAC20383EA12130380237B13F0010F9B
:10115C0007D0C37813B10B23E3708CE70C23E37037
:10116C0089E70923E37086E7437A817A43EA01230E
:10117C00C17A43EA014343EA02214372C1F30723D4
:10118C008372090CC1720388D9B24A4082EA0212F6
:10119C00D2B21B0A43EA02231BB283EAC20383EADC
:1011AC00121303800A23E37065E7437A817A43EADA
:1011BC000123C17A43EA014343EA02414372C3F378
:1011CC00072383720B0CC3720388D9B24A4082EA9C
:1011DC000212D2B21B0A43EA02231BB283EAC203F5
:1011EC0083EA12130380C37813B10B23E37042E735
:1011FC000C23E3703FE700F10C032179481C2071AC
:10120C005A542B88D9B24A4082EA0212D2B21B0A33
:10121C0043EA02231BB283EAC20383EA12132B8034
:10122C002279EB789A427FF426AF0C23E37022E705
:10123C00437A817A43EA0123C17A43EA0143012BC1
:10124C002AD15B48FB212B885FFA83FC81EA0C01D5
:10125C0081EA0111C9B21B0A43EA01231BB283EADA
:10126C00C10383EA11132B802B88DBB29A4216D070
:10127C000E23E37085F8142100283FF4FCAE23798B
:10128C0082799342BFF4F7AE05F10C00D21A00211B
:10129C00184401F097FFEEE600200146D3E70D233A
:1012AC00E370E7E70E2B04D093B20188B3EB112F58
:1012BC0012D00223237085F815212B7913F0010F1E
:1012CC000DD00F23E3700D2363732378022B3FF4AF
:1012DC00D2AE00232370CEE601232370EBE7236903
:1012EC0083B11A6B4AB16B7AA97A43EA0123E97A82
:1012FC0043EA01412046904720B92378022B01D0C4
:10130C00032323700123E370002F3FF4B4AE40F2AB
:10131C0023122946384601F047FFACE6637BC3F144
:10132C000D03034483F81621637B013BDBB263732B
:10133C00002B7FF4A0AE024661692069FFF766FBC3
:10134C00804660B923691B6B4BB16A7AA97A42EA71
:10135C000122E97A42EA01412046984710B9B8F1D6
:10136C00000F0DD0012323700123E370002F3FF4F5
:10137C0082AE40F223122946384601F015FF7AE678
:10138C0003232370F0E7AB79637123890BB9002237
:10139C0062810133238172E6002F3FF487AE95F80A
:1013AC00143195F8152143EA02233B807EE600BFF9
:1013BC00F831000808B5437A827A43EA0223C27AEC
:1013CC0043EA0243012B00D008BDC278084B002130
:1013DC00196059609960D96019615961182A28BF40
:1013EC00182200F10C01184601F0DEFEECE700BFFC
:1013FC00300000202E4BD3F84031984200D070477B
:10140C0030B583B004462A4991F8445101F2451095
:10141C0001F51A71009103462A46FFF79FFD831EC2
:10142C00DBB2012B22D900283DD194F83E30DBB23F
:10143C00202B19D1002323631E4AA2620122A2850C
:10144C00E2852364222384F83E302268D36843F477
:10145C008073D3602268536943F00103536122689F
:10146C00D36843F02003D36003B030BD104B93F826
:10147C006A22013283F86A22002283F86822012250
:10148C0083F86B22FD2D01D00020CCE7022283F8DB
:10149C006B22002283F848214FF0FF3283F845215C
:1014AC0083F84621F0E70448FFF784FFBDE700BF4F
:1014BC00EC000020300200203102002072B6FEE762
:1014CC0000B595B03022002108A801F07BFE002366
:1014DC00039304930593069307930193224A116C8B
:1014EC0041F080511164126C02F080520192019A09
:1014FC0002931E4A116841F440411160126802F4D3
:10150C0040420292029A0222089201210B91102170
:10151C000C910E920F9308231093B42311931292F3
:10152C000423139308A800F0EBFEB0B900F0AAFE58
:10153C00A8B90F23039302230493002305934FF4BC
:10154C00A05306934FF480530793052103A801F091
:10155C0025F930B915B05DF804FBFFF7AFFFFFF7C5
:10156C00ADFFFFF7ABFF00BF00380240007000403A
:10157C002DE98048C9B000F07DFCFFF7A1FFFFF713
:10158C006DF900F095FB00F0ADFBAF4B0020002196
:10159C00C3E90001C3E90201C3E904010021AB481E
:1015AC0001F060FD0121AA4801F05CFD002001F072
:1015BC0065FD012001F062FDBFE00022B9B1FE2300
:1015CC008DF8143018248DF81540A24B93F82E3159
:1015DC008DF8163001238DF817308DF818308DF8F2
:1015EC00193005202CE00022E8E70122E6E702B1E1
:1015FC000121182401E0013CE4B2012C05D9924BE5
:10160C00234413F8013C002BF5D0FD238DF8143046
:10161C008DF815408DF8161000238DF817308D4974
:10162C0091F82E118DF8181001218DF819108DF8E4
:10163C001A108DF81B108DF81C308DF81D300920F8
:10164C00844991F82E31013381F82E3185B2294627
:10165C004FF6FF730DF1150610E016F8011BDFB203
:10166C00794081EA0111C9B21B0A43EA01231BB27A
:10167C0083EAC10383EA11139BB2614601F1FF3C7B
:10168C001FFA8CFC0029E8D1A6B23146DFF8B8C1AC
:10169C0010E01CF8011BDFB2794081EA0111C9B2DC
:1016AC001B0A83EA01231BB283EAC10383EA1113E9
:1016BC009BB2714601F1FF3E1FFA8EFE0029E8D164
:1016CC00D9B281F0FB0181EA0111C9B21B0A83EA8C
:1016DC0001231BB283EAC10383EA11138DF8043092
:1016EC00C3F307238DF80530002A53D100270135A9
:1016FC004FF0FF332A4605A95648006801F07DFAE1
:10170C000228F5D04FF0FF3332464F49514800685C
:10171C0001F073FA0228F5D04FF0FF33022201A931
:10172C004C48006801F069FA0228F5D0002F40F00F
:10173C006D824FF4FA7000F0C9FB434C0022464B0B
:10174C00D4E90001FEF752FDC4E900010022424B2E
:10175C00D4E90201FEF74AFDC4E9020100223E4B26
:10176C00D4E90401FEF742FDC4E90401394B93F8B6
:10177C00343113F002017FF420AF364BD3F83831FB
:10178C00002B3FF430AF1B7813F0010F7FF42DAF1B
:10179C00002213E72F4BD3F8383100F10109002B4D
:1017AC0000F032821F7817F00107A0D05A788DF81C
:1017BC002020D3E90201CDE902010298CDF82100E5
:1017CC00BDF80C20ADF825209A68D968013241F19A
:1017DC0000019A60D96000222E922F921F4A3092FB
:1017EC001F4A31921F4A32921F4A33921F4A349237
:1017FC001F4A35921F4A369202F17452A2F5230207
:10180C00A2F69242379203F110074FF480732E9395
:10181C004FF0000B4FF020080DE05246394638AB24
:10182C0003EB0B0001F0C0FCD3445744A8EB0A08AF
:10183C00BBF1400F3ED0B8F1000F3DD0CBF1400AC8
:10184C00C245EAD9C246E8E7480000206000002003
:10185C00A4000020EC0000200000F03F67E6096ABD
:10186C0085AE67BB72F36E3C3AF54FA57F520E51B5
:10187C008C68059BABD9831F38A800EB83010DF155
:10188C00700C0CEB830291F803E00CF823E091F858
:10189C0002C082F801C04978917010F82310D17001
:1018AC0001330F2BE8DD1CA92EA8FFF707F84FF02A
:1018BC00000BC0E70023F4E74F462E9B03EBC90057
:1018CC002E90834202D92F9A01322F92C3F3C50B6B
:1018DC000DF114090DE05246494638AB03EB0B00F1
:1018EC0001F062FCD344D144A7EB0A07BBF1400FD3
:1018FC0023D027B3CBF1400ABA45ECD9BA46EAE774
:10190C0038A800EB83010DF1700C0CEB830291F8FD
:10191C0003E00CF823E091F802C082F801C049788A
:10192C00917010F82310D17001330F2BE8DD1CA936
:10193C002EA8FEF7C3FFC346DBE70023F5E7A0465E
:10194C002E9B03EBC4042E94A34202D92F9A01328E
:10195C002F92C3F3C50AB34C0DE04A46214638AB6F
:10196C0003EB0A0001F020FCCA444C44A8EB090824
:10197C00BAF1400F08D0B8F1000F24D0CAF14009D9
:10198C00C145EAD9C146E8E700230F2B15DC38A87E
:10199C0000EB83010DF1700C0CEB830291F803E06A
:1019AC000CF823E091F802C082F801C049789170DC
:1019BC0010F82310D1700133E7E71CA92EA8FEF70D
:1019CC007DFFBA46D7E72E9B03F110022E9293426D
:1019DC0002D92F9A01322F92C3F3C50A01AC022708
:1019EC000DE04A46214638AB03EB0A0001F0DCFB64
:1019FC00CA444C44A7EB0907BAF1400F23D027B3D4
:101A0C00CAF14009B945ECD9B946EAE738A800EB68
:101A1C0083010DF1700C0CEB830291F803E00CF8D0
:101A2C0023E091F802C082F801C04978917010F857
:101A3C002310D17001330F2BE8DD1CA92EA8FEF763
:101A4C003DFFC246DBE70023F5E72E9B03F138028E
:101A5C002E92934202D92F9A01322F92C3F3C50AC8
:101A6C000DF1200807240DE04A46414638AB03EB44
:101A7C000A0001F099FBCA44C844A4EB0904BAF16A
:101A8C00400F23D024B3CAF14009A145ECD9A1469B
:101A9C00EAE738A800EB83010DF1700C0CEB830224
:101AAC0091F803E00CF823E091F802C082F801C031
:101ABC004978917010F82310D17001330F2BE8DDA9
:101ACC001CA92EA8FEF7FAFEBA46DBE70023F5E7C1
:101ADC002E9BDF08C7F1770707F03F0780238DF8AF
:101AEC007030472200210DF1710001F06BFB2E9B31
:101AFC0007F594726A4402F8B03C190A07F22712EF
:101B0C006A4402F8B01C190C07F593726A4402F887
:101B1C00B01C190E07F225126A4402F8B01C2F9A59
:101B2C0007F59271694401F8B02C100A07F22311E1
:101B3C00694401F8B00C100C07F59171694401F877
:101B4C00B00C120E07F221110DEB010808F8B02CA5
:101B5C00093703EBC7022E92934202D92F9A013216
:101B6C002F92C3F3C50A0DF170080DE04A464146A9
:101B7C0038AB03EB0A0001F017FBCA44C844A7EBCF
:101B8C000907BAF1400F06D027B3CAF14009B9458D
:101B9C00ECD9B946EAE700230F2B15DC38A800EB8B
:101BAC0083010DF1300C0CEB830291F803E00CF87F
:101BBC0023E091F802C082F801C04978917010F8C6
:101BCC002310D1700133E7E70CA92EA8FEF776FE9F
:101BDC00A246D9E79DF8C3308DF827309DF8C23066
:101BEC008DF828309DF8C1308DF829309DF8C03023
:101BFC008DF82A309DF8C7308DF82B309DF8C63003
:101C0C008DF82C300D2772E5002770E5BFB24FF030
:101C1C00FF333A4608A90448006800F0EEFF02289A
:101C2C00F5D086E548000020EC00002082B00021B1
:101C3C0000910B4B5A6C42F480425A645A6C02F479
:101C4C0080420092009A01911A6C42F080521A6400
:101C5C001B6C03F080530193019B02B0704700BFD3
:101C6C0000380240FEE7FEE7FEE7FEE7FEE77047BE
:101C7C007047704708B500F017F908BD08B5024861
:101C8C0001F0B0F808BD00BF6000002008B50248A4
:101C9C0001F0A8F808BD00BFA4000020034AD2F848
:101CAC00883043F47003C2F88830704700ED00E0D0
:101CBC0008B50A480A4B03604FF4E1334360002334
:101CCC008360C36003610C2242618361C36100F0D5
:101CDC0065FF00B908BDFFF7F1FBFBE760000020D2
:101CEC00004C004008B50A480A4B03604FF4E1333E
:101CFC00436000238360C36003610C2242618361F3
:101D0C00C36100F04BFF00B908BDFFF7D7FBFBE741
:101D1C00A400002000500040F0B58BB000230593C8
:101D2C00069307930893099303683A4A934204D0A5
:101D3C00394A93422DD00BB0F0BD00240094374BA0
:101D4C001A6C42F400221A641A6C02F400220092FB
:101D5C00009A01941A6B42F004021A631B6B03F095
:101D6C0004030193019B4FF44063059302230693F4
:101D7C00032308930823099305A9294800F084F943
:101D8C0022462146342000F0C7F8342000F0FCF83D
:101D9C00D1E700240294214B1A6C42F480121A648D
:101DAC001A6C02F480120292029A03941A6B42F09B
:101DBC0004021A631A6B02F004020392039A04944D
:101DCC001A6B42F008021A631B6B03F008030493AE
:101DDC00049B4FF48053059302270697032608961D
:101DEC000825099505A90E4800F04EF90423059322
:101DFC00069707940896099505A90A4800F044F936
:101E0C0022462146352000F087F8352000F0BCF83A
:101E1C0091E700BF004C00400050004000380240E9
:101E2C0000080240000C024010B504460E4B187816
:101E3C004FF47A73B3FBF0F30C4A1068B0FBF3F079
:101E4C0000F0B0F868B90F2C01D901200AE000228B
:101E5C0021464FF0FF3000F05FF8054B1C6000206E
:101E6C0000E0012010BD00BF040000200000002095
:101E7C000800002008B50B4B1A6842F400721A6077
:101E8C001A6842F480621A601A6842F480721A600E
:101E9C00032000F02FF80F20FFF7C6FFFFF7C6FE58
:101EAC00002008BD003C0240034A1168034B1B781C
:101EBC000B441360704700BFE800002004000020B2
:101ECC00014B1868704700BFE800002038B5044685
:101EDC00FFF7F6FF0546B4F1FF3F02D0044B1B7829
:101EEC001C44FFF7EDFF401BA042FAD338BD00BFE6
:101EFC0004000020074AD36823F4E0631B041B0C86
:101F0C00000200F4E060034343F0BF6343F400338A
:101F1C00D360704700ED00E000B5194BDB68C3F3EC
:101F2C000223C3F1070CBCF1040F28BF4FF0040CC3
:101F3C0003F1040EBEF1060F18D9033B4FF0FF3E20
:101F4C000EFA0CFC21EA0C0199400EFA03F322EA7A
:101F5C000303194300280BDB0901C9B200F16040EF
:101F6C0000F5614080F800135DF804FB0023E5E701
:101F7C0000F00F000901C9B2024B1954F4E700BF7D
:101F8C0000ED00E014ED00E0002807DB00F01F027C
:101F9C00400901239340024A42F82030704700BFA9
:101FAC0000E100E00138B0F1807F0BD24FF0E0236C
:101FBC005861054AF02182F823100020986107220D
:101FCC001A6170470120704700ED00E070B50446BF
:101FDC00866DFFF775FF94F83530DBB2022B06D017
:101FEC0080236365002384F83430012070BD0546DE
:101FFC002268136823F0160313602268536923F0D8
:10200C0080035361236CE3B12268136823F0080347
:10201C0013602268136823F00103136023681B68A4
:10202C0013F0010F11D0FFF74BFF431B052BF5D914
:10203C0020236365032084F83500002384F83430B2
:10204C00D4E7A36C002BDFD1E3E7E26D3F23934091
:10205C00B360012384F83530002084F83400C5E7E0
:10206C0090F83530DBB2022B03D08023436501207E
:10207C007047052380F835300268136823F001039C
:10208C00136000207047000000230F2B00F2F1803A
:10209C0070B582B061E085685E000324B44025EA27
:1020AC000405CC68B4402C438460456825EA0205DD
:1020BC004C68C4F300129A402A4342605BE0DC088F
:1020CC00083450F8246003F0070295000F22AA4050
:1020DC0026EA020E0A69AA4042EA0E0240F82420BF
:1020EC005DE0092200E0002202FA0EF22A430234DB
:1020FC00604D45F82420604A94686FEA0C0224EA8B
:10210C000C054E6816F4801F01D04CEA04055A4C9D
:10211C00A560E46802EA04054E6816F4001F01D0BD
:10212C004CEA0405544CE560646802EA04054E6808
:10213C0016F4003F01D04CEA04054F4C656024684E
:10214C0022404D6815F4803F01D04CEA04024A4C01
:10215C00226001330F2B00F28A8001229A400C6816
:10216C0004EA020C32EA0404F3D14C6804F00304D0
:10217C00013C012C8FD94A6802F00302032A09D0D2
:10218C00C4685D000322AA4024EA02048A68AA40BB
:10219C002243C2604A6802F00302022A8FD004680C
:1021AC004FEA430E032202FA0EF224EA02044A68B2
:1021BC0002F0030202FA0EF2224302604A6812F4A1
:1021CC00403FC6D0002201922C4A546C44F4804407
:1021DC005464526C02F480420192019A9C08A51C32
:1021EC00244A52F8255003F003024FEA820E0F22C4
:1021FC0002FA0EF225EA0205214A90423FF473AF2F
:10220C0002F58062904222D002F58062904220D08A
:10221C0002F5806290421ED002F5806290421CD082
:10222C0002F5806290421AD002F58062904218D07A
:10223C0002F58062904216D002F58062904214D072
:10224C0002F5806290423FF44CAF0A224CE7012227
:10225C004AE7022248E7032246E7042244E7052224
:10226C0042E7062240E707223EE708223CE702B09D
:10227C0070BD704700380140003C014000380240FE
:10228C000000024010B582B000230193194B1A6C68
:10229C0042F080521A641B6C03F080530193019B33
:1022AC00154B01221A64FFF70BFE0446134B5B68B7
:1022BC0013F4803F08D1FFF703FE001BB0F57A7FC3
:1022CC00F4D9032002B010BD0B4B01225A64FFF766
:1022DC00F7FD0446094B5B6813F4003F07D1FFF789
:1022EC00EFFD001BB0F57A7FF4D90320EAE700205C
:1022FC00E8E700BF0038024000000E4200700040CA
:10230C00002800F0E08170B582B00446036813F039
:10231C00010F3BD09F4B9B6803F00C03042B2CD07C
:10232C009C4B9B6803F00C03082B21D06368B3F51E
:10233C00803F4FD0B3F5A02F52D0964B1A6822F4A1
:10234C0080321A601A6822F480221A606368002BAB
:10235C0050D0FFF7B5FD05468E4B1B6813F4003FBC
:10236C0014D1FFF7ADFD401B6428F5D90320B1E172
:10237C00884B5B6813F4800FD8D0864B1B6813F422
:10238C00003F03D06368002B00F09F81236813F09B
:10239C00020F54D07F4B9B6813F00C0F3ED07D4B3B
:1023AC009B6803F00C03082B33D0E368002B68D038
:1023BC00794B01221A60FFF783FD0546754B1B68AC
:1023CC0013F0020F54D1FFF77BFD401B0228F5D907
:1023DC0003207FE16F4A136843F480331360B5E741
:1023EC006C4B1A6842F480221A601A6842F48032EC
:1023FC001A60ABE7FFF764FD0546664B1B6813F4E8
:10240C00003FC3D0FFF75CFD401B6428F5D90320C7
:10241C0060E1604B5B6813F4800FC6D15D4B1B68A9
:10242C0013F0020F03D0E368012B40F05081594A9E
:10243C00136823F0F803216943EAC103136023688E
:10244C0013F0080F42D063696BB3534B0122C3F8EE
:10245C00802EFFF735FD05464E4B5B6F13F0020FD8
:10246C0034D1FFF72DFD401B0228F5D9032031E1B3
:10247C00484A136823F0F803216943EAC103136047
:10248C00DDE7454B00221A60FFF71AFD0546414B6C
:10249C001B6813F0020FD2D0FFF712FD401B02286D
:1024AC00F5D9032016E13C4B0022C3F8802EFFF730
:1024BC0007FD0546374B5B6F13F0020F06D0FFF795
:1024CC00FFFC401B0228F5D9032003E1236813F01D
:1024DC00040F77D02F4B1B6C13F0805F33D100238C
:1024EC0001932C4B1A6C42F080521A641B6C03F053
:1024FC0080530193019B0125284B1B6813F4807FAB
:10250C0023D0A368012B34D0052B38D0214B1A6F64
:10251C0022F001021A671A6F22F004021A67A368EC
:10252C00002B3DD0FFF7CCFC06461A4B1B6F13F06B
:10253C00020F46D1FFF7C4FC801B41F2883398424E
:10254C00F3D90320C6E00025D6E7144A136843F4F8
:10255C0080731360FFF7B4FC0646104B1B6813F432
:10256C00807FCED1FFF7ACFC801B0228F5D903206D
:10257C00B0E0084A136F43F001031367CFE7054B34
:10258C001A6F42F004021A671A6F42F001021A67BE
:10259C00C5E700BF00380240000047420070004011
:1025AC00FFF78EFC0646524B1B6F13F0020F08D040
:1025BC00FFF786FC801B41F288339842F3D9032045
:1025CC0088E0EDB9A369002B00F08380484A92683B
:1025DC0002F00C02082A51D0022B17D0454B0022D6
:1025EC001A66FFF76DFC0446414B1B6813F0007F25
:1025FC0042D0FFF765FC001B0228F5D9032069E0E7
:10260C003B4A136C23F080531364DBE7394B0022F5
:10261C001A66FFF755FC0546354B1B6813F0007F17
:10262C0006D0FFF74DFC401B0228F5D9032051E0E2
:10263C00E369226A1343626A43EA8213A26A52086C
:10264C00013A43EA0243E26A43EA0263284A5360CE
:10265C00284B01221A66FFF733FC0446244B1B68F7
:10266C0013F0007F06D1FFF72BFC001B0228F5D9D5
:10267C0003202FE000202DE000202BE0012B2BD09D
:10268C001B4B5B6803F48001E269914226D103F095
:10269C003F02216A8A4223D1616A47F6C0721A400E
:1026AC00B2EB811F1ED103F44031A26A5208013AE9
:1026BC00B1EB024F18D103F07063E26AB3EB026F17
:1026CC0014D1002006E001207047012002E0012017
:1026DC0000E0002002B070BD0120FBE70120F9E70B
:1026EC000120F7E70120F5E70120F3E70120F1E7EE
:1026FC00003802400000474208B5254B9B6803F0A8
:10270C000C03042B3FD0082B3FD1214B5A6802F00D
:10271C003F025B6813F4800F12D01D4B5968C1F354
:10272C0088111C480023A1FB0001FDF715FF184B75
:10273C005B68C3F3014301335B00B0FBF3F025E0AE
:10274C00134B5968C1F3881C4FEA4C11B1EB0C00C8
:10275C006EEB0E0E4FEA8E1343EA90638101091A59
:10276C0063EB0E03DB0043EA5173C90011EB0C0C55
:10277C0043F10003990200234FEA8C2041EA9C515B
:10278C00FDF7EAFED3E7034800E0034808BD00BFAD
:10279C000038024040787D010024F400002800F04D
:1027AC009B8070B50D4604464F4B1B6803F00F031E
:1027BC008B4208D2CBB24C4A1370136803F00F0350
:1027CC008B4240F08B80236813F0020F17D013F06C
:1027DC00040F04D0454A936843F4E0539360236894
:1027EC0013F0080F04D0414A936843F4604393609C
:1027FC003E4A936823F0F003A1680B43936023686F
:10280C0013F0010F32D06368012B21D09A1E012ADC
:10281C0025D9364A126812F0020F61D033498A6802
:10282C0022F0030213438B60FFF74AFB06462F4B43
:10283C009B6803F00C036268B3EB820F16D0FFF7B2
:10284C003FFB801B41F288339842F0D9032042E0D1
:10285C00264A126812F4003FE0D101203BE0234AE3
:10286C00126812F0007FD9D1012034E01E4B1B6896
:10287C0003F00F03AB4207D9EAB21B4B1A701B686B
:10288C0003F00F03AB422DD1236813F0040F06D0D5
:10289C00164A936823F4E053E1680B439360236872
:1028AC0013F0080F07D0114A936823F46043216991
:1028BC0043EAC1039360FFF71FFF0C4B9B68C3F304
:1028CC0003130B4AD35CD8400A4B18600A4B1868A8
:1028DC00FFF7AAFA002070BD012070470120FAE72B
:1028EC000120F8E70120F6E7003C024000380240E6
:1028FC00043300080000002008000020014B186879
:10290C00704700BF0000002008B5FFF7F7FF044B2D
:10291C009B68C3F38223034AD35CD84008BD00BF35
:10292C00003802401433000808B5FFF7E7FF044BEA
:10293C009B68C3F34233034AD35CD84008BD00BF45
:10294C000038024014330008026802F10C0353E80B
:10295C00003F23F490730C3242E800310029F3D18C
:10296C00026802F1140353E8003F23F00103143210
:10297C0042E800310029F3D1036B012B05D0202351
:10298C0080F83E30002303637047026802F10C03A9
:10299C0053E8003F23F010030C3242E800310029C9
:1029AC00F3D1ECE790F83D30DBB2212B01D00220C3
:1029BC0070478368B3F5805F17D0036A5A1C0262B4
:1029CC001A7803685A60C38C9BB2013B9BB2C384D8
:1029DC004BB90268D36823F08003D3600268D368D4
:1029EC0043F04003D360002070470369002BE4D10F
:1029FC00036A1B880268C3F308035360036A02333B
:102A0C000362E0E738B504460268136923F44053C7
:102A1C00C1680B4313618368026913434269134312
:102A2C00C2691A430168CB6823F4164323F00C03E4
:102A3C001343CB600268536923F4407381690B43E1
:102A4C0053610368314A934206D002F58062934287
:102A5C0002D0FFF759FF01E0FFF766FFE369B3F51A
:102A6C00004F29D00021031849411B1841F10001E6
:102A7C00C90041EA5371DB00181863684FEA8302FE
:102A8C004FEA937341F10001FDF766FD204DA5FB64
:102A9C0000325109642303FB11031B013233A5FBE4
:102AAC0003235B0903F0F00202EB011203F00F03A6
:102ABC00216813448B6038BD0023021843EB0301DB
:102ACC00121841F10001C90041EA5271D2001018EC
:102ADC0041F10001626892185B41FDF73DFD0C4D20
:102AEC00A5FB00325109642303FB1103DB003233D5
:102AFC00A5FB03235B095A0002F4F87202EB0112E6
:102B0C0003F00703216813448B60D4E700100140E5
:102B1C001F85EB512DE9F84305460F46164699469D
:102B2C00DDF820802C68246837EA04030CBF4FF0D2
:102B3C00010C4FF0000CB4452DD1B8F1FF3FF1D092
:102B4C00B8F1000F05D0FFF7BBF9A0EB0900404529
:102B5C00E8D92A6802F10C0353E8003F23F4D07340
:102B6C000C3242E800310029F3D12A6802F1140337
:102B7C0053E8003F23F00103143242E800310029EE
:102B8C00F3D1202385F83D3085F83E30002385F8BD
:102B9C003C30032000E00020BDE8F88358B310B5AA
:102BAC00044690F83D300BB3242384F83D30226862
:102BBC00D36823F40053D3602046FFF723FF226829
:102BCC00136923F4904313612268536923F02A0399
:102BDC0053612268D36843F40053D360002020640F
:102BEC00202384F83D3084F83E3010BD80F83C3012
:102BFC00FFF792F8D8E7012070472DE9F04182B039
:102C0C001E4690F83D30DBB2202B54D104460D46C5
:102C1C009046002953D0002A53D090F83C30012B19
:102C2C0051D0012380F83C3000230364212380F829
:102C3C003D30FFF745F90746A4F82480A4F8268018
:102C4C00A368B3F5805F05D04FF00008002384F82B
:102C5C003C3012E0236913B14FF00008F6E7A846A8
:102C6C000025F3E738F8023B2268C3F308035360EE
:102C7C00E28C92B2013A92B2E284E38C9BB273B1D1
:102C8C0000963B46002280212046FFF743FFE0B927
:102C9C00002DE7D015F8012B23685A60E8E7009661
:102CAC003B46002240212046FFF734FF78B9202311
:102CBC0084F83D3000E0022002B0BDE8F081012034
:102CCC00FAE70120F8E70220F6E70320F4E70320F7
:102CDC00F2E7704708B50168CA6822F04002CA6082
:102CEC00202280F83D20FFF7F4FF002008BD70473C
:102CFC0008B5806B0023C385C384FFF7F8FF08BDBC
:102D0C00704790F83E30DBB2222B67D18368B3F565
:102D1C00805F4DD0826AB3F5805F04D0002B54D114
:102D2C000369002B51D103685B681370836A01330C
:102D3C008362C38D9BB2013B9BB2C385002B4FD1E9
:102D4C0000B583B00268D36823F02003D360026817
:102D5C00D36823F48073D3600268536923F00103B2
:102D6C005361202380F83E30036B012B33D10023B9
:102D7C000363026802F10C0353E8003F23F01003D5
:102D8C000C3242E800310029F3D103681A6812F0C2
:102D9C00100F06D0002201921A6801925B68019311
:102DAC00019B818DFFF7ACFF002003B05DF804FBA5
:102DBC000269002AAED1826A03685B68C3F3080318
:102DCC001380836A02338362B3E703685B6803F0A2
:102DDC007F031370AAE7FEF70DFBE5E702207047AF
:102DEC000020704730B583B0044602681368D06881
:102DFC00516913F00F0505D113F0200F02D010F01C
:102E0C00200F19D12DB111F0010119D110F4907FBF
:102E1C0016D1216B01297DD013F0800F03D010F057
:102E2C00800F40F0158113F0400F03D010F0400FCD
:102E3C0040F0128103B030BD2046FFF762FFF9E786
:102E4C0013F0010F06D010F4807F03D0226C42F0F7
:102E5C000102226413F0040F04D019B1226C42F069
:102E6C000202226413F0020F04D019B1226C42F05A
:102E7C000402226413F0080F07D010F0200F00D1C9
:102E8C0019B1226C42F008022264226C002AD1D0C3
:102E9C0013F0200F02D010F0200F29D123685B69AA
:102EAC0003F04003226C12F0080F00D163B32046EC
:102EBC00FFF74AFD23685B6913F0400F20D02268AE
:102ECC0002F1140353E8003F23F04003143242E8AC
:102EDC0000310029F3D1A36B73B1614A1A65A06B61
:102EEC00FFF7BEF80028A5D0A06B036D9847A1E7AB
:102EFC002046FFF706FFD1E72046FFF7F8FE99E7DB
:102F0C002046FFF7F4FE95E72046FFF7F0FE00237E
:102F1C0023648FE713F0100F3FF47EAF10F0100F07
:102F2C003FF47AAF00230193136801935368019324
:102F3C00019B536913F0400F50D0A26B13685B6870
:102F4C009BB2002B3FF476AFA18D99427FF672AF06
:102F5C00E385D369B3F5807F37D0226802F10C0387
:102F6C0053E8003F23F480730C3242E8003100290F
:102F7C00F3D1226802F1140353E8003F23F001035C
:102F8C00143242E800310029F3D1226802F1140313
:102F9C0053E8003F23F04003143242E8003100298B
:102FAC00F3D1202384F83E3000232363226802F1FE
:102FBC000C0353E8003F23F010030C3242E80031BD
:102FCC000029F3D1A06BFFF701F8A18DE38D9BB223
:102FDC00C91A89B22046FFF793FE2BE7A18DE38D2A
:102FEC009BB2C91A89B2E38D9BB2002B3FF422AF7E
:102FFC0000293FF41FAF226802F10C0353E8003F95
:10300C0023F490730C3242E800300028F3D122688C
:10301C0002F1140353E8003F23F00103143242E899
:10302C0000300028F3D1202384F83E3000232363A2
:10303C00226802F10C0353E8003F23F010030C321A
:10304C0042E800300028F3D12046FFF759FEF1E6A4
:10305C002046FFF7A7FCEDE62046FFF73BFEE9E62E
:10306C00FD2C0008032905D801EB81018B01024AD4
:10307C00D0507047FEE700BFEC00002003282FD88B
:10308C0000EB80039B01184AD35853B300EB80002C
:10309C0002EB8010043093F83E20D2B2202A1BD1D0
:1030AC00E0B100221A63986201219985D9851A64CE
:1030BC00222183F83E101868C16841F48071C16008
:1030CC001868416941F0010141611968CB6843F00E
:1030DC002003CB60104670470220704701207047D8
:1030EC00FEE74FF0FF307047EC000020DFF834D0E3
:1030FC000D480E490E4A002302E0D458C450043344
:10310C00C4188C42F9D30B4A0B4C002301E013601A
:10311C000432A242FBD3FEF7C1FD00F011F8FEF71A
:10312C0027FA704700000320000000200C0000204C
:10313C002C33000810000020EC050020FEE70000F6
:10314C0070B50D4D0D4C641BA4100026A64209D180
:10315C000B4D0C4C00F03EF8641BA4100026A6424C
:10316C0005D170BD55F8043B98470136EEE755F88C
:10317C00043B98470136F2E7243300082433000857
:10318C00243300082833000810B50139024490425A
:10319C0001D1002005E0037811F8014FA34201D0C2
:1031AC00181B10BD0130F2E70A44914200F1FF33C5
:1031BC0000D1704710B511F8014B03F8014F914243
:1031CC00F9D110BD02440346934200D1704703F875
:1031DC00011BF9E7F8B500BFF8BC08BC9E46704768
:0C31EC00F8B500BFF8BC08BC9E46704758
:1031F80001000000FB18180000000000982F8A4208
:1032080091443771CFFBC0B5A5DBB5E95BC2563930
:10321800F111F159A4823F92D55E1CAB98AA07D848
:10322800015B8312BE853124C37D0C55745DBE726B
:10323800FEB1DE80A706DC9B74F19BC1C1699BE4EB
:103248008647BEEFC69DC10FCCA10C246F2CE92D7B
:10325800AA84744ADCA9B05CDA88F97652513E989F
:103268006DC631A8C82703B0C77F59BFF30BE0C6A6
:103278004791A7D55163CA0667292914850AB72734
:1032880038211B2EFC6D2C4D130D385354730A65D1
:10329800BB0A6A762EC9C281852C7292A1E8BFA2A8
:1032A8004B661AA8708B4BC2A3516CC719E892D110
:1032B800240699D685350EF470A06A1016C1A41993
:1032C800086C371E4C774827B5BCB034B30C1C3992
:1032D8004AAAD84E4FCA9C5BF36F2E68EE828F7451
:1032E8006F63A5781478C8840802C78CFAFFBE906B
:1032F800EB6C50A4F7A3F9BEF27871C60000000089
:10330800000000000102030406070809000000008D
:0433180001020304A7
:08331C0078D2FF7F01000000E0
:04332400D1010008CB
:04332800AD010008EB
:0C332C000024F40001000000100000006C
:04000005080030F9C6
:00000001FF
